{
  "address": "0x23d33D4b35ee14bbd2A78868182a1A1D87CB3930",
  "abi": [
    {
      "inputs": [],
      "stateMutability": "nonpayable",
      "type": "constructor"
    },
    {
      "anonymous": false,
      "inputs": [
        {
          "indexed": true,
          "internalType": "address",
          "name": "owner",
          "type": "address"
        },
        {
          "indexed": true,
          "internalType": "address",
          "name": "approved",
          "type": "address"
        },
        {
          "indexed": true,
          "internalType": "uint256",
          "name": "tokenId",
          "type": "uint256"
        }
      ],
      "name": "Approval",
      "type": "event"
    },
    {
      "anonymous": false,
      "inputs": [
        {
          "indexed": true,
          "internalType": "address",
          "name": "owner",
          "type": "address"
        },
        {
          "indexed": true,
          "internalType": "address",
          "name": "operator",
          "type": "address"
        },
        {
          "indexed": false,
          "internalType": "bool",
          "name": "approved",
          "type": "bool"
        }
      ],
      "name": "ApprovalForAll",
      "type": "event"
    },
    {
      "anonymous": false,
      "inputs": [
        {
          "indexed": false,
          "internalType": "uint256",
          "name": "price",
          "type": "uint256"
        },
        {
          "indexed": false,
          "internalType": "address",
          "name": "owner",
          "type": "address"
        }
      ],
      "name": "EditionSold",
      "type": "event"
    },
    {
      "anonymous": false,
      "inputs": [
        {
          "indexed": true,
          "internalType": "address",
          "name": "previousOwner",
          "type": "address"
        },
        {
          "indexed": true,
          "internalType": "address",
          "name": "newOwner",
          "type": "address"
        }
      ],
      "name": "OwnershipTransferred",
      "type": "event"
    },
    {
      "anonymous": false,
      "inputs": [
        {
          "indexed": false,
          "internalType": "uint256",
          "name": "amount",
          "type": "uint256"
        }
      ],
      "name": "PriceChanged",
      "type": "event"
    },
    {
      "anonymous": false,
      "inputs": [
        {
          "indexed": false,
          "internalType": "address",
          "name": "to",
          "type": "address"
        },
        {
          "indexed": false,
          "internalType": "uint256",
          "name": "amount",
          "type": "uint256"
        }
      ],
      "name": "SharesPaid",
      "type": "event"
    },
    {
      "anonymous": false,
      "inputs": [
        {
          "indexed": true,
          "internalType": "address",
          "name": "from",
          "type": "address"
        },
        {
          "indexed": true,
          "internalType": "address",
          "name": "to",
          "type": "address"
        },
        {
          "indexed": true,
          "internalType": "uint256",
          "name": "tokenId",
          "type": "uint256"
        }
      ],
      "name": "Transfer",
      "type": "event"
    },
    {
      "inputs": [
        {
          "internalType": "uint256",
          "name": "start",
          "type": "uint256"
        },
        {
          "internalType": "uint256",
          "name": "end",
          "type": "uint256"
        }
      ],
      "name": "airdrop",
      "outputs": [
        {
          "internalType": "uint256",
          "name": "",
          "type": "uint256"
        }
      ],
      "stateMutability": "nonpayable",
      "type": "function"
    },
    {
      "inputs": [
        {
          "internalType": "bool",
          "name": "allow",
          "type": "bool"
        }
      ],
      "name": "allowPublic",
      "outputs": [],
      "stateMutability": "nonpayable",
      "type": "function"
    },
    {
      "inputs": [
        {
          "internalType": "address",
          "name": "minter",
          "type": "address"
        }
      ],
      "name": "allowanceOf",
      "outputs": [
        {
          "internalType": "uint16",
          "name": "",
          "type": "uint16"
        }
      ],
      "stateMutability": "view",
      "type": "function"
    },
    {
      "inputs": [],
      "name": "allowancesRef",
      "outputs": [
        {
          "internalType": "address",
          "name": "",
          "type": "address"
        }
      ],
      "stateMutability": "view",
      "type": "function"
    },
    {
      "inputs": [
        {
          "internalType": "address",
          "name": "to",
          "type": "address"
        },
        {
          "internalType": "uint256",
          "name": "tokenId",
          "type": "uint256"
        }
      ],
      "name": "approve",
      "outputs": [],
      "stateMutability": "nonpayable",
      "type": "function"
    },
    {
      "inputs": [
        {
          "internalType": "address",
          "name": "owner",
          "type": "address"
        }
      ],
      "name": "balanceOf",
      "outputs": [
        {
          "internalType": "uint256",
          "name": "",
          "type": "uint256"
        }
      ],
      "stateMutability": "view",
      "type": "function"
    },
    {
      "inputs": [
        {
          "internalType": "uint256",
          "name": "tokenId",
          "type": "uint256"
        }
      ],
      "name": "burn",
      "outputs": [],
      "stateMutability": "nonpayable",
      "type": "function"
    },
    {
      "inputs": [],
      "name": "contentHash",
      "outputs": [
        {
          "internalType": "bytes32",
          "name": "",
          "type": "bytes32"
        }
      ],
      "stateMutability": "view",
      "type": "function"
    },
    {
      "inputs": [],
      "name": "contentUrl",
      "outputs": [
        {
          "internalType": "string",
          "name": "",
          "type": "string"
        }
      ],
      "stateMutability": "view",
      "type": "function"
    },
    {
      "inputs": [
        {
          "internalType": "uint256",
          "name": "tokenId",
          "type": "uint256"
        }
      ],
      "name": "getApproved",
      "outputs": [
        {
          "internalType": "address",
          "name": "",
          "type": "address"
        }
      ],
      "stateMutability": "view",
      "type": "function"
    },
    {
      "inputs": [],
      "name": "getURI",
      "outputs": [
        {
          "internalType": "string",
          "name": "",
          "type": "string"
        },
        {
          "internalType": "bytes32",
          "name": "",
          "type": "bytes32"
        },
        {
          "internalType": "string",
          "name": "",
          "type": "string"
        }
      ],
      "stateMutability": "view",
      "type": "function"
    },
    {
      "inputs": [
        {
          "internalType": "address",
          "name": "_owner",
          "type": "address"
        },
        {
          "components": [
            {
              "internalType": "string",
              "name": "name",
              "type": "string"
            },
            {
              "internalType": "string",
              "name": "symbol",
              "type": "string"
            },
            {
              "internalType": "string",
              "name": "contentUrl",
              "type": "string"
            },
            {
              "internalType": "bytes32",
              "name": "contentHash",
              "type": "bytes32"
            },
            {
              "internalType": "string",
              "name": "metadataUrl",
              "type": "string"
            }
          ],
          "internalType": "struct MintableRewards.Info",
          "name": "_info",
          "type": "tuple"
        },
        {
          "internalType": "uint64",
          "name": "_size",
          "type": "uint64"
        },
        {
          "internalType": "uint256",
          "name": "_price",
          "type": "uint256"
        },
        {
          "internalType": "uint16",
          "name": "_royalties",
          "type": "uint16"
        },
        {
          "components": [
            {
              "internalType": "address payable",
              "name": "holder",
              "type": "address"
            },
            {
              "internalType": "uint16",
              "name": "bps",
              "type": "uint16"
            }
          ],
          "internalType": "struct MintableRewards.Shares[]",
          "name": "_shares",
          "type": "tuple[]"
        },
        {
          "internalType": "address",
          "name": "_allowancesRef",
          "type": "address"
        }
      ],
      "name": "initialize",
      "outputs": [],
      "stateMutability": "nonpayable",
      "type": "function"
    },
    {
      "inputs": [
        {
          "internalType": "address",
          "name": "owner",
          "type": "address"
        },
        {
          "internalType": "address",
          "name": "operator",
          "type": "address"
        }
      ],
      "name": "isApprovedForAll",
      "outputs": [
        {
          "internalType": "bool",
          "name": "",
          "type": "bool"
        }
      ],
      "stateMutability": "view",
      "type": "function"
    },
    {
      "inputs": [],
      "name": "metadataUrl",
      "outputs": [
        {
          "internalType": "string",
          "name": "",
          "type": "string"
        }
      ],
      "stateMutability": "view",
      "type": "function"
    },
    {
      "inputs": [],
      "name": "mint",
      "outputs": [
        {
          "internalType": "uint256",
          "name": "",
          "type": "uint256"
        }
      ],
      "stateMutability": "nonpayable",
      "type": "function"
    },
    {
      "inputs": [
        {
          "internalType": "address[]",
          "name": "recipients",
          "type": "address[]"
        }
      ],
      "name": "mintAndTransfer",
      "outputs": [
        {
          "internalType": "uint256",
          "name": "",
          "type": "uint256"
        }
      ],
      "stateMutability": "nonpayable",
      "type": "function"
    },
    {
      "inputs": [],
      "name": "mintable",
      "outputs": [
        {
          "internalType": "uint256",
          "name": "",
          "type": "uint256"
        }
      ],
      "stateMutability": "view",
      "type": "function"
    },
    {
      "inputs": [],
      "name": "name",
      "outputs": [
        {
          "internalType": "string",
          "name": "",
          "type": "string"
        }
      ],
      "stateMutability": "view",
      "type": "function"
    },
    {
      "inputs": [],
      "name": "owner",
      "outputs": [
        {
          "internalType": "address",
          "name": "",
          "type": "address"
        }
      ],
      "stateMutability": "view",
      "type": "function"
    },
    {
      "inputs": [
        {
          "internalType": "uint256",
          "name": "tokenId",
          "type": "uint256"
        }
      ],
      "name": "ownerOf",
      "outputs": [
        {
          "internalType": "address",
          "name": "",
          "type": "address"
        }
      ],
      "stateMutability": "view",
      "type": "function"
    },
    {
      "inputs": [],
      "name": "price",
      "outputs": [
        {
          "internalType": "uint256",
          "name": "",
          "type": "uint256"
        }
      ],
      "stateMutability": "view",
      "type": "function"
    },
    {
      "inputs": [],
      "name": "purchase",
      "outputs": [
        {
          "internalType": "uint256",
          "name": "",
          "type": "uint256"
        }
      ],
      "stateMutability": "payable",
      "type": "function"
    },
    {
      "inputs": [],
      "name": "renounceOwnership",
      "outputs": [],
      "stateMutability": "nonpayable",
      "type": "function"
    },
    {
      "inputs": [],
      "name": "royalties",
      "outputs": [
        {
          "internalType": "uint16",
          "name": "",
          "type": "uint16"
        }
      ],
      "stateMutability": "view",
      "type": "function"
    },
    {
      "inputs": [
        {
          "internalType": "uint256",
          "name": "",
          "type": "uint256"
        },
        {
          "internalType": "uint256",
          "name": "_value",
          "type": "uint256"
        }
      ],
      "name": "royaltyInfo",
      "outputs": [
        {
          "internalType": "address",
          "name": "receiver",
          "type": "address"
        },
        {
          "internalType": "uint256",
          "name": "royaltyAmount",
          "type": "uint256"
        }
      ],
      "stateMutability": "view",
      "type": "function"
    },
    {
      "inputs": [
        {
          "internalType": "address",
          "name": "from",
          "type": "address"
        },
        {
          "internalType": "address",
          "name": "to",
          "type": "address"
        },
        {
          "internalType": "uint256",
          "name": "tokenId",
          "type": "uint256"
        }
      ],
      "name": "safeTransferFrom",
      "outputs": [],
      "stateMutability": "nonpayable",
      "type": "function"
    },
    {
      "inputs": [
        {
          "internalType": "address",
          "name": "from",
          "type": "address"
        },
        {
          "internalType": "address",
          "name": "to",
          "type": "address"
        },
        {
          "internalType": "uint256",
          "name": "tokenId",
          "type": "uint256"
        },
        {
          "internalType": "bytes",
          "name": "_data",
          "type": "bytes"
        }
      ],
      "name": "safeTransferFrom",
      "outputs": [],
      "stateMutability": "nonpayable",
      "type": "function"
    },
    {
      "inputs": [
        {
          "internalType": "address",
          "name": "operator",
          "type": "address"
        },
        {
          "internalType": "bool",
          "name": "approved",
          "type": "bool"
        }
      ],
      "name": "setApprovalForAll",
      "outputs": [],
      "stateMutability": "nonpayable",
      "type": "function"
    },
    {
      "inputs": [
        {
          "internalType": "uint256",
          "name": "_wei",
          "type": "uint256"
        }
      ],
      "name": "setPrice",
      "outputs": [],
      "stateMutability": "nonpayable",
      "type": "function"
    },
    {
      "inputs": [],
      "name": "shake",
      "outputs": [],
      "stateMutability": "nonpayable",
      "type": "function"
    },
    {
      "inputs": [
        {
          "internalType": "address",
          "name": "",
          "type": "address"
        }
      ],
      "name": "shares",
      "outputs": [
        {
          "internalType": "uint16",
          "name": "",
          "type": "uint16"
        }
      ],
      "stateMutability": "view",
      "type": "function"
    },
    {
      "inputs": [],
      "name": "size",
      "outputs": [
        {
          "internalType": "uint64",
          "name": "",
          "type": "uint64"
        }
      ],
      "stateMutability": "view",
      "type": "function"
    },
    {
      "inputs": [
        {
          "internalType": "bytes4",
          "name": "interfaceId",
          "type": "bytes4"
        }
      ],
      "name": "supportsInterface",
      "outputs": [
        {
          "internalType": "bool",
          "name": "",
          "type": "bool"
        }
      ],
      "stateMutability": "view",
      "type": "function"
    },
    {
      "inputs": [],
      "name": "symbol",
      "outputs": [
        {
          "internalType": "string",
          "name": "",
          "type": "string"
        }
      ],
      "stateMutability": "view",
      "type": "function"
    },
    {
      "inputs": [
        {
          "internalType": "uint256",
          "name": "tokenId",
          "type": "uint256"
        }
      ],
      "name": "tokenURI",
      "outputs": [
        {
          "internalType": "string",
          "name": "",
          "type": "string"
        }
      ],
      "stateMutability": "view",
      "type": "function"
    },
    {
      "inputs": [],
      "name": "totalSupply",
      "outputs": [
        {
          "internalType": "uint256",
          "name": "",
          "type": "uint256"
        }
      ],
      "stateMutability": "view",
      "type": "function"
    },
    {
      "inputs": [
        {
          "internalType": "address",
          "name": "from",
          "type": "address"
        },
        {
          "internalType": "address",
          "name": "to",
          "type": "address"
        },
        {
          "internalType": "uint256",
          "name": "tokenId",
          "type": "uint256"
        }
      ],
      "name": "transferFrom",
      "outputs": [],
      "stateMutability": "nonpayable",
      "type": "function"
    },
    {
      "inputs": [
        {
          "internalType": "address",
          "name": "newOwner",
          "type": "address"
        }
      ],
      "name": "transferOwnership",
      "outputs": [],
      "stateMutability": "nonpayable",
      "type": "function"
    },
    {
      "inputs": [
        {
          "internalType": "address",
          "name": "_allowancesRef",
          "type": "address"
        }
      ],
      "name": "updateAllowancesRef",
      "outputs": [],
      "stateMutability": "nonpayable",
      "type": "function"
    },
    {
      "inputs": [
        {
          "internalType": "string",
          "name": "_contentUrl",
          "type": "string"
        },
        {
          "internalType": "string",
          "name": "_metadataUrl",
          "type": "string"
        }
      ],
      "name": "updateEditionsURLs2",
      "outputs": [],
      "stateMutability": "nonpayable",
      "type": "function"
    },
    {
      "inputs": [],
      "name": "withdraw",
      "outputs": [],
      "stateMutability": "nonpayable",
      "type": "function"
    },
    {
      "inputs": [
        {
          "internalType": "address payable",
          "name": "_account",
          "type": "address"
        }
      ],
      "name": "withdrawable",
      "outputs": [
        {
          "internalType": "uint256",
          "name": "",
          "type": "uint256"
        }
      ],
      "stateMutability": "view",
      "type": "function"
    }
  ],
  "transactionHash": "0x2e56aa63da7076c42fab85abd073834a7ea84381941e9d5466e9d8147b8179c6",
  "args": [],
  "numDeployments": 3,
  "solcInputHash": "a8356d8f63c996217c062202e4738831",
  "bytecode": "0x60806040523480156200001157600080fd5b50600054610100900460ff166200002f5760005460ff161562000039565b62000039620000de565b620000a15760405162461bcd60e51b815260206004820152602e60248201527f496e697469616c697a61626c653a20636f6e747261637420697320616c72656160448201526d191e481a5b9a5d1a585b1a5e995960921b606482015260840160405180910390fd5b600054610100900460ff16158015620000c4576000805461ffff19166101011790555b8015620000d7576000805461ff00191690555b5062000102565b6000620000f630620000fc60201b62002a211760201c565b15905090565b3b151590565b614f2380620001126000396000f3fe6080604052600436106102d15760003560e01c806379847b9911610179578063a22cb465116100d6578063ce513b6f1161008a578063e985e9c511610064578063e985e9c5146107f1578063f053dc5c14610847578063f2fde38b1461086e57600080fd5b8063ce513b6f14610780578063ce7c2ac2146107a0578063d7b97ef6146107d157600080fd5b8063bfd2385e116100bb578063bfd2385e14610718578063c87b56dd1461074b578063cd29c71a1461076b57600080fd5b8063a22cb465146106d8578063b88d4fde146106f857600080fd5b806391b7f5ed1161012d57806395d89b411161011257806395d89b411461068d5780639b8581d0146106a2578063a035b1fe146106c257600080fd5b806391b7f5ed14610633578063949d225d1461065357600080fd5b8063850710c31161015e578063850710c3146105e95780638b69e422146105fe5780638da5cb5b1461061e57600080fd5b806379847b9914610599578063825f98d4146105d457600080fd5b80633ccfd60b11610232578063646c2e33116101e657806370a08231116101c057806370a0823114610540578063715018a6146105605780637754305c1461057557600080fd5b8063646c2e331461050257806364edfbf0146105185780636f243a9c1461052057600080fd5b806342966c681161021757806342966c68146104ad5780634bf365df146104cd5780636352211e146104e257600080fd5b80633ccfd60b1461047857806342842e0e1461048d57600080fd5b806318160ddd1161028957806323b872dd1161026e57806323b872dd146103ec5780632a55205a1461040c5780632add8f5b1461045857600080fd5b806318160ddd146103b757806318f0043f146103cc57600080fd5b8063081812fc116102ba578063081812fc1461032d578063095ea7b3146103725780631249c58b1461039457600080fd5b806301ffc9a7146102d657806306fdde031461030b575b600080fd5b3480156102e257600080fd5b506102f66102f1366004614341565b61088e565b60405190151581526020015b60405180910390f35b34801561031757600080fd5b506103206108ea565b60405161030291906143d4565b34801561033957600080fd5b5061034d6103483660046143e7565b61097c565b60405173ffffffffffffffffffffffffffffffffffffffff9091168152602001610302565b34801561037e57600080fd5b5061039261038d366004614432565b610a5b565b005b3480156103a057600080fd5b506103a9610be8565b604051908152602001610302565b3480156103c357600080fd5b506103a9610d2c565b3480156103d857600080fd5b506103926103e73660046146bf565b610d48565b3480156103f857600080fd5b50610392610407366004614815565b61126d565b34801561041857600080fd5b5061042c610427366004614856565b61130f565b6040805173ffffffffffffffffffffffffffffffffffffffff9093168352602083019190915201610302565b34801561046457600080fd5b50610392610473366004614878565b611389565b34801561048457600080fd5b506103926114cc565b34801561049957600080fd5b506103926104a8366004614815565b6114d7565b3480156104b957600080fd5b506103926104c83660046143e7565b6114f2565b3480156104d957600080fd5b506103a961156d565b3480156104ee57600080fd5b5061034d6104fd3660046143e7565b6115c5565b34801561050e57600080fd5b506103a960cb5481565b6103a9611677565b34801561052c57600080fd5b506103a961053b366004614856565b6117ef565b34801561054c57600080fd5b506103a961055b366004614878565b611cb3565b34801561056c57600080fd5b50610392611d81565b34801561058157600080fd5b5061058a611e85565b60405161030293929190614895565b3480156105a557600080fd5b5060cd5461034d906a0100000000000000000000900473ffffffffffffffffffffffffffffffffffffffff1681565b3480156105e057600080fd5b50610392611fb5565b3480156105f557600080fd5b50610320612011565b34801561060a57600080fd5b506103926106193660046148ca565b61209f565b34801561062a57600080fd5b5061034d612222565b34801561063f57600080fd5b5061039261064e3660046143e7565b612243565b34801561065f57600080fd5b5060cd546106749067ffffffffffffffff1681565b60405167ffffffffffffffff9091168152602001610302565b34801561069957600080fd5b50610320612304565b3480156106ae57600080fd5b506103926106bd36600461493e565b612313565b3480156106ce57600080fd5b506103a960cf5481565b3480156106e457600080fd5b506103926106f3366004614959565b612405565b34801561070457600080fd5b5061039261071336600461498e565b612414565b34801561072457600080fd5b50610738610733366004614878565b6124bc565b60405161ffff9091168152602001610302565b34801561075757600080fd5b506103206107663660046143e7565b6125df565b34801561077757600080fd5b5061032061269f565b34801561078c57600080fd5b506103a961079b366004614878565b6126ac565b3480156107ac57600080fd5b506107386107bb366004614878565b60d16020526000908152604090205461ffff1681565b3480156107dd57600080fd5b506103a96107ec366004614a0e565b612720565b3480156107fd57600080fd5b506102f661080c366004614aa8565b73ffffffffffffffffffffffffffffffffffffffff9182166000908152606a6020908152604080832093909416825291909152205460ff1690565b34801561085357600080fd5b5060cd546107389068010000000000000000900461ffff1681565b34801561087a57600080fd5b50610392610889366004614878565b612803565b60007f2a55205a000000000000000000000000000000000000000000000000000000007fffffffff00000000000000000000000000000000000000000000000000000000831614806108e457506108e482612a27565b92915050565b6060606580546108f990614ae1565b80601f016020809104026020016040519081016040528092919081815260200182805461092590614ae1565b80156109725780601f1061094757610100808354040283529160200191610972565b820191906000526020600020905b81548152906001019060200180831161095557829003601f168201915b5050505050905090565b60008181526067602052604081205473ffffffffffffffffffffffffffffffffffffffff16610a32576040517f08c379a000000000000000000000000000000000000000000000000000000000815260206004820152602c60248201527f4552433732313a20617070726f76656420717565727920666f72206e6f6e657860448201527f697374656e7420746f6b656e000000000000000000000000000000000000000060648201526084015b60405180910390fd5b5060009081526069602052604090205473ffffffffffffffffffffffffffffffffffffffff1690565b6000610a66826115c5565b90508073ffffffffffffffffffffffffffffffffffffffff168373ffffffffffffffffffffffffffffffffffffffff161415610b24576040517f08c379a000000000000000000000000000000000000000000000000000000000815260206004820152602160248201527f4552433732313a20617070726f76616c20746f2063757272656e74206f776e6560448201527f72000000000000000000000000000000000000000000000000000000000000006064820152608401610a29565b3373ffffffffffffffffffffffffffffffffffffffff82161480610b4d5750610b4d813361080c565b610bd9576040517f08c379a000000000000000000000000000000000000000000000000000000000815260206004820152603860248201527f4552433732313a20617070726f76652063616c6c6572206973206e6f74206f7760448201527f6e6572206e6f7220617070726f76656420666f7220616c6c00000000000000006064820152608401610a29565b610be38383612b0a565b505050565b6000610bf46001612baa565b610c5a576040517f08c379a000000000000000000000000000000000000000000000000000000000815260206004820152601360248201527f4d696e74696e67206e6f7420616c6c6f776564000000000000000000000000006044820152606401610a29565b604080516001808252818301909252600091602080830190803683370190505090503381600081518110610c9057610c90614b35565b73ffffffffffffffffffffffffffffffffffffffff9092166020928302919091019091015233610cbe612222565b73ffffffffffffffffffffffffffffffffffffffff1614158015610d0e57506000805260ce6020527fd3f5862f6f80175da7514904f3a889cc3cc8c4f3af5129e28cdeaee2baa6efc45461ffff16155b15610d1d57610d1d6001612ce7565b610d2681612d27565b91505090565b60006001610d3960c95490565b610d439190614b93565b905090565b600054610100900460ff16610d635760005460ff1615610d67565b303b155b610df3576040517f08c379a000000000000000000000000000000000000000000000000000000000815260206004820152602e60248201527f496e697469616c697a61626c653a20636f6e747261637420697320616c72656160448201527f647920696e697469616c697a65640000000000000000000000000000000000006064820152608401610a29565b600054610100900460ff16158015610e3257600080547fffffffffffffffffffffffffffffffffffffffffffffffffffffffffffff0000166101011790555b610e4487600001518860200151612e00565b610e4c612eb1565b610e5588612803565b600087604001515111610ec4576040517f08c379a000000000000000000000000000000000000000000000000000000000815260206004820152601160248201527f456d70747920636f6e74656e742055524c0000000000000000000000000000006044820152606401610a29565b60408701518051610edd9160ca9160209091019061427a565b50606087015160cb55608087015151610f52576040517f08c379a000000000000000000000000000000000000000000000000000000000815260206004820152601260248201527f456d707479206d657461646174612055524c00000000000000000000000000006044820152606401610a29565b60808701518051610f6b9160cc9160209091019061427a565b5060cd80547fffffffffffffffffffffffffffffffffffffffffffffffff00000000000000001667ffffffffffffffff881617905560cf85905573ffffffffffffffffffffffffffffffffffffffff8216611022576040517f08c379a000000000000000000000000000000000000000000000000000000000815260206004820152601d60248201527f416c6c6f77616e6365733a20696e76616c6964207265666572656e63650000006044820152606401610a29565b60cd80547fffff0000000000000000000000000000000000000000ffffffffffffffffffff166a010000000000000000000073ffffffffffffffffffffffffffffffffffffffff85160217905560c9805460010190556127108461ffff16106110e7576040517f08c379a000000000000000000000000000000000000000000000000000000000815260206004820152601260248201527f526f79616c7469657320746f6f206869676800000000000000000000000000006044820152606401610a29565b60cd80547fffffffffffffffffffffffffffffffffffffffffffff0000ffffffffffffffff166801000000000000000061ffff8716021790556000805b84518110156111ae5761117185828151811061114257611142614b35565b60200260200101516000015186838151811061116057611160614b35565b602002602001015160200151612f58565b84818151811061118357611183614b35565b6020026020010151602001518261119a9190614baa565b9150806111a681614bd0565b915050611124565b506127108161ffff161061121e576040517f08c379a000000000000000000000000000000000000000000000000000000000815260206004820152600f60248201527f53686172657320746f6f206869676800000000000000000000000000000000006044820152606401610a29565b6112338961122e83612710614c09565b612f58565b50801561126357600080547fffffffffffffffffffffffffffffffffffffffffffffffffffffffffffff00ff1690555b5050505050505050565b611278335b82613196565b611304576040517f08c379a000000000000000000000000000000000000000000000000000000000815260206004820152603160248201527f4552433732313a207472616e736665722063616c6c6572206973206e6f74206f60448201527f776e6572206e6f7220617070726f7665640000000000000000000000000000006064820152608401610a29565b610be3838383613302565b6000808061131b612222565b73ffffffffffffffffffffffffffffffffffffffff16141561134a5761133f612222565b600091509150611382565b611352612222565b60cd54612710906113739068010000000000000000900461ffff1686614c2c565b61137d9190614c98565b915091505b9250929050565b33611392612222565b73ffffffffffffffffffffffffffffffffffffffff161461140f576040517f08c379a000000000000000000000000000000000000000000000000000000000815260206004820181905260248201527f4f776e61626c653a2063616c6c6572206973206e6f7420746865206f776e65726044820152606401610a29565b803b611477576040517f08c379a000000000000000000000000000000000000000000000000000000000815260206004820152601560248201527f496e76616c6964206e6577207265666572656e636500000000000000000000006044820152606401610a29565b60cd805473ffffffffffffffffffffffffffffffffffffffff9092166a0100000000000000000000027fffff0000000000000000000000000000000000000000ffffffffffffffffffff909216919091179055565b6114d533613569565b565b610be383838360405180602001604052806000815250612414565b6114fb33611272565b611561576040517f08c379a000000000000000000000000000000000000000000000000000000000815260206004820152600c60248201527f4e6f7420617070726f76656400000000000000000000000000000000000000006044820152606401610a29565b61156a81613723565b50565b600061157860c95490565b60cd5467ffffffffffffffff16156115a75760cd546115a29067ffffffffffffffff166001614cac565b6115b1565b67ffffffffffffffff5b67ffffffffffffffff16610d439190614b93565b60008181526067602052604081205473ffffffffffffffffffffffffffffffffffffffff16806108e4576040517f08c379a000000000000000000000000000000000000000000000000000000000815260206004820152602960248201527f4552433732313a206f776e657220717565727920666f72206e6f6e657869737460448201527f656e7420746f6b656e00000000000000000000000000000000000000000000006064820152608401610a29565b60008060cf54116116e4576040517f08c379a000000000000000000000000000000000000000000000000000000000815260206004820152600c60248201527f4e6f7420666f722073616c6500000000000000000000000000000000000000006044820152606401610a29565b60cf54341461174f576040517f08c379a000000000000000000000000000000000000000000000000000000000815260206004820152600b60248201527f57726f6e672070726963650000000000000000000000000000000000000000006044820152606401610a29565b60408051600180825281830190925260009160208083019080368337019050509050338160008151811061178557611785614b35565b73ffffffffffffffffffffffffffffffffffffffff90921660209283029190910182015260cf546040805191825233928201929092527f60a6c75698fadb72223808131f9f9bb9db3afa32122db6d94fb8fc985a504baa910160405180910390a1610d2681612d27565b600060cd600a9054906101000a900473ffffffffffffffffffffffffffffffffffffffff1673ffffffffffffffffffffffffffffffffffffffff166390e3b35c6040518163ffffffff1660e01b815260040160206040518083038186803b15801561185957600080fd5b505afa15801561186d573d6000803e3d6000fd5b505050506040513d601f19601f820116820180604052508101906118919190614ccf565b67ffffffffffffffff166118a361156d565b67ffffffffffffffff161015611915576040517f08c379a000000000000000000000000000000000000000000000000000000000815260206004820152600860248201527f536f6c64206f75740000000000000000000000000000000000000000000000006044820152606401610a29565b600060cd600a9054906101000a900473ffffffffffffffffffffffffffffffffffffffff1673ffffffffffffffffffffffffffffffffffffffff16631f7b6d326040518163ffffffff1660e01b815260040160206040518083038186803b15801561197f57600080fd5b505afa158015611993573d6000803e3d6000fd5b505050506040513d601f19601f820116820180604052508101906119b79190614cec565b8310611a625760cd600a9054906101000a900473ffffffffffffffffffffffffffffffffffffffff1673ffffffffffffffffffffffffffffffffffffffff16631f7b6d326040518163ffffffff1660e01b815260040160206040518083038186803b158015611a2557600080fd5b505afa158015611a39573d6000803e3d6000fd5b505050506040513d601f19601f82011682018060405250810190611a5d9190614cec565b611a64565b825b9050835b81811015611ca65760cd546040517f8623ec7b000000000000000000000000000000000000000000000000000000008152600481018390526000916a0100000000000000000000900473ffffffffffffffffffffffffffffffffffffffff1690638623ec7b9060240160206040518083038186803b158015611ae957600080fd5b505afa158015611afd573d6000803e3d6000fd5b505050506040513d601f19601f82011682018060405250810190611b219190614d05565b73ffffffffffffffffffffffffffffffffffffffff818116600081815260ce60205260408082205460cd5491517f2b603c710000000000000000000000000000000000000000000000000000000081526004810194909452949550909361ffff16926a01000000000000000000009091041690632b603c719060240160206040518083038186803b158015611bb557600080fd5b505afa158015611bc9573d6000803e3d6000fd5b505050506040513d601f19601f82011682018060405250810190611bed9190614d22565b611bf79190614c09565b73ffffffffffffffffffffffffffffffffffffffff8316600090815260ce6020526040812080549293508392909190611c3590849061ffff16614baa565b92506101000a81548161ffff021916908361ffff16021790555060005b8161ffff16811015611c9057611c7083611c6b60c95490565b6137f0565b611c7e60c980546001019055565b80611c8881614bd0565b915050611c52565b5050508080611c9e90614bd0565b915050611a68565b5060c9545b949350505050565b600073ffffffffffffffffffffffffffffffffffffffff8216611d58576040517f08c379a000000000000000000000000000000000000000000000000000000000815260206004820152602a60248201527f4552433732313a2062616c616e636520717565727920666f7220746865207a6560448201527f726f2061646472657373000000000000000000000000000000000000000000006064820152608401610a29565b5073ffffffffffffffffffffffffffffffffffffffff1660009081526068602052604090205490565b33611d8a612222565b73ffffffffffffffffffffffffffffffffffffffff1614611e07576040517f08c379a000000000000000000000000000000000000000000000000000000000815260206004820181905260248201527f4f776e61626c653a2063616c6c6572206973206e6f7420746865206f776e65726044820152606401610a29565b47158015611e15575060cf54155b611e7b576040517f08c379a000000000000000000000000000000000000000000000000000000000815260206004820152601760248201527f506f74656e7469616c206c6f7373206f662066756e64730000000000000000006044820152606401610a29565b6114d560006139b2565b60606000606060ca60cb5460cc828054611e9e90614ae1565b80601f0160208091040260200160405190810160405280929190818152602001828054611eca90614ae1565b8015611f175780601f10611eec57610100808354040283529160200191611f17565b820191906000526020600020905b815481529060010190602001808311611efa57829003601f168201915b50505050509250808054611f2a90614ae1565b80601f0160208091040260200160405190810160405280929190818152602001828054611f5690614ae1565b8015611fa35780601f10611f7857610100808354040283529160200191611fa3565b820191906000526020600020905b815481529060010190602001808311611f8657829003601f168201915b50505050509050925092509250909192565b60005b60d05481101561156a57611fff60d08281548110611fd857611fd8614b35565b60009182526020909120015473ffffffffffffffffffffffffffffffffffffffff16613569565b8061200981614bd0565b915050611fb8565b60ca805461201e90614ae1565b80601f016020809104026020016040519081016040528092919081815260200182805461204a90614ae1565b80156120975780601f1061206c57610100808354040283529160200191612097565b820191906000526020600020905b81548152906001019060200180831161207a57829003601f168201915b505050505081565b336120a8612222565b73ffffffffffffffffffffffffffffffffffffffff1614612125576040517f08c379a000000000000000000000000000000000000000000000000000000000815260206004820181905260248201527f4f776e61626c653a2063616c6c6572206973206e6f7420746865206f776e65726044820152606401610a29565b6000825111612190576040517f08c379a000000000000000000000000000000000000000000000000000000000815260206004820152601160248201527f456d70747920636f6e74656e742055524c0000000000000000000000000000006044820152606401610a29565b81516121a39060ca90602085019061427a565b50600081511161220f576040517f08c379a000000000000000000000000000000000000000000000000000000000815260206004820152601260248201527f456d707479206d657461646174612055524c00000000000000000000000000006044820152606401610a29565b8051610be39060cc90602084019061427a565b6000610d4360975473ffffffffffffffffffffffffffffffffffffffff1690565b3361224c612222565b73ffffffffffffffffffffffffffffffffffffffff16146122c9576040517f08c379a000000000000000000000000000000000000000000000000000000000815260206004820181905260248201527f4f776e61626c653a2063616c6c6572206973206e6f7420746865206f776e65726044820152606401610a29565b60cf8190556040518181527fa6dc15bdb68da224c66db4b3838d9a2b205138e8cff6774e57d0af91e196d6229060200160405180910390a150565b6060606680546108f990614ae1565b3361231c612222565b73ffffffffffffffffffffffffffffffffffffffff1614612399576040517f08c379a000000000000000000000000000000000000000000000000000000000815260206004820181905260248201527f4f776e61626c653a2063616c6c6572206973206e6f7420746865206f776e65726044820152606401610a29565b806123a55760006123a8565b60015b6000805260ce6020527fd3f5862f6f80175da7514904f3a889cc3cc8c4f3af5129e28cdeaee2baa6efc480547fffffffffffffffffffffffffffffffffffffffffffffffffffffffffffff00001660ff9290921691909117905550565b612410338383613a29565b5050565b61241e3383613196565b6124aa576040517f08c379a000000000000000000000000000000000000000000000000000000000815260206004820152603160248201527f4552433732313a207472616e736665722063616c6c6572206973206e6f74206f60448201527f776e6572206e6f7220617070726f7665640000000000000000000000000000006064820152608401610a29565b6124b684848484613b57565b50505050565b600073ffffffffffffffffffffffffffffffffffffffff821661250d5750506000805260ce6020527fd3f5862f6f80175da7514904f3a889cc3cc8c4f3af5129e28cdeaee2baa6efc45461ffff1690565b73ffffffffffffffffffffffffffffffffffffffff828116600081815260ce6020526040908190205460cd5491517f2b603c71000000000000000000000000000000000000000000000000000000008152600481019390935261ffff16926a01000000000000000000009091041690632b603c719060240160206040518083038186803b15801561259d57600080fd5b505afa1580156125b1573d6000803e3d6000fd5b505050506040513d601f19601f820116820180604052508101906125d59190614d22565b6108e49190614c09565b60008181526067602052604090205460609073ffffffffffffffffffffffffffffffffffffffff1661266d576040517f08c379a000000000000000000000000000000000000000000000000000000000815260206004820152601560248201527f45646974696f6e20646f65736e277420657869737400000000000000000000006044820152606401610a29565b60cc61267883613bfa565b604051602001612689929190614d5b565b6040516020818303038152906040529050919050565b60cc805461201e90614ae1565b60008060d254476126bd9190614e65565b73ffffffffffffffffffffffffffffffffffffffff8416600090815260d3602090815260408083205460d19092529091205491925090612710906127059061ffff1684614c2c565b61270f9190614c98565b6127199190614b93565b9392505050565b600061272c8251612baa565b612792576040517f08c379a000000000000000000000000000000000000000000000000000000000815260206004820181905260248201527f4d696e74696e67206e6f7420616c6c6f776564206f7220657863656564696e676044820152606401610a29565b3361279b612222565b73ffffffffffffffffffffffffffffffffffffffff16141580156127eb57506000805260ce6020527fd3f5862f6f80175da7514904f3a889cc3cc8c4f3af5129e28cdeaee2baa6efc45461ffff16155b156127fa576127fa8251612ce7565b6108e482612d27565b3361280c612222565b73ffffffffffffffffffffffffffffffffffffffff1614612889576040517f08c379a000000000000000000000000000000000000000000000000000000000815260206004820181905260248201527f4f776e61626c653a2063616c6c6572206973206e6f7420746865206f776e65726044820152606401610a29565b73ffffffffffffffffffffffffffffffffffffffff8116612906576040517f08c379a000000000000000000000000000000000000000000000000000000000815260206004820152601d60248201527f4e6577206f776e657220697320746865207a65726f20616464726573730000006044820152606401610a29565b60d16000612912612222565b73ffffffffffffffffffffffffffffffffffffffff90811682526020808301939093526040918201600090812054918516815260d190935291205461295e9161ffff9081169116614baa565b73ffffffffffffffffffffffffffffffffffffffff8216600090815260d160208190526040822080547fffffffffffffffffffffffffffffffffffffffffffffffffffffffffffff00001661ffff949094169390931790925590816129c1612222565b73ffffffffffffffffffffffffffffffffffffffff168152602081019190915260400160002080547fffffffffffffffffffffffffffffffffffffffffffffffffffffffffffff00001661ffff9290921691909117905561156a816139b2565b3b151590565b60007fffffffff0000000000000000000000000000000000000000000000000000000082167f80ac58cd000000000000000000000000000000000000000000000000000000001480612aba57507fffffffff0000000000000000000000000000000000000000000000000000000082167f5b5e139f00000000000000000000000000000000000000000000000000000000145b806108e457507f01ffc9a7000000000000000000000000000000000000000000000000000000007fffffffff000000000000000000000000000000000000000000000000000000008316146108e4565b600081815260696020526040902080547fffffffffffffffffffffffff00000000000000000000000000000000000000001673ffffffffffffffffffffffffffffffffffffffff84169081179091558190612b64826115c5565b73ffffffffffffffffffffffffffffffffffffffff167f8c5be1e5ebec7d5bd14f71427d1e84f3dd0314c0f7b2291e5b200ac8c7c3b92560405160405180910390a45050565b600033612bb5612222565b73ffffffffffffffffffffffffffffffffffffffff161480612c0457506000805260ce6020527fd3f5862f6f80175da7514904f3a889cc3cc8c4f3af5129e28cdeaee2baa6efc45461ffff1615155b806108e4575060cd546040517f2b603c710000000000000000000000000000000000000000000000000000000081523360048201526a010000000000000000000090910473ffffffffffffffffffffffffffffffffffffffff1690632b603c719060240160206040518083038186803b158015612c8057600080fd5b505afa158015612c94573d6000803e3d6000fd5b505050506040513d601f19601f82011682018060405250810190612cb89190614d22565b33600090815260ce602052604090205461ffff91821691612cdb91859116614baa565b61ffff16111592915050565b33600090815260ce602052604081208054839290612d0a90849061ffff16614baa565b92506101000a81548161ffff021916908361ffff16021790555050565b60008151612d3361156d565b67ffffffffffffffff161015612da5576040517f08c379a000000000000000000000000000000000000000000000000000000000815260206004820152600860248201527f536f6c64206f75740000000000000000000000000000000000000000000000006044820152606401610a29565b60005b8251811015612df757612dd7838281518110612dc657612dc6614b35565b6020026020010151611c6b60c95490565b612de560c980546001019055565b80612def81614bd0565b915050612da8565b5060c9546108e4565b600054610100900460ff16612e97576040517f08c379a000000000000000000000000000000000000000000000000000000000815260206004820152602b60248201527f496e697469616c697a61626c653a20636f6e7472616374206973206e6f74206960448201527f6e697469616c697a696e670000000000000000000000000000000000000000006064820152608401610a29565b612e9f613d2c565b612ea7613d2c565b6124108282613dc3565b600054610100900460ff16612f48576040517f08c379a000000000000000000000000000000000000000000000000000000000815260206004820152602b60248201527f496e697469616c697a61626c653a20636f6e7472616374206973206e6f74206960448201527f6e697469616c697a696e670000000000000000000000000000000000000000006064820152608401610a29565b612f50613d2c565b6114d5613e81565b73ffffffffffffffffffffffffffffffffffffffff8216612fd5576040517f08c379a000000000000000000000000000000000000000000000000000000000815260206004820152601b60248201527f5368617265686f6c646572206973207a65726f206164647265737300000000006044820152606401610a29565b60008161ffff16118015612fef57506127108161ffff1611155b613055576040517f08c379a000000000000000000000000000000000000000000000000000000000815260206004820152601260248201527f5368617265732061726520696e76616c696400000000000000000000000000006044820152606401610a29565b73ffffffffffffffffffffffffffffffffffffffff8216600090815260d1602052604090205461ffff16156130e6576040517f08c379a000000000000000000000000000000000000000000000000000000000815260206004820152601e60248201527f5368617265686f6c64657220616c7265616479206861732073686172657300006044820152606401610a29565b60d08054600181019091557fe89d44c8fd6a9bac8af33ce47f56337617d449bf7ff3956b618c646de829cbcb0180547fffffffffffffffffffffffff00000000000000000000000000000000000000001673ffffffffffffffffffffffffffffffffffffffff939093169283179055600091825260d1602052604090912080547fffffffffffffffffffffffffffffffffffffffffffffffffffffffffffff00001661ffff909216919091179055565b60008181526067602052604081205473ffffffffffffffffffffffffffffffffffffffff16613247576040517f08c379a000000000000000000000000000000000000000000000000000000000815260206004820152602c60248201527f4552433732313a206f70657261746f7220717565727920666f72206e6f6e657860448201527f697374656e7420746f6b656e00000000000000000000000000000000000000006064820152608401610a29565b6000613252836115c5565b90508073ffffffffffffffffffffffffffffffffffffffff168473ffffffffffffffffffffffffffffffffffffffff1614806132c157508373ffffffffffffffffffffffffffffffffffffffff166132a98461097c565b73ffffffffffffffffffffffffffffffffffffffff16145b80611cab575073ffffffffffffffffffffffffffffffffffffffff8082166000908152606a602090815260408083209388168352929052205460ff16611cab565b8273ffffffffffffffffffffffffffffffffffffffff16613322826115c5565b73ffffffffffffffffffffffffffffffffffffffff16146133c5576040517f08c379a000000000000000000000000000000000000000000000000000000000815260206004820152602960248201527f4552433732313a207472616e73666572206f6620746f6b656e2074686174206960448201527f73206e6f74206f776e00000000000000000000000000000000000000000000006064820152608401610a29565b73ffffffffffffffffffffffffffffffffffffffff8216613467576040517f08c379a0000000000000000000000000000000000000000000000000000000008152602060048201526024808201527f4552433732313a207472616e7366657220746f20746865207a65726f2061646460448201527f72657373000000000000000000000000000000000000000000000000000000006064820152608401610a29565b613472600082612b0a565b73ffffffffffffffffffffffffffffffffffffffff831660009081526068602052604081208054600192906134a8908490614b93565b909155505073ffffffffffffffffffffffffffffffffffffffff821660009081526068602052604081208054600192906134e3908490614e65565b909155505060008181526067602052604080822080547fffffffffffffffffffffffff00000000000000000000000000000000000000001673ffffffffffffffffffffffffffffffffffffffff86811691821790925591518493918716917fddf252ad1be2c89b69c2b068fc378daa952ba7f163c4a11628f55a4df523b3ef91a4505050565b6040517fce513b6f00000000000000000000000000000000000000000000000000000000815273ffffffffffffffffffffffffffffffffffffffff82166004820152600090309063ce513b6f9060240160206040518083038186803b1580156135d157600080fd5b505afa1580156135e5573d6000803e3d6000fd5b505050506040513d601f19601f820116820180604052508101906136099190614cec565b905080613672576040517f08c379a000000000000000000000000000000000000000000000000000000000815260206004820152601a60248201527f4163636f756e74206973206e6f7420647565207061796d656e740000000000006044820152606401610a29565b73ffffffffffffffffffffffffffffffffffffffff8216600090815260d36020526040812080548392906136a7908490614e65565b925050819055508060d260008282546136c09190614e65565b909155506136d090508282613f21565b6040805173ffffffffffffffffffffffffffffffffffffffff84168152602081018390527fc271d5cc8e899d2f13fb92ceb234c8beb4f1b82ebee351bd4fd728a79773e12b910160405180910390a15050565b600061372e826115c5565b905061373b600083612b0a565b73ffffffffffffffffffffffffffffffffffffffff81166000908152606860205260408120805460019290613771908490614b93565b909155505060008281526067602052604080822080547fffffffffffffffffffffffff00000000000000000000000000000000000000001690555183919073ffffffffffffffffffffffffffffffffffffffff8416907fddf252ad1be2c89b69c2b068fc378daa952ba7f163c4a11628f55a4df523b3ef908390a45050565b73ffffffffffffffffffffffffffffffffffffffff821661386d576040517f08c379a000000000000000000000000000000000000000000000000000000000815260206004820181905260248201527f4552433732313a206d696e7420746f20746865207a65726f20616464726573736044820152606401610a29565b60008181526067602052604090205473ffffffffffffffffffffffffffffffffffffffff16156138f9576040517f08c379a000000000000000000000000000000000000000000000000000000000815260206004820152601c60248201527f4552433732313a20746f6b656e20616c7265616479206d696e746564000000006044820152606401610a29565b73ffffffffffffffffffffffffffffffffffffffff8216600090815260686020526040812080546001929061392f908490614e65565b909155505060008181526067602052604080822080547fffffffffffffffffffffffff00000000000000000000000000000000000000001673ffffffffffffffffffffffffffffffffffffffff861690811790915590518392907fddf252ad1be2c89b69c2b068fc378daa952ba7f163c4a11628f55a4df523b3ef908290a45050565b6097805473ffffffffffffffffffffffffffffffffffffffff8381167fffffffffffffffffffffffff0000000000000000000000000000000000000000831681179093556040519116919082907f8be0079c531659141344cd1fd0a4f28419497f9722a3daafe3b4186f6b6457e090600090a35050565b8173ffffffffffffffffffffffffffffffffffffffff168373ffffffffffffffffffffffffffffffffffffffff161415613abf576040517f08c379a000000000000000000000000000000000000000000000000000000000815260206004820152601960248201527f4552433732313a20617070726f766520746f2063616c6c6572000000000000006044820152606401610a29565b73ffffffffffffffffffffffffffffffffffffffff8381166000818152606a602090815260408083209487168084529482529182902080547fffffffffffffffffffffffffffffffffffffffffffffffffffffffffffffff001686151590811790915591519182527f17307eab39ab6107e8899845ad3d59bd9653f200f220920489ca2b5937696c31910160405180910390a3505050565b613b62848484613302565b613b6e8484848461407b565b6124b6576040517f08c379a000000000000000000000000000000000000000000000000000000000815260206004820152603260248201527f4552433732313a207472616e7366657220746f206e6f6e20455243373231526560448201527f63656976657220696d706c656d656e74657200000000000000000000000000006064820152608401610a29565b606081613c3a57505060408051808201909152600181527f3000000000000000000000000000000000000000000000000000000000000000602082015290565b8160005b8115613c645780613c4e81614bd0565b9150613c5d9050600a83614c98565b9150613c3e565b60008167ffffffffffffffff811115613c7f57613c7f61445e565b6040519080825280601f01601f191660200182016040528015613ca9576020820181803683370190505b5090505b8415611cab57613cbe600183614b93565b9150613ccb600a86614e7d565b613cd6906030614e65565b60f81b818381518110613ceb57613ceb614b35565b60200101907effffffffffffffffffffffffffffffffffffffffffffffffffffffffffffff1916908160001a905350613d25600a86614c98565b9450613cad565b600054610100900460ff166114d5576040517f08c379a000000000000000000000000000000000000000000000000000000000815260206004820152602b60248201527f496e697469616c697a61626c653a20636f6e7472616374206973206e6f74206960448201527f6e697469616c697a696e670000000000000000000000000000000000000000006064820152608401610a29565b600054610100900460ff16613e5a576040517f08c379a000000000000000000000000000000000000000000000000000000000815260206004820152602b60248201527f496e697469616c697a61626c653a20636f6e7472616374206973206e6f74206960448201527f6e697469616c697a696e670000000000000000000000000000000000000000006064820152608401610a29565b8151613e6d90606590602085019061427a565b508051610be390606690602084019061427a565b600054610100900460ff16613f18576040517f08c379a000000000000000000000000000000000000000000000000000000000815260206004820152602b60248201527f496e697469616c697a61626c653a20636f6e7472616374206973206e6f74206960448201527f6e697469616c697a696e670000000000000000000000000000000000000000006064820152608401610a29565b6114d5336139b2565b80471015613f8b576040517f08c379a000000000000000000000000000000000000000000000000000000000815260206004820152601d60248201527f416464726573733a20696e73756666696369656e742062616c616e63650000006044820152606401610a29565b60008273ffffffffffffffffffffffffffffffffffffffff168260405160006040518083038185875af1925050503d8060008114613fe5576040519150601f19603f3d011682016040523d82523d6000602084013e613fea565b606091505b5050905080610be3576040517f08c379a000000000000000000000000000000000000000000000000000000000815260206004820152603a60248201527f416464726573733a20756e61626c6520746f2073656e642076616c75652c207260448201527f6563697069656e74206d617920686176652072657665727465640000000000006064820152608401610a29565b600073ffffffffffffffffffffffffffffffffffffffff84163b1561426f576040517f150b7a0200000000000000000000000000000000000000000000000000000000815273ffffffffffffffffffffffffffffffffffffffff85169063150b7a02906140f2903390899088908890600401614e91565b602060405180830381600087803b15801561410c57600080fd5b505af192505050801561415a575060408051601f3d9081017fffffffffffffffffffffffffffffffffffffffffffffffffffffffffffffffe016820190925261415791810190614ed0565b60015b614224573d808015614188576040519150601f19603f3d011682016040523d82523d6000602084013e61418d565b606091505b50805161421c576040517f08c379a000000000000000000000000000000000000000000000000000000000815260206004820152603260248201527f4552433732313a207472616e7366657220746f206e6f6e20455243373231526560448201527f63656976657220696d706c656d656e74657200000000000000000000000000006064820152608401610a29565b805181602001fd5b7fffffffff00000000000000000000000000000000000000000000000000000000167f150b7a0200000000000000000000000000000000000000000000000000000000149050611cab565b506001949350505050565b82805461428690614ae1565b90600052602060002090601f0160209004810192826142a857600085556142ee565b82601f106142c157805160ff19168380011785556142ee565b828001600101855582156142ee579182015b828111156142ee5782518255916020019190600101906142d3565b506142fa9291506142fe565b5090565b5b808211156142fa57600081556001016142ff565b7fffffffff000000000000000000000000000000000000000000000000000000008116811461156a57600080fd5b60006020828403121561435357600080fd5b813561271981614313565b60005b83811015614379578181015183820152602001614361565b838111156124b65750506000910152565b600081518084526143a281602086016020860161435e565b601f017fffffffffffffffffffffffffffffffffffffffffffffffffffffffffffffffe0169290920160200192915050565b602081526000612719602083018461438a565b6000602082840312156143f957600080fd5b5035919050565b73ffffffffffffffffffffffffffffffffffffffff8116811461156a57600080fd5b803561442d81614400565b919050565b6000806040838503121561444557600080fd5b823561445081614400565b946020939093013593505050565b7f4e487b7100000000000000000000000000000000000000000000000000000000600052604160045260246000fd5b6040805190810167ffffffffffffffff811182821017156144b0576144b061445e565b60405290565b60405160a0810167ffffffffffffffff811182821017156144b0576144b061445e565b604051601f82017fffffffffffffffffffffffffffffffffffffffffffffffffffffffffffffffe016810167ffffffffffffffff811182821017156145205761452061445e565b604052919050565b600067ffffffffffffffff8311156145425761454261445e565b61457360207fffffffffffffffffffffffffffffffffffffffffffffffffffffffffffffffe0601f860116016144d9565b905082815283838301111561458757600080fd5b828260208301376000602084830101529392505050565b600082601f8301126145af57600080fd5b61271983833560208501614528565b67ffffffffffffffff8116811461156a57600080fd5b803561442d816145be565b61ffff8116811461156a57600080fd5b803561442d816145df565b600067ffffffffffffffff8211156146145761461461445e565b5060051b60200190565b600082601f83011261462f57600080fd5b8135602061464461463f836145fa565b6144d9565b82815260069290921b8401810191818101908684111561466357600080fd5b8286015b848110156146b457604081890312156146805760008081fd5b61468861448d565b813561469381614400565b8152818501356146a2816145df565b81860152835291830191604001614667565b509695505050505050565b600080600080600080600060e0888a0312156146da57600080fd5b87356146e581614400565b9650602088013567ffffffffffffffff8082111561470257600080fd5b9089019060a0828c03121561471657600080fd5b61471e6144b6565b82358281111561472d57600080fd5b6147398d82860161459e565b82525060208301358281111561474e57600080fd5b61475a8d82860161459e565b60208301525060408301358281111561477257600080fd5b61477e8d82860161459e565b604083015250606083013560608201526080830135828111156147a057600080fd5b6147ac8d82860161459e565b60808301525097506147c060408b016145d4565b965060608a013595506147d560808b016145ef565b945060a08a01359150808211156147eb57600080fd5b506147f88a828b0161461e565b92505061480760c08901614422565b905092959891949750929550565b60008060006060848603121561482a57600080fd5b833561483581614400565b9250602084013561484581614400565b929592945050506040919091013590565b6000806040838503121561486957600080fd5b50508035926020909101359150565b60006020828403121561488a57600080fd5b813561271981614400565b6060815260006148a8606083018661438a565b84602084015282810360408401526148c0818561438a565b9695505050505050565b600080604083850312156148dd57600080fd5b823567ffffffffffffffff808211156148f557600080fd5b6149018683870161459e565b9350602085013591508082111561491757600080fd5b506149248582860161459e565b9150509250929050565b8035801515811461442d57600080fd5b60006020828403121561495057600080fd5b6127198261492e565b6000806040838503121561496c57600080fd5b823561497781614400565b91506149856020840161492e565b90509250929050565b600080600080608085870312156149a457600080fd5b84356149af81614400565b935060208501356149bf81614400565b925060408501359150606085013567ffffffffffffffff8111156149e257600080fd5b8501601f810187136149f357600080fd5b614a0287823560208401614528565b91505092959194509250565b60006020808385031215614a2157600080fd5b823567ffffffffffffffff811115614a3857600080fd5b8301601f81018513614a4957600080fd5b8035614a5761463f826145fa565b81815260059190911b82018301908381019087831115614a7657600080fd5b928401925b82841015614a9d578335614a8e81614400565b82529284019290840190614a7b565b979650505050505050565b60008060408385031215614abb57600080fd5b8235614ac681614400565b91506020830135614ad681614400565b809150509250929050565b600181811c90821680614af557607f821691505b60208210811415614b2f577f4e487b7100000000000000000000000000000000000000000000000000000000600052602260045260246000fd5b50919050565b7f4e487b7100000000000000000000000000000000000000000000000000000000600052603260045260246000fd5b7f4e487b7100000000000000000000000000000000000000000000000000000000600052601160045260246000fd5b600082821015614ba557614ba5614b64565b500390565b600061ffff808316818516808303821115614bc757614bc7614b64565b01949350505050565b60007fffffffffffffffffffffffffffffffffffffffffffffffffffffffffffffffff821415614c0257614c02614b64565b5060010190565b600061ffff83811690831681811015614c2457614c24614b64565b039392505050565b6000817fffffffffffffffffffffffffffffffffffffffffffffffffffffffffffffffff0483118215151615614c6457614c64614b64565b500290565b7f4e487b7100000000000000000000000000000000000000000000000000000000600052601260045260246000fd5b600082614ca757614ca7614c69565b500490565b600067ffffffffffffffff808316818516808303821115614bc757614bc7614b64565b600060208284031215614ce157600080fd5b8151612719816145be565b600060208284031215614cfe57600080fd5b5051919050565b600060208284031215614d1757600080fd5b815161271981614400565b600060208284031215614d3457600080fd5b8151612719816145df565b60008151614d5181856020860161435e565b9290920192915050565b600080845481600182811c915080831680614d7757607f831692505b6020808410821415614db0577f4e487b710000000000000000000000000000000000000000000000000000000086526022600452602486fd5b818015614dc45760018114614df357614e20565b7fffffffffffffffffffffffffffffffffffffffffffffffffffffffffffffff00861689528489019650614e20565b60008b81526020902060005b86811015614e185781548b820152908501908301614dff565b505084890196505b505050505050614e5c614e56827f3f746f6b656e49643d0000000000000000000000000000000000000000000000815260090190565b85614d3f565b95945050505050565b60008219821115614e7857614e78614b64565b500190565b600082614e8c57614e8c614c69565b500690565b600073ffffffffffffffffffffffffffffffffffffffff8087168352808616602084015250836040830152608060608301526148c0608083018461438a565b600060208284031215614ee257600080fd5b81516127198161431356fea26469706673582212207e17076736ea6b2593bf76f9b6bb01a166214192ac2833db58429cbd2c0f066264736f6c63430008090033",
  "devdoc": {
    "kind": "dev",
    "methods": {
      "approve(address,uint256)": {
        "details": "See {IERC721-approve}."
      },
      "balanceOf(address)": {
        "details": "See {IERC721-balanceOf}."
      },
      "burn(uint256)": {
        "params": {
          "tokenId": "token edition identifier to burn"
        }
      },
      "constructor": {
        "custom:oz-upgrades-unsafe-allow": "constructor"
      },
      "getApproved(uint256)": {
        "details": "See {IERC721-getApproved}."
      },
      "getURI()": {
        "returns": {
          "_0": "metadataUrl, contentHash"
        }
      },
      "initialize(address,(string,string,string,bytes32,string),uint64,uint256,uint16,(address,uint16)[],address)": {
        "params": {
          "_allowancesRef": "contract address storing array of tuples listing the allowed minters and their allowances",
          "_info": "token properties",
          "_owner": "can authorize, mint, gets royalties and a dividend of sales, can update the content URL.",
          "_price": "sale price in wei",
          "_royalties": "perpetual royalties paid to the creator upon token selling",
          "_shares": "array of tuples listing the shareholders and their respective shares in bps (one per each shareholder)",
          "_size": "number of NFTs that can be minted from this contract: set to 0 for unbound"
        }
      },
      "isApprovedForAll(address,address)": {
        "details": "See {IERC721-isApprovedForAll}."
      },
      "mintAndTransfer(address[])": {
        "params": {
          "recipients": "list of addresses to send the newly minted tokens to"
        }
      },
      "name()": {
        "details": "See {IERC721Metadata-name}."
      },
      "ownerOf(uint256)": {
        "details": "See {IERC721-ownerOf}."
      },
      "renounceOwnership()": {
        "details": "Leaves the contract without owner. It will not be possible to call `onlyOwner` functions anymore. Can only be called by the current owner. NOTE: Renouncing ownership will leave the contract without an owner, thereby removing any functionality that is only available to the owner."
      },
      "royaltyInfo(uint256,uint256)": {
        "params": {
          "_value": "the sale price for this token"
        }
      },
      "safeTransferFrom(address,address,uint256)": {
        "details": "See {IERC721-safeTransferFrom}."
      },
      "safeTransferFrom(address,address,uint256,bytes)": {
        "details": "See {IERC721-safeTransferFrom}."
      },
      "setApprovalForAll(address,bool)": {
        "details": "See {IERC721-setApprovalForAll}."
      },
      "setPrice(uint256)": {
        "params": {
          "_wei": "if sale price is 0, no sale is allowed, otherwise the provided amount of WEI is needed to start the sale."
        }
      },
      "symbol()": {
        "details": "See {IERC721Metadata-symbol}."
      },
      "tokenURI(uint256)": {
        "params": {
          "tokenId": "token id to get uri for"
        },
        "returns": {
          "_0": "base64-encoded json metadata object"
        }
      },
      "transferFrom(address,address,uint256)": {
        "details": "See {IERC721-transferFrom}."
      },
      "transferOwnership(address)": {
        "details": "Transfers ownership of the contract to a new account (`newOwner`). Can only be called by the current owner."
      }
    },
    "version": 1
  },
  "userdoc": {
    "kind": "user",
    "methods": {
      "burn(uint256)": {
        "notice": "User burn function for token id. "
      },
      "getURI()": {
        "notice": "Get URI and hash for edition NFT"
      },
      "initialize(address,(string,string,string,bytes32,string),uint64,uint256,uint16,(address,uint16)[],address)": {
        "notice": "Creates a new edition and sets the only allowed minter to the address that creates/owns the edition: this can be re-assigned or updated later. "
      },
      "mint()": {
        "notice": "If caller is listed as an allowed minter, mints one NFT for him."
      },
      "mintAndTransfer(address[])": {
        "notice": "Mints multiple tokens, one for each of the given list of addresses. Only the edition owner can use this operation and it is intended fo partial giveaways. "
      },
      "mintable()": {
        "notice": "Returns the number of tokens still available for minting (uint64 when open edition)"
      },
      "owner()": {
        "notice": "Returns the owner of the collection of rewards."
      },
      "purchase()": {
        "notice": "Basic ETH-based sales operation, performed at the given set price. This operation is open to everyone as soon as the salePrice is set to a non-zero value."
      },
      "royaltyInfo(uint256,uint256)": {
        "notice": "ERC2981 - Gets royalty information for token"
      },
      "setPrice(uint256)": {
        "notice": "This operation sets the sale price, thus allowing anyone to acquire a token from this edition at the sale price via the purchase operation. Setting the sale price to 0 prevents purchase of the tokens which is then allowed only to permitted addresses. "
      },
      "shake()": {
        "notice": "Transfers all ETHs from the contract balance to the owner and shareholders."
      },
      "tokenURI(uint256)": {
        "notice": "Get URI for given token id "
      },
      "totalSupply()": {
        "notice": "Returns the number of tokens minted so far "
      },
      "updateAllowancesRef(address)": {
        "notice": "Allows owner to update the allowances reference contract use for this rewards."
      },
      "updateEditionsURLs2(string,string)": {
        "notice": "Allows for updates of content and metadata urls by the owner. Only URLs can be updated (data-uri are supported), hash cannot be updated."
      },
      "withdraw()": {
        "notice": "Transfers `withdrawable(msg.sender)` to the caller."
      },
      "withdrawable(address)": {
        "notice": "Returns how much the account can withdraw from this contract."
      }
    },
    "notice": "This contract allows dynamic NFT minting.  Operations allow for selling publicly, partial or total giveaways, direct giveaways and rewardings.",
    "version": 1
  },
  "storageLayout": {
    "storage": [
      {
        "astId": 972,
        "contract": "contracts/MintableRewards.sol:MintableRewards",
        "label": "_initialized",
        "offset": 0,
        "slot": "0",
        "type": "t_bool"
      },
      {
        "astId": 975,
        "contract": "contracts/MintableRewards.sol:MintableRewards",
        "label": "_initializing",
        "offset": 1,
        "slot": "0",
        "type": "t_bool"
      },
      {
        "astId": 2460,
        "contract": "contracts/MintableRewards.sol:MintableRewards",
        "label": "__gap",
        "offset": 0,
        "slot": "1",
        "type": "t_array(t_uint256)50_storage"
      },
      {
        "astId": 2843,
        "contract": "contracts/MintableRewards.sol:MintableRewards",
        "label": "__gap",
        "offset": 0,
        "slot": "51",
        "type": "t_array(t_uint256)50_storage"
      },
      {
        "astId": 1179,
        "contract": "contracts/MintableRewards.sol:MintableRewards",
        "label": "_name",
        "offset": 0,
        "slot": "101",
        "type": "t_string_storage"
      },
      {
        "astId": 1181,
        "contract": "contracts/MintableRewards.sol:MintableRewards",
        "label": "_symbol",
        "offset": 0,
        "slot": "102",
        "type": "t_string_storage"
      },
      {
        "astId": 1185,
        "contract": "contracts/MintableRewards.sol:MintableRewards",
        "label": "_owners",
        "offset": 0,
        "slot": "103",
        "type": "t_mapping(t_uint256,t_address)"
      },
      {
        "astId": 1189,
        "contract": "contracts/MintableRewards.sol:MintableRewards",
        "label": "_balances",
        "offset": 0,
        "slot": "104",
        "type": "t_mapping(t_address,t_uint256)"
      },
      {
        "astId": 1193,
        "contract": "contracts/MintableRewards.sol:MintableRewards",
        "label": "_tokenApprovals",
        "offset": 0,
        "slot": "105",
        "type": "t_mapping(t_uint256,t_address)"
      },
      {
        "astId": 1199,
        "contract": "contracts/MintableRewards.sol:MintableRewards",
        "label": "_operatorApprovals",
        "offset": 0,
        "slot": "106",
        "type": "t_mapping(t_address,t_mapping(t_address,t_bool))"
      },
      {
        "astId": 2010,
        "contract": "contracts/MintableRewards.sol:MintableRewards",
        "label": "__gap",
        "offset": 0,
        "slot": "107",
        "type": "t_array(t_uint256)44_storage"
      },
      {
        "astId": 420,
        "contract": "contracts/MintableRewards.sol:MintableRewards",
        "label": "_owner",
        "offset": 0,
        "slot": "151",
        "type": "t_address"
      },
      {
        "astId": 534,
        "contract": "contracts/MintableRewards.sol:MintableRewards",
        "label": "__gap",
        "offset": 0,
        "slot": "152",
        "type": "t_array(t_uint256)49_storage"
      },
      {
        "astId": 4270,
        "contract": "contracts/MintableRewards.sol:MintableRewards",
        "label": "counter",
        "offset": 0,
        "slot": "201",
        "type": "t_struct(Counter)2467_storage"
      },
      {
        "astId": 4272,
        "contract": "contracts/MintableRewards.sol:MintableRewards",
        "label": "contentUrl",
        "offset": 0,
        "slot": "202",
        "type": "t_string_storage"
      },
      {
        "astId": 4274,
        "contract": "contracts/MintableRewards.sol:MintableRewards",
        "label": "contentHash",
        "offset": 0,
        "slot": "203",
        "type": "t_bytes32"
      },
      {
        "astId": 4276,
        "contract": "contracts/MintableRewards.sol:MintableRewards",
        "label": "metadataUrl",
        "offset": 0,
        "slot": "204",
        "type": "t_string_storage"
      },
      {
        "astId": 4278,
        "contract": "contracts/MintableRewards.sol:MintableRewards",
        "label": "size",
        "offset": 0,
        "slot": "205",
        "type": "t_uint64"
      },
      {
        "astId": 4280,
        "contract": "contracts/MintableRewards.sol:MintableRewards",
        "label": "royalties",
        "offset": 8,
        "slot": "205",
        "type": "t_uint16"
      },
      {
        "astId": 4282,
        "contract": "contracts/MintableRewards.sol:MintableRewards",
        "label": "allowancesRef",
        "offset": 10,
        "slot": "205",
        "type": "t_address"
      },
      {
        "astId": 4286,
        "contract": "contracts/MintableRewards.sol:MintableRewards",
        "label": "allowedMinters",
        "offset": 0,
        "slot": "206",
        "type": "t_mapping(t_address,t_uint16)"
      },
      {
        "astId": 4288,
        "contract": "contracts/MintableRewards.sol:MintableRewards",
        "label": "price",
        "offset": 0,
        "slot": "207",
        "type": "t_uint256"
      },
      {
        "astId": 4291,
        "contract": "contracts/MintableRewards.sol:MintableRewards",
        "label": "shareholders",
        "offset": 0,
        "slot": "208",
        "type": "t_array(t_address)dyn_storage"
      },
      {
        "astId": 4295,
        "contract": "contracts/MintableRewards.sol:MintableRewards",
        "label": "shares",
        "offset": 0,
        "slot": "209",
        "type": "t_mapping(t_address,t_uint16)"
      },
      {
        "astId": 4297,
        "contract": "contracts/MintableRewards.sol:MintableRewards",
        "label": "withdrawn",
        "offset": 0,
        "slot": "210",
        "type": "t_uint256"
      },
      {
        "astId": 4301,
        "contract": "contracts/MintableRewards.sol:MintableRewards",
        "label": "withdrawals",
        "offset": 0,
        "slot": "211",
        "type": "t_mapping(t_address,t_uint256)"
      }
    ],
    "types": {
      "t_address": {
        "encoding": "inplace",
        "label": "address",
        "numberOfBytes": "20"
      },
      "t_array(t_address)dyn_storage": {
        "base": "t_address",
        "encoding": "dynamic_array",
        "label": "address[]",
        "numberOfBytes": "32"
      },
      "t_array(t_uint256)44_storage": {
        "base": "t_uint256",
        "encoding": "inplace",
        "label": "uint256[44]",
        "numberOfBytes": "1408"
      },
      "t_array(t_uint256)49_storage": {
        "base": "t_uint256",
        "encoding": "inplace",
        "label": "uint256[49]",
        "numberOfBytes": "1568"
      },
      "t_array(t_uint256)50_storage": {
        "base": "t_uint256",
        "encoding": "inplace",
        "label": "uint256[50]",
        "numberOfBytes": "1600"
      },
      "t_bool": {
        "encoding": "inplace",
        "label": "bool",
        "numberOfBytes": "1"
      },
      "t_bytes32": {
        "encoding": "inplace",
        "label": "bytes32",
        "numberOfBytes": "32"
      },
      "t_mapping(t_address,t_bool)": {
        "encoding": "mapping",
        "key": "t_address",
        "label": "mapping(address => bool)",
        "numberOfBytes": "32",
        "value": "t_bool"
      },
      "t_mapping(t_address,t_mapping(t_address,t_bool))": {
        "encoding": "mapping",
        "key": "t_address",
        "label": "mapping(address => mapping(address => bool))",
        "numberOfBytes": "32",
        "value": "t_mapping(t_address,t_bool)"
      },
      "t_mapping(t_address,t_uint16)": {
        "encoding": "mapping",
        "key": "t_address",
        "label": "mapping(address => uint16)",
        "numberOfBytes": "32",
        "value": "t_uint16"
      },
      "t_mapping(t_address,t_uint256)": {
        "encoding": "mapping",
        "key": "t_address",
        "label": "mapping(address => uint256)",
        "numberOfBytes": "32",
        "value": "t_uint256"
      },
      "t_mapping(t_uint256,t_address)": {
        "encoding": "mapping",
        "key": "t_uint256",
        "label": "mapping(uint256 => address)",
        "numberOfBytes": "32",
        "value": "t_address"
      },
      "t_string_storage": {
        "encoding": "bytes",
        "label": "string",
        "numberOfBytes": "32"
      },
      "t_struct(Counter)2467_storage": {
        "encoding": "inplace",
        "label": "struct CountersUpgradeable.Counter",
        "members": [
          {
            "astId": 2466,
            "contract": "contracts/MintableRewards.sol:MintableRewards",
            "label": "_value",
            "offset": 0,
            "slot": "0",
            "type": "t_uint256"
          }
        ],
        "numberOfBytes": "32"
      },
      "t_uint16": {
        "encoding": "inplace",
        "label": "uint16",
        "numberOfBytes": "2"
      },
      "t_uint256": {
        "encoding": "inplace",
        "label": "uint256",
        "numberOfBytes": "32"
      },
      "t_uint64": {
        "encoding": "inplace",
        "label": "uint64",
        "numberOfBytes": "8"
      }
    }
  }
}