{
  "address": "0x8bCE15935aa56950c60AC079e9ab3F80aC8d98dA",
  "abi": [
    {
      "inputs": [],
      "stateMutability": "nonpayable",
      "type": "constructor"
    },
    {
      "anonymous": false,
      "inputs": [
        {
          "indexed": true,
          "internalType": "bytes32",
          "name": "role",
          "type": "bytes32"
        },
        {
          "indexed": true,
          "internalType": "bytes32",
          "name": "previousAdminRole",
          "type": "bytes32"
        },
        {
          "indexed": true,
          "internalType": "bytes32",
          "name": "newAdminRole",
          "type": "bytes32"
        }
      ],
      "name": "RoleAdminChanged",
      "type": "event"
    },
    {
      "anonymous": false,
      "inputs": [
        {
          "indexed": true,
          "internalType": "bytes32",
          "name": "role",
          "type": "bytes32"
        },
        {
          "indexed": true,
          "internalType": "address",
          "name": "account",
          "type": "address"
        },
        {
          "indexed": true,
          "internalType": "address",
          "name": "sender",
          "type": "address"
        }
      ],
      "name": "RoleGranted",
      "type": "event"
    },
    {
      "anonymous": false,
      "inputs": [
        {
          "indexed": true,
          "internalType": "bytes32",
          "name": "role",
          "type": "bytes32"
        },
        {
          "indexed": true,
          "internalType": "address",
          "name": "account",
          "type": "address"
        },
        {
          "indexed": true,
          "internalType": "address",
          "name": "sender",
          "type": "address"
        }
      ],
      "name": "RoleRevoked",
      "type": "event"
    },
    {
      "inputs": [],
      "name": "DEFAULT_ADMIN_ROLE",
      "outputs": [
        {
          "internalType": "bytes32",
          "name": "",
          "type": "bytes32"
        }
      ],
      "stateMutability": "view",
      "type": "function"
    },
    {
      "inputs": [
        {
          "internalType": "address",
          "name": "",
          "type": "address"
        }
      ],
      "name": "allowances",
      "outputs": [
        {
          "internalType": "uint16",
          "name": "",
          "type": "uint16"
        }
      ],
      "stateMutability": "view",
      "type": "function"
    },
    {
      "inputs": [
        {
          "internalType": "bytes32",
          "name": "role",
          "type": "bytes32"
        }
      ],
      "name": "getRoleAdmin",
      "outputs": [
        {
          "internalType": "bytes32",
          "name": "",
          "type": "bytes32"
        }
      ],
      "stateMutability": "view",
      "type": "function"
    },
    {
      "inputs": [
        {
          "internalType": "bytes32",
          "name": "role",
          "type": "bytes32"
        },
        {
          "internalType": "address",
          "name": "account",
          "type": "address"
        }
      ],
      "name": "grantRole",
      "outputs": [],
      "stateMutability": "nonpayable",
      "type": "function"
    },
    {
      "inputs": [
        {
          "internalType": "bytes32",
          "name": "role",
          "type": "bytes32"
        },
        {
          "internalType": "address",
          "name": "account",
          "type": "address"
        }
      ],
      "name": "hasRole",
      "outputs": [
        {
          "internalType": "bool",
          "name": "",
          "type": "bool"
        }
      ],
      "stateMutability": "view",
      "type": "function"
    },
    {
      "inputs": [],
      "name": "initialize",
      "outputs": [],
      "stateMutability": "nonpayable",
      "type": "function"
    },
    {
      "inputs": [],
      "name": "length",
      "outputs": [
        {
          "internalType": "uint256",
          "name": "",
          "type": "uint256"
        }
      ],
      "stateMutability": "view",
      "type": "function"
    },
    {
      "inputs": [],
      "name": "list",
      "outputs": [
        {
          "components": [
            {
              "internalType": "address",
              "name": "minter",
              "type": "address"
            },
            {
              "internalType": "uint16",
              "name": "amount",
              "type": "uint16"
            }
          ],
          "internalType": "struct AllowancesStore.Allowance[]",
          "name": "",
          "type": "tuple[]"
        }
      ],
      "stateMutability": "view",
      "type": "function"
    },
    {
      "inputs": [
        {
          "internalType": "uint256",
          "name": "",
          "type": "uint256"
        }
      ],
      "name": "minters",
      "outputs": [
        {
          "internalType": "address",
          "name": "",
          "type": "address"
        }
      ],
      "stateMutability": "view",
      "type": "function"
    },
    {
      "inputs": [
        {
          "internalType": "bytes32",
          "name": "role",
          "type": "bytes32"
        },
        {
          "internalType": "address",
          "name": "account",
          "type": "address"
        }
      ],
      "name": "renounceRole",
      "outputs": [],
      "stateMutability": "nonpayable",
      "type": "function"
    },
    {
      "inputs": [
        {
          "internalType": "bytes32",
          "name": "role",
          "type": "bytes32"
        },
        {
          "internalType": "address",
          "name": "account",
          "type": "address"
        }
      ],
      "name": "revokeRole",
      "outputs": [],
      "stateMutability": "nonpayable",
      "type": "function"
    },
    {
      "inputs": [
        {
          "internalType": "bytes4",
          "name": "interfaceId",
          "type": "bytes4"
        }
      ],
      "name": "supportsInterface",
      "outputs": [
        {
          "internalType": "bool",
          "name": "",
          "type": "bool"
        }
      ],
      "stateMutability": "view",
      "type": "function"
    },
    {
      "inputs": [],
      "name": "totalAllowed",
      "outputs": [
        {
          "internalType": "uint64",
          "name": "",
          "type": "uint64"
        }
      ],
      "stateMutability": "view",
      "type": "function"
    },
    {
      "inputs": [
        {
          "components": [
            {
              "internalType": "address",
              "name": "minter",
              "type": "address"
            },
            {
              "internalType": "uint16",
              "name": "amount",
              "type": "uint16"
            }
          ],
          "internalType": "struct AllowancesStore.Allowance[]",
          "name": "_allowances",
          "type": "tuple[]"
        }
      ],
      "name": "update",
      "outputs": [],
      "stateMutability": "nonpayable",
      "type": "function"
    }
  ],
  "transactionHash": "0x1cfd9dbbf6ce76eeb7bea27b2b976ba77528d12607618b590a270a47ded7571c",
  "args": [],
  "solcInputHash": "b459d21a8e4e840985f9e4167289bf2e",
  "bytecode": "0x608060405234801561001057600080fd5b50600054610100900460ff168061002a575060005460ff16155b6100915760405162461bcd60e51b815260206004820152602e60248201527f496e697469616c697a61626c653a20636f6e747261637420697320616c72656160448201526d191e481a5b9a5d1a585b1a5e995960921b606482015260840160405180910390fd5b600054610100900460ff161580156100b3576000805461ffff19166101011790555b80156100c5576000805461ff00191690555b50611331806100d56000396000f3fe608060405234801561001057600080fd5b50600436106100ea5760003560e01c80637332377b1161008c57806390e3b35c1161006657806390e3b35c1461021357806391d1485414610234578063a217fddf1461027a578063d547741f1461028257600080fd5b80637332377b146101c05780638129fc1c146101d35780638623ec7b146101db57600080fd5b8063248a9ca3116100c8578063248a9ca31461013e5780632b603c71146101615780632f2ff15d1461019857806336568abe146101ad57600080fd5b806301ffc9a7146100ef5780630f560cd7146101175780631f7b6d321461012c575b600080fd5b6101026100fd366004610deb565b610295565b60405190151581526020015b60405180910390f35b61011f61032e565b60405161010e9190610e2d565b6098545b60405190815260200161010e565b61013061014c366004610e96565b60009081526065602052604090206001015490565b61018561016f366004610ed8565b60976020526000908152604090205461ffff1681565b60405161ffff909116815260200161010e565b6101ab6101a6366004610ef3565b61048f565b005b6101ab6101bb366004610ef3565b6104ba565b6101ab6101ce366004610fc6565b610572565b6101ab610728565b6101ee6101e9366004610e96565b610849565b60405173ffffffffffffffffffffffffffffffffffffffff909116815260200161010e565b61021b610880565b60405167ffffffffffffffff909116815260200161010e565b610102610242366004610ef3565b600091825260656020908152604080842073ffffffffffffffffffffffffffffffffffffffff93909316845291905290205460ff1690565b610130600081565b6101ab610290366004610ef3565b6108fa565b60007fffffffff0000000000000000000000000000000000000000000000000000000082167f7965db0b00000000000000000000000000000000000000000000000000000000148061032857507f01ffc9a7000000000000000000000000000000000000000000000000000000007fffffffff000000000000000000000000000000000000000000000000000000008316145b92915050565b60985460609060009067ffffffffffffffff81111561034f5761034f610f1f565b60405190808252806020026020018201604052801561039457816020015b604080518082019091526000808252602082015281526020019060019003908161036d5790505b50905060005b609854811015610489576040518060400160405280609883815481106103c2576103c26110ac565b9060005260206000200160009054906101000a900473ffffffffffffffffffffffffffffffffffffffff1673ffffffffffffffffffffffffffffffffffffffff168152602001609760006098858154811061041f5761041f6110ac565b600091825260208083209091015473ffffffffffffffffffffffffffffffffffffffff16835282019290925260400190205461ffff169052825183908390811061046b5761046b6110ac565b602002602001018190525080806104819061110a565b91505061039a565b50919050565b6000828152606560205260409020600101546104ab8133610920565b6104b583836109f2565b505050565b73ffffffffffffffffffffffffffffffffffffffff81163314610564576040517f08c379a000000000000000000000000000000000000000000000000000000000815260206004820152602f60248201527f416363657373436f6e74726f6c3a2063616e206f6e6c792072656e6f756e636560448201527f20726f6c657320666f722073656c66000000000000000000000000000000000060648201526084015b60405180910390fd5b61056e8282610ae6565b5050565b600061057e8133610920565b60005b82518110156104b55782818151811061059c5761059c6110ac565b60200260200101516020015161ffff166000141580156106055750609760008483815181106105cd576105cd6110ac565b6020908102919091018101515173ffffffffffffffffffffffffffffffffffffffff1682528101919091526040016000205461ffff16155b1561068057609883828151811061061e5761061e6110ac565b6020908102919091018101515182546001810184556000938452919092200180547fffffffffffffffffffffffff00000000000000000000000000000000000000001673ffffffffffffffffffffffffffffffffffffffff9092169190911790555b828181518110610692576106926110ac565b602002602001015160200151609760008584815181106106b4576106b46110ac565b6020908102919091018101515173ffffffffffffffffffffffffffffffffffffffff16825281019190915260400160002080547fffffffffffffffffffffffffffffffffffffffffffffffffffffffffffff00001661ffff92909216919091179055806107208161110a565b915050610581565b600054610100900460ff1680610741575060005460ff16155b6107cd576040517f08c379a000000000000000000000000000000000000000000000000000000000815260206004820152602e60248201527f496e697469616c697a61626c653a20636f6e747261637420697320616c72656160448201527f647920696e697469616c697a6564000000000000000000000000000000000000606482015260840161055b565b600054610100900460ff1615801561080c57600080547fffffffffffffffffffffffffffffffffffffffffffffffffffffffffffff0000166101011790555b6108176000336109f2565b801561084657600080547fffffffffffffffffffffffffffffffffffffffffffffffffffffffffffff00ff1690555b50565b6098818154811061085957600080fd5b60009182526020909120015473ffffffffffffffffffffffffffffffffffffffff16905081565b600080805b6098548110156104895760976000609883815481106108a6576108a66110ac565b600091825260208083209091015473ffffffffffffffffffffffffffffffffffffffff1683528201929092526040019020546108e69061ffff1683611143565b9150806108f28161110a565b915050610885565b6000828152606560205260409020600101546109168133610920565b6104b58383610ae6565b600082815260656020908152604080832073ffffffffffffffffffffffffffffffffffffffff8516845290915290205460ff1661056e576109788173ffffffffffffffffffffffffffffffffffffffff166014610ba1565b610983836020610ba1565b60405160200161099492919061119f565b604080517fffffffffffffffffffffffffffffffffffffffffffffffffffffffffffffffe0818403018152908290527f08c379a000000000000000000000000000000000000000000000000000000000825261055b91600401611220565b600082815260656020908152604080832073ffffffffffffffffffffffffffffffffffffffff8516845290915290205460ff1661056e57600082815260656020908152604080832073ffffffffffffffffffffffffffffffffffffffff85168452909152902080547fffffffffffffffffffffffffffffffffffffffffffffffffffffffffffffff00166001179055610a883390565b73ffffffffffffffffffffffffffffffffffffffff168173ffffffffffffffffffffffffffffffffffffffff16837f2f8788117e7eff1d82e926ec794901d17c78024a50270940304540a733656f0d60405160405180910390a45050565b600082815260656020908152604080832073ffffffffffffffffffffffffffffffffffffffff8516845290915290205460ff161561056e57600082815260656020908152604080832073ffffffffffffffffffffffffffffffffffffffff8516808552925280832080547fffffffffffffffffffffffffffffffffffffffffffffffffffffffffffffff0016905551339285917ff6391f5c32d9c69d2a47ea670b442974b53935d1edc7fd64eb21e047a839171b9190a45050565b60606000610bb0836002611271565b610bbb9060026112ae565b67ffffffffffffffff811115610bd357610bd3610f1f565b6040519080825280601f01601f191660200182016040528015610bfd576020820181803683370190505b5090507f300000000000000000000000000000000000000000000000000000000000000081600081518110610c3457610c346110ac565b60200101907effffffffffffffffffffffffffffffffffffffffffffffffffffffffffffff1916908160001a9053507f780000000000000000000000000000000000000000000000000000000000000081600181518110610c9757610c976110ac565b60200101907effffffffffffffffffffffffffffffffffffffffffffffffffffffffffffff1916908160001a9053506000610cd3846002611271565b610cde9060016112ae565b90505b6001811115610d7b577f303132333435363738396162636465660000000000000000000000000000000085600f1660108110610d1f57610d1f6110ac565b1a60f81b828281518110610d3557610d356110ac565b60200101907effffffffffffffffffffffffffffffffffffffffffffffffffffffffffffff1916908160001a90535060049490941c93610d74816112c6565b9050610ce1565b508315610de4576040517f08c379a000000000000000000000000000000000000000000000000000000000815260206004820181905260248201527f537472696e67733a20686578206c656e67746820696e73756666696369656e74604482015260640161055b565b9392505050565b600060208284031215610dfd57600080fd5b81357fffffffff0000000000000000000000000000000000000000000000000000000081168114610de457600080fd5b602080825282518282018190526000919060409081850190868401855b82811015610e89578151805173ffffffffffffffffffffffffffffffffffffffff16855286015161ffff16868501529284019290850190600101610e4a565b5091979650505050505050565b600060208284031215610ea857600080fd5b5035919050565b803573ffffffffffffffffffffffffffffffffffffffff81168114610ed357600080fd5b919050565b600060208284031215610eea57600080fd5b610de482610eaf565b60008060408385031215610f0657600080fd5b82359150610f1660208401610eaf565b90509250929050565b7f4e487b7100000000000000000000000000000000000000000000000000000000600052604160045260246000fd5b6040805190810167ffffffffffffffff81118282101715610f7157610f71610f1f565b60405290565b604051601f82017fffffffffffffffffffffffffffffffffffffffffffffffffffffffffffffffe016810167ffffffffffffffff81118282101715610fbe57610fbe610f1f565b604052919050565b60006020808385031215610fd957600080fd5b823567ffffffffffffffff80821115610ff157600080fd5b818501915085601f83011261100557600080fd5b81358181111561101757611017610f1f565b611025848260051b01610f77565b818152848101925060069190911b83018401908782111561104557600080fd5b928401925b818410156110a157604084890312156110635760008081fd5b61106b610f4e565b61107485610eaf565b81528585013561ffff8116811461108b5760008081fd5b818701528352604093909301929184019161104a565b979650505050505050565b7f4e487b7100000000000000000000000000000000000000000000000000000000600052603260045260246000fd5b7f4e487b7100000000000000000000000000000000000000000000000000000000600052601160045260246000fd5b60007fffffffffffffffffffffffffffffffffffffffffffffffffffffffffffffffff82141561113c5761113c6110db565b5060010190565b600067ffffffffffffffff808316818516808303821115611166576111666110db565b01949350505050565b60005b8381101561118a578181015183820152602001611172565b83811115611199576000848401525b50505050565b7f416363657373436f6e74726f6c3a206163636f756e74200000000000000000008152600083516111d781601785016020880161116f565b7f206973206d697373696e6720726f6c6520000000000000000000000000000000601791840191820152835161121481602884016020880161116f565b01602801949350505050565b602081526000825180602084015261123f81604085016020870161116f565b601f017fffffffffffffffffffffffffffffffffffffffffffffffffffffffffffffffe0169190910160400192915050565b6000817fffffffffffffffffffffffffffffffffffffffffffffffffffffffffffffffff04831182151516156112a9576112a96110db565b500290565b600082198211156112c1576112c16110db565b500190565b6000816112d5576112d56110db565b507fffffffffffffffffffffffffffffffffffffffffffffffffffffffffffffffff019056fea2646970667358221220864158e53cfb91c61b7014bd97b26cadd308bf27715cfd6be519c814be69ca6b64736f6c63430008090033",
  "devdoc": {
    "kind": "dev",
    "methods": {
      "constructor": {
        "custom:oz-upgrades-unsafe-allow": "constructor"
      },
      "getRoleAdmin(bytes32)": {
        "details": "Returns the admin role that controls `role`. See {grantRole} and {revokeRole}. To change a role's admin, use {_setRoleAdmin}."
      },
      "grantRole(bytes32,address)": {
        "details": "Grants `role` to `account`. If `account` had not been already granted `role`, emits a {RoleGranted} event. Requirements: - the caller must have ``role``'s admin role."
      },
      "hasRole(bytes32,address)": {
        "details": "Returns `true` if `account` has been granted `role`."
      },
      "renounceRole(bytes32,address)": {
        "details": "Revokes `role` from the calling account. Roles are often managed via {grantRole} and {revokeRole}: this function's purpose is to provide a mechanism for accounts to lose their privileges if they are compromised (such as when a trusted device is misplaced). If the calling account had been revoked `role`, emits a {RoleRevoked} event. Requirements: - the caller must be `account`."
      },
      "revokeRole(bytes32,address)": {
        "details": "Revokes `role` from `account`. If `account` had been granted `role`, emits a {RoleRevoked} event. Requirements: - the caller must have ``role``'s admin role."
      },
      "supportsInterface(bytes4)": {
        "details": "See {IERC165-supportsInterface}."
      }
    },
    "version": 1
  },
  "userdoc": {
    "kind": "user",
    "methods": {},
    "notice": "Holds receivers addresses and allowances",
    "version": 1
  },
  "storageLayout": {
    "storage": [
      {
        "astId": 563,
        "contract": "contracts/AllowancesStore.sol:AllowancesStore",
        "label": "_initialized",
        "offset": 0,
        "slot": "0",
        "type": "t_bool"
      },
      {
        "astId": 566,
        "contract": "contracts/AllowancesStore.sol:AllowancesStore",
        "label": "_initializing",
        "offset": 1,
        "slot": "0",
        "type": "t_bool"
      },
      {
        "astId": 1913,
        "contract": "contracts/AllowancesStore.sol:AllowancesStore",
        "label": "__gap",
        "offset": 0,
        "slot": "1",
        "type": "t_array(t_uint256)50_storage"
      },
      {
        "astId": 2236,
        "contract": "contracts/AllowancesStore.sol:AllowancesStore",
        "label": "__gap",
        "offset": 0,
        "slot": "51",
        "type": "t_array(t_uint256)50_storage"
      },
      {
        "astId": 48,
        "contract": "contracts/AllowancesStore.sol:AllowancesStore",
        "label": "_roles",
        "offset": 0,
        "slot": "101",
        "type": "t_mapping(t_bytes32,t_struct(RoleData)43_storage)"
      },
      {
        "astId": 335,
        "contract": "contracts/AllowancesStore.sol:AllowancesStore",
        "label": "__gap",
        "offset": 0,
        "slot": "102",
        "type": "t_array(t_uint256)49_storage"
      },
      {
        "astId": 3317,
        "contract": "contracts/AllowancesStore.sol:AllowancesStore",
        "label": "allowances",
        "offset": 0,
        "slot": "151",
        "type": "t_mapping(t_address,t_uint16)"
      },
      {
        "astId": 3320,
        "contract": "contracts/AllowancesStore.sol:AllowancesStore",
        "label": "minters",
        "offset": 0,
        "slot": "152",
        "type": "t_array(t_address)dyn_storage"
      }
    ],
    "types": {
      "t_address": {
        "encoding": "inplace",
        "label": "address",
        "numberOfBytes": "20"
      },
      "t_array(t_address)dyn_storage": {
        "base": "t_address",
        "encoding": "dynamic_array",
        "label": "address[]",
        "numberOfBytes": "32"
      },
      "t_array(t_uint256)49_storage": {
        "base": "t_uint256",
        "encoding": "inplace",
        "label": "uint256[49]",
        "numberOfBytes": "1568"
      },
      "t_array(t_uint256)50_storage": {
        "base": "t_uint256",
        "encoding": "inplace",
        "label": "uint256[50]",
        "numberOfBytes": "1600"
      },
      "t_bool": {
        "encoding": "inplace",
        "label": "bool",
        "numberOfBytes": "1"
      },
      "t_bytes32": {
        "encoding": "inplace",
        "label": "bytes32",
        "numberOfBytes": "32"
      },
      "t_mapping(t_address,t_bool)": {
        "encoding": "mapping",
        "key": "t_address",
        "label": "mapping(address => bool)",
        "numberOfBytes": "32",
        "value": "t_bool"
      },
      "t_mapping(t_address,t_uint16)": {
        "encoding": "mapping",
        "key": "t_address",
        "label": "mapping(address => uint16)",
        "numberOfBytes": "32",
        "value": "t_uint16"
      },
      "t_mapping(t_bytes32,t_struct(RoleData)43_storage)": {
        "encoding": "mapping",
        "key": "t_bytes32",
        "label": "mapping(bytes32 => struct AccessControlUpgradeable.RoleData)",
        "numberOfBytes": "32",
        "value": "t_struct(RoleData)43_storage"
      },
      "t_struct(RoleData)43_storage": {
        "encoding": "inplace",
        "label": "struct AccessControlUpgradeable.RoleData",
        "members": [
          {
            "astId": 40,
            "contract": "contracts/AllowancesStore.sol:AllowancesStore",
            "label": "members",
            "offset": 0,
            "slot": "0",
            "type": "t_mapping(t_address,t_bool)"
          },
          {
            "astId": 42,
            "contract": "contracts/AllowancesStore.sol:AllowancesStore",
            "label": "adminRole",
            "offset": 0,
            "slot": "1",
            "type": "t_bytes32"
          }
        ],
        "numberOfBytes": "64"
      },
      "t_uint16": {
        "encoding": "inplace",
        "label": "uint16",
        "numberOfBytes": "2"
      },
      "t_uint256": {
        "encoding": "inplace",
        "label": "uint256",
        "numberOfBytes": "32"
      }
    }
  }
}