{
  "address": "0x0aA697587C1F535cdf296b68bEd66b2f3dfB78B8",
  "abi": [
    {
      "inputs": [
        {
          "internalType": "address",
          "name": "implementation",
          "type": "address"
        }
      ],
      "stateMutability": "nonpayable",
      "type": "constructor"
    },
    {
      "anonymous": false,
      "inputs": [
        {
          "indexed": true,
          "internalType": "uint256",
          "name": "index",
          "type": "uint256"
        },
        {
          "indexed": true,
          "internalType": "address",
          "name": "creator",
          "type": "address"
        },
        {
          "components": [
            {
              "internalType": "address payable",
              "name": "holder",
              "type": "address"
            },
            {
              "internalType": "uint16",
              "name": "bps",
              "type": "uint16"
            }
          ],
          "indexed": true,
          "internalType": "struct MintableRewards.Shares[]",
          "name": "shareholders",
          "type": "tuple[]"
        },
        {
          "indexed": false,
          "internalType": "uint256",
          "name": "size",
          "type": "uint256"
        },
        {
          "indexed": false,
          "internalType": "address",
          "name": "contractAddress",
          "type": "address"
        }
      ],
      "name": "CreatedRewards",
      "type": "event"
    },
    {
      "anonymous": false,
      "inputs": [
        {
          "indexed": true,
          "internalType": "bytes32",
          "name": "role",
          "type": "bytes32"
        },
        {
          "indexed": true,
          "internalType": "bytes32",
          "name": "previousAdminRole",
          "type": "bytes32"
        },
        {
          "indexed": true,
          "internalType": "bytes32",
          "name": "newAdminRole",
          "type": "bytes32"
        }
      ],
      "name": "RoleAdminChanged",
      "type": "event"
    },
    {
      "anonymous": false,
      "inputs": [
        {
          "indexed": true,
          "internalType": "bytes32",
          "name": "role",
          "type": "bytes32"
        },
        {
          "indexed": true,
          "internalType": "address",
          "name": "account",
          "type": "address"
        },
        {
          "indexed": true,
          "internalType": "address",
          "name": "sender",
          "type": "address"
        }
      ],
      "name": "RoleGranted",
      "type": "event"
    },
    {
      "anonymous": false,
      "inputs": [
        {
          "indexed": true,
          "internalType": "bytes32",
          "name": "role",
          "type": "bytes32"
        },
        {
          "indexed": true,
          "internalType": "address",
          "name": "account",
          "type": "address"
        },
        {
          "indexed": true,
          "internalType": "address",
          "name": "sender",
          "type": "address"
        }
      ],
      "name": "RoleRevoked",
      "type": "event"
    },
    {
      "inputs": [],
      "name": "ARTIST_ROLE",
      "outputs": [
        {
          "internalType": "bytes32",
          "name": "",
          "type": "bytes32"
        }
      ],
      "stateMutability": "view",
      "type": "function"
    },
    {
      "inputs": [],
      "name": "DEFAULT_ADMIN_ROLE",
      "outputs": [
        {
          "internalType": "bytes32",
          "name": "",
          "type": "bytes32"
        }
      ],
      "stateMutability": "view",
      "type": "function"
    },
    {
      "inputs": [],
      "name": "beacon",
      "outputs": [
        {
          "internalType": "contract UpgradeableBeacon",
          "name": "",
          "type": "address"
        }
      ],
      "stateMutability": "view",
      "type": "function"
    },
    {
      "inputs": [
        {
          "components": [
            {
              "internalType": "string",
              "name": "name",
              "type": "string"
            },
            {
              "internalType": "string",
              "name": "symbol",
              "type": "string"
            },
            {
              "internalType": "string",
              "name": "contentUrl",
              "type": "string"
            },
            {
              "internalType": "bytes32",
              "name": "contentHash",
              "type": "bytes32"
            },
            {
              "internalType": "string",
              "name": "metadataUrl",
              "type": "string"
            }
          ],
          "internalType": "struct MintableRewards.Info",
          "name": "info",
          "type": "tuple"
        },
        {
          "internalType": "uint64",
          "name": "size",
          "type": "uint64"
        },
        {
          "internalType": "uint256",
          "name": "price",
          "type": "uint256"
        },
        {
          "internalType": "uint16",
          "name": "royalties",
          "type": "uint16"
        },
        {
          "components": [
            {
              "internalType": "address payable",
              "name": "holder",
              "type": "address"
            },
            {
              "internalType": "uint16",
              "name": "bps",
              "type": "uint16"
            }
          ],
          "internalType": "struct MintableRewards.Shares[]",
          "name": "shares",
          "type": "tuple[]"
        },
        {
          "internalType": "address",
          "name": "allowancesRef",
          "type": "address"
        }
      ],
      "name": "create",
      "outputs": [
        {
          "internalType": "address",
          "name": "",
          "type": "address"
        }
      ],
      "stateMutability": "nonpayable",
      "type": "function"
    },
    {
      "inputs": [
        {
          "internalType": "uint256",
          "name": "editionId",
          "type": "uint256"
        }
      ],
      "name": "get",
      "outputs": [
        {
          "internalType": "address",
          "name": "",
          "type": "address"
        }
      ],
      "stateMutability": "view",
      "type": "function"
    },
    {
      "inputs": [
        {
          "internalType": "bytes32",
          "name": "role",
          "type": "bytes32"
        }
      ],
      "name": "getRoleAdmin",
      "outputs": [
        {
          "internalType": "bytes32",
          "name": "",
          "type": "bytes32"
        }
      ],
      "stateMutability": "view",
      "type": "function"
    },
    {
      "inputs": [
        {
          "internalType": "bytes32",
          "name": "role",
          "type": "bytes32"
        },
        {
          "internalType": "address",
          "name": "account",
          "type": "address"
        }
      ],
      "name": "grantRole",
      "outputs": [],
      "stateMutability": "nonpayable",
      "type": "function"
    },
    {
      "inputs": [
        {
          "internalType": "bytes32",
          "name": "role",
          "type": "bytes32"
        },
        {
          "internalType": "address",
          "name": "account",
          "type": "address"
        }
      ],
      "name": "hasRole",
      "outputs": [
        {
          "internalType": "bool",
          "name": "",
          "type": "bool"
        }
      ],
      "stateMutability": "view",
      "type": "function"
    },
    {
      "inputs": [],
      "name": "instances",
      "outputs": [
        {
          "internalType": "uint256",
          "name": "",
          "type": "uint256"
        }
      ],
      "stateMutability": "view",
      "type": "function"
    },
    {
      "inputs": [
        {
          "internalType": "bytes32",
          "name": "role",
          "type": "bytes32"
        },
        {
          "internalType": "address",
          "name": "account",
          "type": "address"
        }
      ],
      "name": "renounceRole",
      "outputs": [],
      "stateMutability": "nonpayable",
      "type": "function"
    },
    {
      "inputs": [
        {
          "internalType": "bytes32",
          "name": "role",
          "type": "bytes32"
        },
        {
          "internalType": "address",
          "name": "account",
          "type": "address"
        }
      ],
      "name": "revokeRole",
      "outputs": [],
      "stateMutability": "nonpayable",
      "type": "function"
    },
    {
      "inputs": [
        {
          "internalType": "bytes4",
          "name": "interfaceId",
          "type": "bytes4"
        }
      ],
      "name": "supportsInterface",
      "outputs": [
        {
          "internalType": "bool",
          "name": "",
          "type": "bool"
        }
      ],
      "stateMutability": "view",
      "type": "function"
    },
    {
      "inputs": [
        {
          "internalType": "address",
          "name": "implementation",
          "type": "address"
        }
      ],
      "name": "upgradeTo",
      "outputs": [],
      "stateMutability": "nonpayable",
      "type": "function"
    }
  ],
  "transactionHash": "0x71384766b84ac932a4315959a561382f6433f98b375a84403fd038974e904030",
  "args": [
    "0xCeAd0b6E0736F44fd1dFFD73B5F0221f82d547D3"
  ],
  "solcInputHash": "2b6de4d3d6354f10c990a99460689482",
  "bytecode": "0x60a06040523480156200001157600080fd5b5060405162002a0738038062002a07833981016040819052620000349162000176565b600081604051620000459062000168565b6001600160a01b039091168152602001604051809103906000f08015801562000072573d6000803e3d6000fd5b506001600160a01b03811660805290506200008f600033620000c3565b620000bb7f877a78dc988c0ec5f58453b44888a55eb39755c3d5ed8d8ea990912aa3ef29c633620000c3565b5050620001a8565b60008281526065602090815260408083206001600160a01b038516845290915290205460ff16620001645760008281526065602090815260408083206001600160a01b03851684529091529020805460ff19166001179055620001233390565b6001600160a01b0316816001600160a01b0316837f2f8788117e7eff1d82e926ec794901d17c78024a50270940304540a733656f0d60405160405180910390a45b5050565b6106d7806200233083390190565b6000602082840312156200018957600080fd5b81516001600160a01b0381168114620001a157600080fd5b9392505050565b60805161215e620001d2600039600081816101eb0152818161048c01526105db015261215e6000f3fe60806040523480156200001157600080fd5b5060043610620000f15760003560e01c80634d2ace6611620000975780639507d39a116200006e5780639507d39a1462000256578063a217fddf146200026d578063a966a0df1462000276578063d547741f146200029e57600080fd5b80634d2ace6614620001db57806359659e9014620001e557806391d14854146200020d57600080fd5b806336568abe11620000cc57806336568abe14620001705780633659cfe6146200018757806340ee0809146200019e57600080fd5b806301ffc9a714620000f6578063248a9ca314620001225780632f2ff15d1462000157575b600080fd5b6200010d6200010736600462000dc8565b620002b5565b60405190151581526020015b60405180910390f35b620001486200013336600462000e0c565b60009081526065602052604090206001015490565b60405190815260200162000119565b6200016e6200016836600462000e5e565b6200034f565b005b6200016e6200018136600462000e5e565b6200037e565b6200016e6200019836600462000e91565b62000439565b620001b5620001af36600462001109565b620004ee565b60405173ffffffffffffffffffffffffffffffffffffffff909116815260200162000119565b62000148620007ea565b620001b57f000000000000000000000000000000000000000000000000000000000000000081565b6200010d6200021e36600462000e5e565b600091825260656020908152604080842073ffffffffffffffffffffffffffffffffffffffff93909316845291905290205460ff1690565b620001b56200026736600462000e0c565b620007fb565b62000148600081565b620001487f877a78dc988c0ec5f58453b44888a55eb39755c3d5ed8d8ea990912aa3ef29c681565b6200016e620002af36600462000e5e565b6200089b565b60007fffffffff0000000000000000000000000000000000000000000000000000000082167f7965db0b0000000000000000000000000000000000000000000000000000000014806200034957507f01ffc9a7000000000000000000000000000000000000000000000000000000007fffffffff000000000000000000000000000000000000000000000000000000008316145b92915050565b6000828152606560205260409020600101546200036d8133620008c5565b620003798383620009a0565b505050565b73ffffffffffffffffffffffffffffffffffffffff8116331462000429576040517f08c379a000000000000000000000000000000000000000000000000000000000815260206004820152602f60248201527f416363657373436f6e74726f6c3a2063616e206f6e6c792072656e6f756e636560448201527f20726f6c657320666f722073656c66000000000000000000000000000000000060648201526084015b60405180910390fd5b62000435828262000a96565b5050565b6000620004478133620008c5565b6040517f3659cfe600000000000000000000000000000000000000000000000000000000815273ffffffffffffffffffffffffffffffffffffffff83811660048301527f00000000000000000000000000000000000000000000000000000000000000001690633659cfe690602401600060405180830381600087803b158015620004d157600080fd5b505af1158015620004e6573d6000803e3d6000fd5b505050505050565b60007f877a78dc988c0ec5f58453b44888a55eb39755c3d5ed8d8ea990912aa3ef29c66200051d8133620008c5565b606088015160009081526097602052604090205460ff16156200059d576040517f08c379a000000000000000000000000000000000000000000000000000000000815260206004820152601260248201527f4475706c69636174656420636f6e74656e740000000000000000000000000000604482015260640162000420565b6060880151600090815260976020526040812080547fffffffffffffffffffffffffffffffffffffffffffffffffffffffffffffff001660011790557f00000000000000000000000000000000000000000000000000000000000000007f18f0043f00000000000000000000000000000000000000000000000000000000620006233390565b8b8b8b8b8b8b60405160240162000641979695949392919062001346565b604080517fffffffffffffffffffffffffffffffffffffffffffffffffffffffffffffffe08184030181529181526020820180517bffffffffffffffffffffffffffffffffffffffffffffffffffffffff167fffffffff00000000000000000000000000000000000000000000000000000000909416939093179092529051620006cb9062000dba565b620006d892919062001483565b604051809103906000f080158015620006f5573d6000803e3d6000fd5b50905062000707609880546001019055565b80609960006200071660985490565b815260200190815260200160002060006101000a81548173ffffffffffffffffffffffffffffffffffffffff021916908373ffffffffffffffffffffffffffffffffffffffff16021790555084604051620007729190620014bc565b604051908190039020336200078660985490565b6040805167ffffffffffffffff8d16815273ffffffffffffffffffffffffffffffffffffffff861660208201527f2810d0c39e50bfbce2022373014f9d495096ef23f94696e8086e5072a8105a3c910160405180910390a498975050505050505050565b6000620007f660985490565b905090565b60006200080760985490565b82111562000872576040517f08c379a000000000000000000000000000000000000000000000000000000000815260206004820152601360248201527f45644e465420646f65736e277420657869737400000000000000000000000000604482015260640162000420565b5060009081526099602052604090205473ffffffffffffffffffffffffffffffffffffffff1690565b600082815260656020526040902060010154620008b98133620008c5565b62000379838362000a96565b600082815260656020908152604080832073ffffffffffffffffffffffffffffffffffffffff8516845290915290205460ff166200043557620009208173ffffffffffffffffffffffffffffffffffffffff16601462000b52565b6200092d83602062000b52565b6040516020016200094092919062001519565b604080517fffffffffffffffffffffffffffffffffffffffffffffffffffffffffffffffe0818403018152908290527f08c379a000000000000000000000000000000000000000000000000000000000825262000420916004016200159e565b600082815260656020908152604080832073ffffffffffffffffffffffffffffffffffffffff8516845290915290205460ff166200043557600082815260656020908152604080832073ffffffffffffffffffffffffffffffffffffffff85168452909152902080547fffffffffffffffffffffffffffffffffffffffffffffffffffffffffffffff0016600117905562000a383390565b73ffffffffffffffffffffffffffffffffffffffff168173ffffffffffffffffffffffffffffffffffffffff16837f2f8788117e7eff1d82e926ec794901d17c78024a50270940304540a733656f0d60405160405180910390a45050565b600082815260656020908152604080832073ffffffffffffffffffffffffffffffffffffffff8516845290915290205460ff16156200043557600082815260656020908152604080832073ffffffffffffffffffffffffffffffffffffffff8516808552925280832080547fffffffffffffffffffffffffffffffffffffffffffffffffffffffffffffff0016905551339285917ff6391f5c32d9c69d2a47ea670b442974b53935d1edc7fd64eb21e047a839171b9190a45050565b6060600062000b63836002620015e2565b62000b7090600262001622565b67ffffffffffffffff81111562000b8b5762000b8b62000eb1565b6040519080825280601f01601f19166020018201604052801562000bb6576020820181803683370190505b5090507f30000000000000000000000000000000000000000000000000000000000000008160008151811062000bf05762000bf06200163d565b60200101907effffffffffffffffffffffffffffffffffffffffffffffffffffffffffffff1916908160001a9053507f78000000000000000000000000000000000000000000000000000000000000008160018151811062000c565762000c566200163d565b60200101907effffffffffffffffffffffffffffffffffffffffffffffffffffffffffffff1916908160001a905350600062000c94846002620015e2565b62000ca190600162001622565b90505b600181111562000d48577f303132333435363738396162636465660000000000000000000000000000000085600f166010811062000ce65762000ce66200163d565b1a60f81b82828151811062000cff5762000cff6200163d565b60200101907effffffffffffffffffffffffffffffffffffffffffffffffffffffffffffff1916908160001a90535060049490941c9362000d40816200166c565b905062000ca4565b50831562000db3576040517f08c379a000000000000000000000000000000000000000000000000000000000815260206004820181905260248201527f537472696e67733a20686578206c656e67746820696e73756666696369656e74604482015260640162000420565b9392505050565b610a8480620016a583390190565b60006020828403121562000ddb57600080fd5b81357fffffffff000000000000000000000000000000000000000000000000000000008116811462000db357600080fd5b60006020828403121562000e1f57600080fd5b5035919050565b73ffffffffffffffffffffffffffffffffffffffff8116811462000e4957600080fd5b50565b803562000e598162000e26565b919050565b6000806040838503121562000e7257600080fd5b82359150602083013562000e868162000e26565b809150509250929050565b60006020828403121562000ea457600080fd5b813562000db38162000e26565b7f4e487b7100000000000000000000000000000000000000000000000000000000600052604160045260246000fd5b6040805190810167ffffffffffffffff8111828210171562000f065762000f0662000eb1565b60405290565b60405160a0810167ffffffffffffffff8111828210171562000f065762000f0662000eb1565b604051601f82017fffffffffffffffffffffffffffffffffffffffffffffffffffffffffffffffe016810167ffffffffffffffff8111828210171562000f7c5762000f7c62000eb1565b604052919050565b600082601f83011262000f9657600080fd5b813567ffffffffffffffff81111562000fb35762000fb362000eb1565b62000fe660207fffffffffffffffffffffffffffffffffffffffffffffffffffffffffffffffe0601f8401160162000f32565b81815284602083860101111562000ffc57600080fd5b816020850160208301376000918101602001919091529392505050565b803567ffffffffffffffff8116811462000e5957600080fd5b803561ffff8116811462000e5957600080fd5b600082601f8301126200105757600080fd5b8135602067ffffffffffffffff82111562001076576200107662000eb1565b62001086818360051b0162000f32565b82815260069290921b84018101918181019086841115620010a657600080fd5b8286015b84811015620010fe5760408189031215620010c55760008081fd5b620010cf62000ee0565b8135620010dc8162000e26565b8152620010eb82860162001032565b81860152835291830191604001620010aa565b509695505050505050565b60008060008060008060c087890312156200112357600080fd5b863567ffffffffffffffff808211156200113c57600080fd5b9088019060a0828b0312156200115157600080fd5b6200115b62000f0c565b8235828111156200116b57600080fd5b620011798c82860162000f84565b8252506020830135828111156200118f57600080fd5b6200119d8c82860162000f84565b602083015250604083013582811115620011b657600080fd5b620011c48c82860162000f84565b60408301525060608301356060820152608083013582811115620011e757600080fd5b620011f58c82860162000f84565b60808301525097506200120b60208a0162001019565b9650604089013595506200122260608a0162001032565b945060808901359150808211156200123957600080fd5b506200124889828a0162001045565b9250506200125960a0880162000e4c565b90509295509295509295565b60005b838110156200128257818101518382015260200162001268565b8381111562001292576000848401525b50505050565b60008151808452620012b281602086016020860162001265565b601f017fffffffffffffffffffffffffffffffffffffffffffffffffffffffffffffffe0169290920160200192915050565b600081518084526020808501945080840160005b838110156200133b578151805173ffffffffffffffffffffffffffffffffffffffff16885283015161ffff168388015260409096019590820190600101620012f8565b509495945050505050565b73ffffffffffffffffffffffffffffffffffffffff8816815260e060208201526000875160a060e08401526200138161018084018262001298565b905060208901517fffffffffffffffffffffffffffffffffffffffffffffffffffffffffffffff208085840301610100860152620013c0838362001298565b925060408b015191508085840301610120860152620013e0838362001298565b925060608b015161014086015260808b015191508085840301610160860152506200140c828262001298565b91505062001426604084018967ffffffffffffffff169052565b8660608401526200143d608084018761ffff169052565b82810360a0840152620014518186620012e4565b9150506200147760c083018473ffffffffffffffffffffffffffffffffffffffff169052565b98975050505050505050565b73ffffffffffffffffffffffffffffffffffffffff83168152604060208201526000620014b4604083018462001298565b949350505050565b815160009082906020808601845b838110156200150d578151805173ffffffffffffffffffffffffffffffffffffffff16865283015161ffff168386015260409094019390820190600101620014ca565b50929695505050505050565b7f416363657373436f6e74726f6c3a206163636f756e74200000000000000000008152600083516200155381601785016020880162001265565b7f206973206d697373696e6720726f6c652000000000000000000000000000000060179184019182015283516200159281602884016020880162001265565b01602801949350505050565b60208152600062000db3602083018462001298565b7f4e487b7100000000000000000000000000000000000000000000000000000000600052601160045260246000fd5b6000817fffffffffffffffffffffffffffffffffffffffffffffffffffffffffffffffff04831182151516156200161d576200161d620015b3565b500290565b60008219821115620016385762001638620015b3565b500190565b7f4e487b7100000000000000000000000000000000000000000000000000000000600052603260045260246000fd5b6000816200167e576200167e620015b3565b507fffffffffffffffffffffffffffffffffffffffffffffffffffffffffffffffff019056fe608060405260405162000a8438038062000a848339810160408190526200002691620004d4565b6200005360017fa3f0ad74e5423aebfd80d3ef4346578335a9a72aeaee59ff6cb3582b35133d51620005a2565b60008051602062000a3d83398151915214620000735762000073620005c8565b620000818282600062000089565b50506200064f565b62000094836200016e565b6040516001600160a01b038416907f1cf3b03a6cf19fa2baba4df148e9dcabedea7f8a5c07840e207e5c089be95d3e90600090a2600082511180620000d65750805b15620001695762000167836001600160a01b0316635c60da1b6040518163ffffffff1660e01b815260040160206040518083038186803b1580156200011a57600080fd5b505afa1580156200012f573d6000803e3d6000fd5b505050506040513d601f19601f82011682018060405250810190620001559190620005de565b836200031f60201b620000291760201c565b505b505050565b62000184816200034e60201b620000551760201c565b620001e45760405162461bcd60e51b815260206004820152602560248201527f455243313936373a206e657720626561636f6e206973206e6f74206120636f6e6044820152641d1c9858dd60da1b60648201526084015b60405180910390fd5b6200026e816001600160a01b0316635c60da1b6040518163ffffffff1660e01b815260040160206040518083038186803b1580156200022257600080fd5b505afa15801562000237573d6000803e3d6000fd5b505050506040513d601f19601f820116820180604052508101906200025d9190620005de565b6200034e60201b620000551760201c565b620002d55760405162461bcd60e51b815260206004820152603060248201527f455243313936373a20626561636f6e20696d706c656d656e746174696f6e206960448201526f1cc81b9bdd08184818dbdb9d1c9858dd60821b6064820152608401620001db565b80620002fe60008051602062000a3d83398151915260001b6200035460201b6200005b1760201c565b80546001600160a01b0319166001600160a01b039290921691909117905550565b606062000347838360405180606001604052806027815260200162000a5d6027913962000357565b9392505050565b3b151590565b90565b6060833b620003b85760405162461bcd60e51b815260206004820152602660248201527f416464726573733a2064656c65676174652063616c6c20746f206e6f6e2d636f6044820152651b9d1c9858dd60d21b6064820152608401620001db565b600080856001600160a01b031685604051620003d59190620005fc565b600060405180830381855af49150503d806000811462000412576040519150601f19603f3d011682016040523d82523d6000602084013e62000417565b606091505b5090925090506200042a82828662000434565b9695505050505050565b606083156200044557508162000347565b825115620004565782518084602001fd5b8160405162461bcd60e51b8152600401620001db91906200061a565b80516001600160a01b03811681146200048a57600080fd5b919050565b634e487b7160e01b600052604160045260246000fd5b60005b83811015620004c2578181015183820152602001620004a8565b83811115620001675750506000910152565b60008060408385031215620004e857600080fd5b620004f38362000472565b60208401519092506001600160401b03808211156200051157600080fd5b818501915085601f8301126200052657600080fd5b8151818111156200053b576200053b6200048f565b604051601f8201601f19908116603f011681019083821181831017156200056657620005666200048f565b816040528281528860208487010111156200058057600080fd5b62000593836020830160208801620004a5565b80955050505050509250929050565b600082821015620005c357634e487b7160e01b600052601160045260246000fd5b500390565b634e487b7160e01b600052600160045260246000fd5b600060208284031215620005f157600080fd5b620003478262000472565b6000825162000610818460208701620004a5565b9190910192915050565b60208152600082518060208401526200063b816040850160208701620004a5565b601f01601f19169190910160400192915050565b6103de806200065f6000396000f3fe60806040523661001357610011610017565b005b6100115b61002761002261005e565b610120565b565b606061004e838360405180606001604052806027815260200161038260279139610144565b9392505050565b3b151590565b90565b600061009e7fa3f0ad74e5423aebfd80d3ef4346578335a9a72aeaee59ff6cb3582b35133d505473ffffffffffffffffffffffffffffffffffffffff1690565b73ffffffffffffffffffffffffffffffffffffffff16635c60da1b6040518163ffffffff1660e01b815260040160206040518083038186803b1580156100e357600080fd5b505afa1580156100f7573d6000803e3d6000fd5b505050506040513d601f19601f8201168201806040525081019061011b91906102ae565b905090565b3660008037600080366000845af43d6000803e80801561013f573d6000f35b3d6000fd5b6060833b6101d9576040517f08c379a000000000000000000000000000000000000000000000000000000000815260206004820152602660248201527f416464726573733a2064656c65676174652063616c6c20746f206e6f6e2d636f60448201527f6e7472616374000000000000000000000000000000000000000000000000000060648201526084015b60405180910390fd5b6000808573ffffffffffffffffffffffffffffffffffffffff16856040516102019190610314565b600060405180830381855af49150503d806000811461023c576040519150601f19603f3d011682016040523d82523d6000602084013e610241565b606091505b509150915061025182828661025b565b9695505050505050565b6060831561026a57508161004e565b82511561027a5782518084602001fd5b816040517f08c379a00000000000000000000000000000000000000000000000000000000081526004016101d09190610330565b6000602082840312156102c057600080fd5b815173ffffffffffffffffffffffffffffffffffffffff8116811461004e57600080fd5b60005b838110156102ff5781810151838201526020016102e7565b8381111561030e576000848401525b50505050565b600082516103268184602087016102e4565b9190910192915050565b602081526000825180602084015261034f8160408501602087016102e4565b601f017fffffffffffffffffffffffffffffffffffffffffffffffffffffffffffffffe016919091016040019291505056fe416464726573733a206c6f772d6c6576656c2064656c65676174652063616c6c206661696c6564a2646970667358221220686a5bf81c28b686f5132276ec3dd98e8b598f84793e153ef717890e2544459764736f6c63430008090033a3f0ad74e5423aebfd80d3ef4346578335a9a72aeaee59ff6cb3582b35133d50416464726573733a206c6f772d6c6576656c2064656c65676174652063616c6c206661696c6564a2646970667358221220e097fc3506cfaa686e21eece11d569ec583119242803bff9d5bda7bcc765e0d264736f6c63430008090033608060405234801561001057600080fd5b506040516106d73803806106d783398101604081905261002f91610148565b61003833610047565b61004181610097565b50610178565b600080546001600160a01b038381166001600160a01b0319831681178455604051919092169283917f8be0079c531659141344cd1fd0a4f28419497f9722a3daafe3b4186f6b6457e09190a35050565b6100aa8161014260201b61038d1760201c565b6101205760405162461bcd60e51b815260206004820152603360248201527f5570677261646561626c65426561636f6e3a20696d706c656d656e746174696f60448201527f6e206973206e6f74206120636f6e747261637400000000000000000000000000606482015260840160405180910390fd5b600180546001600160a01b0319166001600160a01b0392909216919091179055565b3b151590565b60006020828403121561015a57600080fd5b81516001600160a01b038116811461017157600080fd5b9392505050565b610550806101876000396000f3fe608060405234801561001057600080fd5b50600436106100675760003560e01c8063715018a611610050578063715018a6146100c45780638da5cb5b146100cc578063f2fde38b146100ea57600080fd5b80633659cfe61461006c5780635c60da1b14610081575b600080fd5b61007f61007a3660046104dd565b6100fd565b005b60015473ffffffffffffffffffffffffffffffffffffffff165b60405173ffffffffffffffffffffffffffffffffffffffff909116815260200160405180910390f35b61007f6101d0565b60005473ffffffffffffffffffffffffffffffffffffffff1661009b565b61007f6100f83660046104dd565b61025d565b60005473ffffffffffffffffffffffffffffffffffffffff163314610183576040517f08c379a000000000000000000000000000000000000000000000000000000000815260206004820181905260248201527f4f776e61626c653a2063616c6c6572206973206e6f7420746865206f776e657260448201526064015b60405180910390fd5b61018c81610393565b60405173ffffffffffffffffffffffffffffffffffffffff8216907fbc7cd75a20ee27fd9adebab32041f755214dbc6bffa90cc0225b39da2e5c2d3b90600090a250565b60005473ffffffffffffffffffffffffffffffffffffffff163314610251576040517f08c379a000000000000000000000000000000000000000000000000000000000815260206004820181905260248201527f4f776e61626c653a2063616c6c6572206973206e6f7420746865206f776e6572604482015260640161017a565b61025b6000610468565b565b60005473ffffffffffffffffffffffffffffffffffffffff1633146102de576040517f08c379a000000000000000000000000000000000000000000000000000000000815260206004820181905260248201527f4f776e61626c653a2063616c6c6572206973206e6f7420746865206f776e6572604482015260640161017a565b73ffffffffffffffffffffffffffffffffffffffff8116610381576040517f08c379a000000000000000000000000000000000000000000000000000000000815260206004820152602660248201527f4f776e61626c653a206e6577206f776e657220697320746865207a65726f206160448201527f6464726573730000000000000000000000000000000000000000000000000000606482015260840161017a565b61038a81610468565b50565b3b151590565b803b610421576040517f08c379a000000000000000000000000000000000000000000000000000000000815260206004820152603360248201527f5570677261646561626c65426561636f6e3a20696d706c656d656e746174696f60448201527f6e206973206e6f74206120636f6e747261637400000000000000000000000000606482015260840161017a565b600180547fffffffffffffffffffffffff00000000000000000000000000000000000000001673ffffffffffffffffffffffffffffffffffffffff92909216919091179055565b6000805473ffffffffffffffffffffffffffffffffffffffff8381167fffffffffffffffffffffffff0000000000000000000000000000000000000000831681178455604051919092169283917f8be0079c531659141344cd1fd0a4f28419497f9722a3daafe3b4186f6b6457e09190a35050565b6000602082840312156104ef57600080fd5b813573ffffffffffffffffffffffffffffffffffffffff8116811461051357600080fd5b939250505056fea26469706673582212209be24b8a8e4fcfb7fcc0b6caf7874da4d989e054ee30dfb583c4fe6b95bdeea364736f6c63430008090033",
  "devdoc": {
    "events": {
      "CreatedRewards(uint256,address,(address,uint16)[],uint256,address)": {
        "params": {
          "contractAddress": "the address of the contract representing the editions",
          "creator": "the editions' owner",
          "index": "the identifier of the newly created editions contract",
          "size": "the number of tokens this editions contract consists of"
        }
      }
    },
    "kind": "dev",
    "methods": {
      "constructor": {
        "params": {
          "implementation": "implementation contract to clone"
        }
      },
      "create((string,string,string,bytes32,string),uint64,uint256,uint16,(address,uint16)[],address)": {
        "params": {
          "allowancesRef": "address of the allowances holding contract",
          "info": "name of editions, used in the title as \"$name $tokenId/$size\"",
          "price": "price for sale in wei",
          "royalties": "perpetual royalties paid to the creator upon token selling",
          "shares": "array of tuples listing the shareholders and their respective shares in bps (one per each shareholder)",
          "size": "number of NFTs that can be minted from this contract: set to 0 for unbound"
        },
        "returns": {
          "_0": "the address of the editions contract created"
        }
      },
      "get(uint256)": {
        "params": {
          "editionId": "identifier of editions contract to retrieve"
        },
        "returns": {
          "_0": "the editions contract"
        }
      },
      "getRoleAdmin(bytes32)": {
        "details": "Returns the admin role that controls `role`. See {grantRole} and {revokeRole}. To change a role's admin, use {_setRoleAdmin}."
      },
      "grantRole(bytes32,address)": {
        "details": "Grants `role` to `account`. If `account` had not been already granted `role`, emits a {RoleGranted} event. Requirements: - the caller must have ``role``'s admin role."
      },
      "hasRole(bytes32,address)": {
        "details": "Returns `true` if `account` has been granted `role`."
      },
      "instances()": {
        "returns": {
          "_0": "the number of edition contracts created so far through this factory"
        }
      },
      "renounceRole(bytes32,address)": {
        "details": "Revokes `role` from the calling account. Roles are often managed via {grantRole} and {revokeRole}: this function's purpose is to provide a mechanism for accounts to lose their privileges if they are compromised (such as when a trusted device is misplaced). If the calling account had been revoked `role`, emits a {RoleRevoked} event. Requirements: - the caller must be `account`."
      },
      "revokeRole(bytes32,address)": {
        "details": "Revokes `role` from `account`. If `account` had been granted `role`, emits a {RoleRevoked} event. Requirements: - the caller must have ``role``'s admin role."
      },
      "supportsInterface(bytes4)": {
        "details": "See {IERC165-supportsInterface}."
      }
    },
    "version": 1
  },
  "userdoc": {
    "events": {
      "CreatedRewards(uint256,address,(address,uint16)[],uint256,address)": {
        "notice": "Emitted when an edition is created reserving the corresponding token IDs. "
      }
    },
    "kind": "user",
    "methods": {
      "constructor": {
        "notice": "Initializes the factory with the address of the implementation contract template "
      },
      "create((string,string,string,bytes32,string),uint64,uint256,uint16,(address,uint16)[],address)": {
        "notice": "Creates a new editions contract as a factory with a deterministic address, returning the address of the newly created contract. Important: None of these fields can be changed after calling this operation, with the sole exception of the contentUrl field which must refer to a content having the same hash. "
      },
      "get(uint256)": {
        "notice": "Gets an editions contract given the unique identifier. "
      }
    },
    "version": 1
  },
  "storageLayout": {
    "storage": [
      {
        "astId": 563,
        "contract": "contracts/MintableRewardsFactory.sol:MintableRewardsFactory",
        "label": "_initialized",
        "offset": 0,
        "slot": "0",
        "type": "t_bool"
      },
      {
        "astId": 566,
        "contract": "contracts/MintableRewardsFactory.sol:MintableRewardsFactory",
        "label": "_initializing",
        "offset": 1,
        "slot": "0",
        "type": "t_bool"
      },
      {
        "astId": 1913,
        "contract": "contracts/MintableRewardsFactory.sol:MintableRewardsFactory",
        "label": "__gap",
        "offset": 0,
        "slot": "1",
        "type": "t_array(t_uint256)50_storage"
      },
      {
        "astId": 2236,
        "contract": "contracts/MintableRewardsFactory.sol:MintableRewardsFactory",
        "label": "__gap",
        "offset": 0,
        "slot": "51",
        "type": "t_array(t_uint256)50_storage"
      },
      {
        "astId": 48,
        "contract": "contracts/MintableRewardsFactory.sol:MintableRewardsFactory",
        "label": "_roles",
        "offset": 0,
        "slot": "101",
        "type": "t_mapping(t_bytes32,t_struct(RoleData)43_storage)"
      },
      {
        "astId": 335,
        "contract": "contracts/MintableRewardsFactory.sol:MintableRewardsFactory",
        "label": "__gap",
        "offset": 0,
        "slot": "102",
        "type": "t_array(t_uint256)49_storage"
      },
      {
        "astId": 4720,
        "contract": "contracts/MintableRewardsFactory.sol:MintableRewardsFactory",
        "label": "_contents",
        "offset": 0,
        "slot": "151",
        "type": "t_mapping(t_bytes32,t_bool)"
      },
      {
        "astId": 4723,
        "contract": "contracts/MintableRewardsFactory.sol:MintableRewardsFactory",
        "label": "_counter",
        "offset": 0,
        "slot": "152",
        "type": "t_struct(Counter)1920_storage"
      },
      {
        "astId": 4727,
        "contract": "contracts/MintableRewardsFactory.sol:MintableRewardsFactory",
        "label": "_editions",
        "offset": 0,
        "slot": "153",
        "type": "t_mapping(t_uint256,t_address)"
      }
    ],
    "types": {
      "t_address": {
        "encoding": "inplace",
        "label": "address",
        "numberOfBytes": "20"
      },
      "t_array(t_uint256)49_storage": {
        "base": "t_uint256",
        "encoding": "inplace",
        "label": "uint256[49]",
        "numberOfBytes": "1568"
      },
      "t_array(t_uint256)50_storage": {
        "base": "t_uint256",
        "encoding": "inplace",
        "label": "uint256[50]",
        "numberOfBytes": "1600"
      },
      "t_bool": {
        "encoding": "inplace",
        "label": "bool",
        "numberOfBytes": "1"
      },
      "t_bytes32": {
        "encoding": "inplace",
        "label": "bytes32",
        "numberOfBytes": "32"
      },
      "t_mapping(t_address,t_bool)": {
        "encoding": "mapping",
        "key": "t_address",
        "label": "mapping(address => bool)",
        "numberOfBytes": "32",
        "value": "t_bool"
      },
      "t_mapping(t_bytes32,t_bool)": {
        "encoding": "mapping",
        "key": "t_bytes32",
        "label": "mapping(bytes32 => bool)",
        "numberOfBytes": "32",
        "value": "t_bool"
      },
      "t_mapping(t_bytes32,t_struct(RoleData)43_storage)": {
        "encoding": "mapping",
        "key": "t_bytes32",
        "label": "mapping(bytes32 => struct AccessControlUpgradeable.RoleData)",
        "numberOfBytes": "32",
        "value": "t_struct(RoleData)43_storage"
      },
      "t_mapping(t_uint256,t_address)": {
        "encoding": "mapping",
        "key": "t_uint256",
        "label": "mapping(uint256 => address)",
        "numberOfBytes": "32",
        "value": "t_address"
      },
      "t_struct(Counter)1920_storage": {
        "encoding": "inplace",
        "label": "struct CountersUpgradeable.Counter",
        "members": [
          {
            "astId": 1919,
            "contract": "contracts/MintableRewardsFactory.sol:MintableRewardsFactory",
            "label": "_value",
            "offset": 0,
            "slot": "0",
            "type": "t_uint256"
          }
        ],
        "numberOfBytes": "32"
      },
      "t_struct(RoleData)43_storage": {
        "encoding": "inplace",
        "label": "struct AccessControlUpgradeable.RoleData",
        "members": [
          {
            "astId": 40,
            "contract": "contracts/MintableRewardsFactory.sol:MintableRewardsFactory",
            "label": "members",
            "offset": 0,
            "slot": "0",
            "type": "t_mapping(t_address,t_bool)"
          },
          {
            "astId": 42,
            "contract": "contracts/MintableRewardsFactory.sol:MintableRewardsFactory",
            "label": "adminRole",
            "offset": 0,
            "slot": "1",
            "type": "t_bytes32"
          }
        ],
        "numberOfBytes": "64"
      },
      "t_uint256": {
        "encoding": "inplace",
        "label": "uint256",
        "numberOfBytes": "32"
      }
    }
  }
}