{
  "address": "0xbeFE88f41D25D130388AE35CDa78d77E9fc93c23",
  "abi": [
    {
      "inputs": [],
      "stateMutability": "nonpayable",
      "type": "constructor"
    },
    {
      "anonymous": false,
      "inputs": [
        {
          "indexed": true,
          "internalType": "address",
          "name": "owner",
          "type": "address"
        },
        {
          "indexed": true,
          "internalType": "address",
          "name": "approved",
          "type": "address"
        },
        {
          "indexed": true,
          "internalType": "uint256",
          "name": "tokenId",
          "type": "uint256"
        }
      ],
      "name": "Approval",
      "type": "event"
    },
    {
      "anonymous": false,
      "inputs": [
        {
          "indexed": true,
          "internalType": "address",
          "name": "owner",
          "type": "address"
        },
        {
          "indexed": true,
          "internalType": "address",
          "name": "operator",
          "type": "address"
        },
        {
          "indexed": false,
          "internalType": "bool",
          "name": "approved",
          "type": "bool"
        }
      ],
      "name": "ApprovalForAll",
      "type": "event"
    },
    {
      "anonymous": false,
      "inputs": [
        {
          "indexed": false,
          "internalType": "uint256",
          "name": "price",
          "type": "uint256"
        },
        {
          "indexed": false,
          "internalType": "address",
          "name": "owner",
          "type": "address"
        }
      ],
      "name": "EditionSold",
      "type": "event"
    },
    {
      "anonymous": false,
      "inputs": [
        {
          "indexed": true,
          "internalType": "address",
          "name": "previousOwner",
          "type": "address"
        },
        {
          "indexed": true,
          "internalType": "address",
          "name": "newOwner",
          "type": "address"
        }
      ],
      "name": "OwnershipTransferred",
      "type": "event"
    },
    {
      "anonymous": false,
      "inputs": [
        {
          "indexed": false,
          "internalType": "uint256",
          "name": "amount",
          "type": "uint256"
        }
      ],
      "name": "PriceChanged",
      "type": "event"
    },
    {
      "anonymous": false,
      "inputs": [
        {
          "indexed": false,
          "internalType": "address",
          "name": "to",
          "type": "address"
        },
        {
          "indexed": false,
          "internalType": "uint256",
          "name": "amount",
          "type": "uint256"
        }
      ],
      "name": "SharesPaid",
      "type": "event"
    },
    {
      "anonymous": false,
      "inputs": [
        {
          "indexed": true,
          "internalType": "address",
          "name": "from",
          "type": "address"
        },
        {
          "indexed": true,
          "internalType": "address",
          "name": "to",
          "type": "address"
        },
        {
          "indexed": true,
          "internalType": "uint256",
          "name": "tokenId",
          "type": "uint256"
        }
      ],
      "name": "Transfer",
      "type": "event"
    },
    {
      "inputs": [
        {
          "internalType": "uint256",
          "name": "start",
          "type": "uint256"
        },
        {
          "internalType": "uint256",
          "name": "end",
          "type": "uint256"
        }
      ],
      "name": "airdrop",
      "outputs": [
        {
          "internalType": "uint256",
          "name": "",
          "type": "uint256"
        }
      ],
      "stateMutability": "nonpayable",
      "type": "function"
    },
    {
      "inputs": [
        {
          "internalType": "bool",
          "name": "allow",
          "type": "bool"
        }
      ],
      "name": "allowPublic",
      "outputs": [],
      "stateMutability": "nonpayable",
      "type": "function"
    },
    {
      "inputs": [
        {
          "internalType": "address",
          "name": "minter",
          "type": "address"
        }
      ],
      "name": "allowanceOf",
      "outputs": [
        {
          "internalType": "uint16",
          "name": "",
          "type": "uint16"
        }
      ],
      "stateMutability": "view",
      "type": "function"
    },
    {
      "inputs": [],
      "name": "allowancesRef",
      "outputs": [
        {
          "internalType": "address",
          "name": "",
          "type": "address"
        }
      ],
      "stateMutability": "view",
      "type": "function"
    },
    {
      "inputs": [
        {
          "internalType": "address",
          "name": "to",
          "type": "address"
        },
        {
          "internalType": "uint256",
          "name": "tokenId",
          "type": "uint256"
        }
      ],
      "name": "approve",
      "outputs": [],
      "stateMutability": "nonpayable",
      "type": "function"
    },
    {
      "inputs": [
        {
          "internalType": "address",
          "name": "owner",
          "type": "address"
        }
      ],
      "name": "balanceOf",
      "outputs": [
        {
          "internalType": "uint256",
          "name": "",
          "type": "uint256"
        }
      ],
      "stateMutability": "view",
      "type": "function"
    },
    {
      "inputs": [
        {
          "internalType": "uint256",
          "name": "tokenId",
          "type": "uint256"
        }
      ],
      "name": "burn",
      "outputs": [],
      "stateMutability": "nonpayable",
      "type": "function"
    },
    {
      "inputs": [],
      "name": "contentHash",
      "outputs": [
        {
          "internalType": "bytes32",
          "name": "",
          "type": "bytes32"
        }
      ],
      "stateMutability": "view",
      "type": "function"
    },
    {
      "inputs": [],
      "name": "contentUrl",
      "outputs": [
        {
          "internalType": "string",
          "name": "",
          "type": "string"
        }
      ],
      "stateMutability": "view",
      "type": "function"
    },
    {
      "inputs": [
        {
          "internalType": "uint256",
          "name": "tokenId",
          "type": "uint256"
        }
      ],
      "name": "getApproved",
      "outputs": [
        {
          "internalType": "address",
          "name": "",
          "type": "address"
        }
      ],
      "stateMutability": "view",
      "type": "function"
    },
    {
      "inputs": [],
      "name": "getURI",
      "outputs": [
        {
          "internalType": "string",
          "name": "",
          "type": "string"
        },
        {
          "internalType": "bytes32",
          "name": "",
          "type": "bytes32"
        },
        {
          "internalType": "string",
          "name": "",
          "type": "string"
        }
      ],
      "stateMutability": "view",
      "type": "function"
    },
    {
      "inputs": [
        {
          "internalType": "address",
          "name": "_owner",
          "type": "address"
        },
        {
          "components": [
            {
              "internalType": "string",
              "name": "name",
              "type": "string"
            },
            {
              "internalType": "string",
              "name": "symbol",
              "type": "string"
            },
            {
              "internalType": "string",
              "name": "contentUrl",
              "type": "string"
            },
            {
              "internalType": "bytes32",
              "name": "contentHash",
              "type": "bytes32"
            },
            {
              "internalType": "string",
              "name": "metadataUrl",
              "type": "string"
            }
          ],
          "internalType": "struct MintableRewards.Info",
          "name": "_info",
          "type": "tuple"
        },
        {
          "internalType": "uint64",
          "name": "_size",
          "type": "uint64"
        },
        {
          "internalType": "uint256",
          "name": "_price",
          "type": "uint256"
        },
        {
          "internalType": "uint16",
          "name": "_royalties",
          "type": "uint16"
        },
        {
          "components": [
            {
              "internalType": "address payable",
              "name": "holder",
              "type": "address"
            },
            {
              "internalType": "uint16",
              "name": "bps",
              "type": "uint16"
            }
          ],
          "internalType": "struct MintableRewards.Shares[]",
          "name": "_shares",
          "type": "tuple[]"
        },
        {
          "internalType": "address",
          "name": "_allowancesRef",
          "type": "address"
        }
      ],
      "name": "initialize",
      "outputs": [],
      "stateMutability": "nonpayable",
      "type": "function"
    },
    {
      "inputs": [
        {
          "internalType": "address",
          "name": "owner",
          "type": "address"
        },
        {
          "internalType": "address",
          "name": "operator",
          "type": "address"
        }
      ],
      "name": "isApprovedForAll",
      "outputs": [
        {
          "internalType": "bool",
          "name": "",
          "type": "bool"
        }
      ],
      "stateMutability": "view",
      "type": "function"
    },
    {
      "inputs": [],
      "name": "metadataUrl",
      "outputs": [
        {
          "internalType": "string",
          "name": "",
          "type": "string"
        }
      ],
      "stateMutability": "view",
      "type": "function"
    },
    {
      "inputs": [],
      "name": "mint",
      "outputs": [
        {
          "internalType": "uint256",
          "name": "",
          "type": "uint256"
        }
      ],
      "stateMutability": "nonpayable",
      "type": "function"
    },
    {
      "inputs": [
        {
          "internalType": "address[]",
          "name": "recipients",
          "type": "address[]"
        }
      ],
      "name": "mintAndTransfer",
      "outputs": [
        {
          "internalType": "uint256",
          "name": "",
          "type": "uint256"
        }
      ],
      "stateMutability": "nonpayable",
      "type": "function"
    },
    {
      "inputs": [],
      "name": "mintable",
      "outputs": [
        {
          "internalType": "uint256",
          "name": "",
          "type": "uint256"
        }
      ],
      "stateMutability": "view",
      "type": "function"
    },
    {
      "inputs": [],
      "name": "name",
      "outputs": [
        {
          "internalType": "string",
          "name": "",
          "type": "string"
        }
      ],
      "stateMutability": "view",
      "type": "function"
    },
    {
      "inputs": [],
      "name": "owner",
      "outputs": [
        {
          "internalType": "address",
          "name": "",
          "type": "address"
        }
      ],
      "stateMutability": "view",
      "type": "function"
    },
    {
      "inputs": [
        {
          "internalType": "uint256",
          "name": "tokenId",
          "type": "uint256"
        }
      ],
      "name": "ownerOf",
      "outputs": [
        {
          "internalType": "address",
          "name": "",
          "type": "address"
        }
      ],
      "stateMutability": "view",
      "type": "function"
    },
    {
      "inputs": [],
      "name": "price",
      "outputs": [
        {
          "internalType": "uint256",
          "name": "",
          "type": "uint256"
        }
      ],
      "stateMutability": "view",
      "type": "function"
    },
    {
      "inputs": [],
      "name": "purchase",
      "outputs": [
        {
          "internalType": "uint256",
          "name": "",
          "type": "uint256"
        }
      ],
      "stateMutability": "payable",
      "type": "function"
    },
    {
      "inputs": [],
      "name": "renounceOwnership",
      "outputs": [],
      "stateMutability": "nonpayable",
      "type": "function"
    },
    {
      "inputs": [],
      "name": "royalties",
      "outputs": [
        {
          "internalType": "uint16",
          "name": "",
          "type": "uint16"
        }
      ],
      "stateMutability": "view",
      "type": "function"
    },
    {
      "inputs": [
        {
          "internalType": "uint256",
          "name": "",
          "type": "uint256"
        },
        {
          "internalType": "uint256",
          "name": "_value",
          "type": "uint256"
        }
      ],
      "name": "royaltyInfo",
      "outputs": [
        {
          "internalType": "address",
          "name": "receiver",
          "type": "address"
        },
        {
          "internalType": "uint256",
          "name": "royaltyAmount",
          "type": "uint256"
        }
      ],
      "stateMutability": "view",
      "type": "function"
    },
    {
      "inputs": [
        {
          "internalType": "address",
          "name": "from",
          "type": "address"
        },
        {
          "internalType": "address",
          "name": "to",
          "type": "address"
        },
        {
          "internalType": "uint256",
          "name": "tokenId",
          "type": "uint256"
        }
      ],
      "name": "safeTransferFrom",
      "outputs": [],
      "stateMutability": "nonpayable",
      "type": "function"
    },
    {
      "inputs": [
        {
          "internalType": "address",
          "name": "from",
          "type": "address"
        },
        {
          "internalType": "address",
          "name": "to",
          "type": "address"
        },
        {
          "internalType": "uint256",
          "name": "tokenId",
          "type": "uint256"
        },
        {
          "internalType": "bytes",
          "name": "_data",
          "type": "bytes"
        }
      ],
      "name": "safeTransferFrom",
      "outputs": [],
      "stateMutability": "nonpayable",
      "type": "function"
    },
    {
      "inputs": [
        {
          "internalType": "address",
          "name": "operator",
          "type": "address"
        },
        {
          "internalType": "bool",
          "name": "approved",
          "type": "bool"
        }
      ],
      "name": "setApprovalForAll",
      "outputs": [],
      "stateMutability": "nonpayable",
      "type": "function"
    },
    {
      "inputs": [
        {
          "internalType": "uint256",
          "name": "_wei",
          "type": "uint256"
        }
      ],
      "name": "setPrice",
      "outputs": [],
      "stateMutability": "nonpayable",
      "type": "function"
    },
    {
      "inputs": [],
      "name": "shake",
      "outputs": [],
      "stateMutability": "nonpayable",
      "type": "function"
    },
    {
      "inputs": [
        {
          "internalType": "address",
          "name": "",
          "type": "address"
        }
      ],
      "name": "shares",
      "outputs": [
        {
          "internalType": "uint16",
          "name": "",
          "type": "uint16"
        }
      ],
      "stateMutability": "view",
      "type": "function"
    },
    {
      "inputs": [],
      "name": "size",
      "outputs": [
        {
          "internalType": "uint64",
          "name": "",
          "type": "uint64"
        }
      ],
      "stateMutability": "view",
      "type": "function"
    },
    {
      "inputs": [
        {
          "internalType": "bytes4",
          "name": "interfaceId",
          "type": "bytes4"
        }
      ],
      "name": "supportsInterface",
      "outputs": [
        {
          "internalType": "bool",
          "name": "",
          "type": "bool"
        }
      ],
      "stateMutability": "view",
      "type": "function"
    },
    {
      "inputs": [],
      "name": "symbol",
      "outputs": [
        {
          "internalType": "string",
          "name": "",
          "type": "string"
        }
      ],
      "stateMutability": "view",
      "type": "function"
    },
    {
      "inputs": [
        {
          "internalType": "uint256",
          "name": "tokenId",
          "type": "uint256"
        }
      ],
      "name": "tokenURI",
      "outputs": [
        {
          "internalType": "string",
          "name": "",
          "type": "string"
        }
      ],
      "stateMutability": "view",
      "type": "function"
    },
    {
      "inputs": [],
      "name": "totalSupply",
      "outputs": [
        {
          "internalType": "uint256",
          "name": "",
          "type": "uint256"
        }
      ],
      "stateMutability": "view",
      "type": "function"
    },
    {
      "inputs": [
        {
          "internalType": "address",
          "name": "from",
          "type": "address"
        },
        {
          "internalType": "address",
          "name": "to",
          "type": "address"
        },
        {
          "internalType": "uint256",
          "name": "tokenId",
          "type": "uint256"
        }
      ],
      "name": "transferFrom",
      "outputs": [],
      "stateMutability": "nonpayable",
      "type": "function"
    },
    {
      "inputs": [
        {
          "internalType": "address",
          "name": "newOwner",
          "type": "address"
        }
      ],
      "name": "transferOwnership",
      "outputs": [],
      "stateMutability": "nonpayable",
      "type": "function"
    },
    {
      "inputs": [
        {
          "internalType": "address",
          "name": "_allowancesRef",
          "type": "address"
        }
      ],
      "name": "updateAllowancesRef",
      "outputs": [],
      "stateMutability": "nonpayable",
      "type": "function"
    },
    {
      "inputs": [
        {
          "internalType": "string",
          "name": "_contentUrl",
          "type": "string"
        },
        {
          "internalType": "string",
          "name": "_metadataUrl",
          "type": "string"
        }
      ],
      "name": "updateEditionsURLs",
      "outputs": [],
      "stateMutability": "nonpayable",
      "type": "function"
    },
    {
      "inputs": [],
      "name": "withdraw",
      "outputs": [],
      "stateMutability": "nonpayable",
      "type": "function"
    },
    {
      "inputs": [
        {
          "internalType": "address payable",
          "name": "_account",
          "type": "address"
        }
      ],
      "name": "withdrawable",
      "outputs": [
        {
          "internalType": "uint256",
          "name": "",
          "type": "uint256"
        }
      ],
      "stateMutability": "view",
      "type": "function"
    }
  ],
  "transactionHash": "0xbf96567bb800f035ea328d38aed4173460c7d4ada19fd7ed1f34f1999ee83103",
  "args": [],
  "solcInputHash": "4919ddb1008213e29fb966fc2f5423ed",
  "bytecode": "0x60806040523480156200001157600080fd5b50600054610100900460ff16806200002c575060005460ff16155b620000945760405162461bcd60e51b815260206004820152602e60248201527f496e697469616c697a61626c653a20636f6e747261637420697320616c72656160448201526d191e481a5b9a5d1a585b1a5e995960921b606482015260840160405180910390fd5b600054610100900460ff16158015620000b7576000805461ffff19166101011790555b8015620000ca576000805461ff00191690555b5061516080620000db6000396000f3fe6080604052600436106102d15760003560e01c806379847b9911610179578063b88d4fde116100d6578063ce7c2ac21161008a578063f053dc5c11610064578063f053dc5c14610827578063f0553be71461084e578063f2fde38b1461086e57600080fd5b8063ce7c2ac214610780578063d7b97ef6146107b1578063e985e9c5146107d157600080fd5b8063c87b56dd116100bb578063c87b56dd1461072b578063cd29c71a1461074b578063ce513b6f1461076057600080fd5b8063b88d4fde146106d8578063bfd2385e146106f857600080fd5b8063949d225d1161012d5780639b8581d0116101125780639b8581d014610682578063a035b1fe146106a2578063a22cb465146106b857600080fd5b8063949d225d1461063357806395d89b411461066d57600080fd5b8063850710c31161015e578063850710c3146105e95780638da5cb5b146105fe57806391b7f5ed1461061357600080fd5b806379847b9914610599578063825f98d4146105d457600080fd5b80633ccfd60b11610232578063646c2e33116101e657806370a08231116101c057806370a0823114610540578063715018a6146105605780637754305c1461057557600080fd5b8063646c2e331461050257806364edfbf0146105185780636f243a9c1461052057600080fd5b806342966c681161021757806342966c68146104ad5780634bf365df146104cd5780636352211e146104e257600080fd5b80633ccfd60b1461047857806342842e0e1461048d57600080fd5b806318160ddd1161028957806323b872dd1161026e57806323b872dd146103ec5780632a55205a1461040c5780632add8f5b1461045857600080fd5b806318160ddd146103b757806318f0043f146103cc57600080fd5b8063081812fc116102ba578063081812fc1461032d578063095ea7b3146103725780631249c58b1461039457600080fd5b806301ffc9a7146102d657806306fdde031461030b575b600080fd5b3480156102e257600080fd5b506102f66102f136600461457e565b61088e565b60405190151581526020015b60405180910390f35b34801561031757600080fd5b506103206108ea565b6040516103029190614611565b34801561033957600080fd5b5061034d610348366004614624565b61097c565b60405173ffffffffffffffffffffffffffffffffffffffff9091168152602001610302565b34801561037e57600080fd5b5061039261038d36600461466f565b610a5b565b005b3480156103a057600080fd5b506103a9610be8565b604051908152602001610302565b3480156103c357600080fd5b506103a9610d2c565b3480156103d857600080fd5b506103926103e73660046148fc565b610d48565b3480156103f857600080fd5b50610392610407366004614a52565b611267565b34801561041857600080fd5b5061042c610427366004614a93565b611309565b6040805173ffffffffffffffffffffffffffffffffffffffff9093168352602083019190915201610302565b34801561046457600080fd5b50610392610473366004614ab5565b611383565b34801561048457600080fd5b506103926114c6565b34801561049957600080fd5b506103926104a8366004614a52565b6114d1565b3480156104b957600080fd5b506103926104c8366004614624565b6114ec565b3480156104d957600080fd5b506103a9611567565b3480156104ee57600080fd5b5061034d6104fd366004614624565b6115bf565b34801561050e57600080fd5b506103a960cb5481565b6103a9611671565b34801561052c57600080fd5b506103a961053b366004614a93565b6117e9565b34801561054c57600080fd5b506103a961055b366004614ab5565b611cad565b34801561056c57600080fd5b50610392611d7b565b34801561058157600080fd5b5061058a611e7f565b60405161030293929190614ad2565b3480156105a557600080fd5b5060cd5461034d906a0100000000000000000000900473ffffffffffffffffffffffffffffffffffffffff1681565b3480156105e057600080fd5b50610392611faf565b3480156105f557600080fd5b5061032061200b565b34801561060a57600080fd5b5061034d612099565b34801561061f57600080fd5b5061039261062e366004614624565b6120ba565b34801561063f57600080fd5b5060cd546106549067ffffffffffffffff1681565b60405167ffffffffffffffff9091168152602001610302565b34801561067957600080fd5b5061032061217b565b34801561068e57600080fd5b5061039261069d366004614b17565b61218a565b3480156106ae57600080fd5b506103a960cf5481565b3480156106c457600080fd5b506103926106d3366004614b32565b61227c565b3480156106e457600080fd5b506103926106f3366004614b67565b61228b565b34801561070457600080fd5b50610718610713366004614ab5565b612333565b60405161ffff9091168152602001610302565b34801561073757600080fd5b50610320610746366004614624565b612456565b34801561075757600080fd5b50610320612516565b34801561076c57600080fd5b506103a961077b366004614ab5565b612523565b34801561078c57600080fd5b5061071861079b366004614ab5565b60d16020526000908152604090205461ffff1681565b3480156107bd57600080fd5b506103a96107cc366004614be7565b612597565b3480156107dd57600080fd5b506102f66107ec366004614c81565b73ffffffffffffffffffffffffffffffffffffffff9182166000908152606a6020908152604080832093909416825291909152205460ff1690565b34801561083357600080fd5b5060cd546107189068010000000000000000900461ffff1681565b34801561085a57600080fd5b50610392610869366004614cba565b61267a565b34801561087a57600080fd5b50610392610889366004614ab5565b6127fd565b60007f2a55205a000000000000000000000000000000000000000000000000000000007fffffffff00000000000000000000000000000000000000000000000000000000831614806108e457506108e482612a1b565b92915050565b6060606580546108f990614d1e565b80601f016020809104026020016040519081016040528092919081815260200182805461092590614d1e565b80156109725780601f1061094757610100808354040283529160200191610972565b820191906000526020600020905b81548152906001019060200180831161095557829003601f168201915b5050505050905090565b60008181526067602052604081205473ffffffffffffffffffffffffffffffffffffffff16610a32576040517f08c379a000000000000000000000000000000000000000000000000000000000815260206004820152602c60248201527f4552433732313a20617070726f76656420717565727920666f72206e6f6e657860448201527f697374656e7420746f6b656e000000000000000000000000000000000000000060648201526084015b60405180910390fd5b5060009081526069602052604090205473ffffffffffffffffffffffffffffffffffffffff1690565b6000610a66826115bf565b90508073ffffffffffffffffffffffffffffffffffffffff168373ffffffffffffffffffffffffffffffffffffffff161415610b24576040517f08c379a000000000000000000000000000000000000000000000000000000000815260206004820152602160248201527f4552433732313a20617070726f76616c20746f2063757272656e74206f776e6560448201527f72000000000000000000000000000000000000000000000000000000000000006064820152608401610a29565b3373ffffffffffffffffffffffffffffffffffffffff82161480610b4d5750610b4d81336107ec565b610bd9576040517f08c379a000000000000000000000000000000000000000000000000000000000815260206004820152603860248201527f4552433732313a20617070726f76652063616c6c6572206973206e6f74206f7760448201527f6e6572206e6f7220617070726f76656420666f7220616c6c00000000000000006064820152608401610a29565b610be38383612afe565b505050565b6000610bf46001612b9e565b610c5a576040517f08c379a000000000000000000000000000000000000000000000000000000000815260206004820152601360248201527f4d696e74696e67206e6f7420616c6c6f776564000000000000000000000000006044820152606401610a29565b604080516001808252818301909252600091602080830190803683370190505090503381600081518110610c9057610c90614d72565b73ffffffffffffffffffffffffffffffffffffffff9092166020928302919091019091015233610cbe612099565b73ffffffffffffffffffffffffffffffffffffffff1614158015610d0e57506000805260ce6020527fd3f5862f6f80175da7514904f3a889cc3cc8c4f3af5129e28cdeaee2baa6efc45461ffff16155b15610d1d57610d1d6001612cdb565b610d2681612d1b565b91505090565b60006001610d3960c95490565b610d439190614dd0565b905090565b600054610100900460ff1680610d61575060005460ff16155b610ded576040517f08c379a000000000000000000000000000000000000000000000000000000000815260206004820152602e60248201527f496e697469616c697a61626c653a20636f6e747261637420697320616c72656160448201527f647920696e697469616c697a65640000000000000000000000000000000000006064820152608401610a29565b600054610100900460ff16158015610e2c57600080547fffffffffffffffffffffffffffffffffffffffffffffffffffffffffffff0000166101011790555b610e3e87600001518860200151612df4565b610e46612f25565b610e4f886127fd565b600087604001515111610ebe576040517f08c379a000000000000000000000000000000000000000000000000000000000815260206004820152601160248201527f456d70747920636f6e74656e742055524c0000000000000000000000000000006044820152606401610a29565b60408701518051610ed79160ca916020909101906144b7565b50606087015160cb55608087015151610f4c576040517f08c379a000000000000000000000000000000000000000000000000000000000815260206004820152601260248201527f456d707479206d657461646174612055524c00000000000000000000000000006044820152606401610a29565b60808701518051610f659160cc916020909101906144b7565b5060cd80547fffffffffffffffffffffffffffffffffffffffffffffffff00000000000000001667ffffffffffffffff881617905560cf85905573ffffffffffffffffffffffffffffffffffffffff821661101c576040517f08c379a000000000000000000000000000000000000000000000000000000000815260206004820152601d60248201527f416c6c6f77616e6365733a20696e76616c6964207265666572656e63650000006044820152606401610a29565b60cd80547fffff0000000000000000000000000000000000000000ffffffffffffffffffff166a010000000000000000000073ffffffffffffffffffffffffffffffffffffffff85160217905560c9805460010190556127108461ffff16106110e1576040517f08c379a000000000000000000000000000000000000000000000000000000000815260206004820152601260248201527f526f79616c7469657320746f6f206869676800000000000000000000000000006044820152606401610a29565b60cd80547fffffffffffffffffffffffffffffffffffffffffffff0000ffffffffffffffff166801000000000000000061ffff8716021790556000805b84518110156111a85761116b85828151811061113c5761113c614d72565b60200260200101516000015186838151811061115a5761115a614d72565b60200260200101516020015161304a565b84818151811061117d5761117d614d72565b602002602001015160200151826111949190614de7565b9150806111a081614e0d565b91505061111e565b506127108161ffff1610611218576040517f08c379a000000000000000000000000000000000000000000000000000000000815260206004820152600f60248201527f53686172657320746f6f206869676800000000000000000000000000000000006044820152606401610a29565b61122d8961122883612710614e46565b61304a565b50801561125d57600080547fffffffffffffffffffffffffffffffffffffffffffffffffffffffffffff00ff1690555b5050505050505050565b611272335b82613288565b6112fe576040517f08c379a000000000000000000000000000000000000000000000000000000000815260206004820152603160248201527f4552433732313a207472616e736665722063616c6c6572206973206e6f74206f60448201527f776e6572206e6f7220617070726f7665640000000000000000000000000000006064820152608401610a29565b610be38383836133f4565b60008080611315612099565b73ffffffffffffffffffffffffffffffffffffffff16141561134457611339612099565b60009150915061137c565b61134c612099565b60cd546127109061136d9068010000000000000000900461ffff1686614e69565b6113779190614ed5565b915091505b9250929050565b3361138c612099565b73ffffffffffffffffffffffffffffffffffffffff1614611409576040517f08c379a000000000000000000000000000000000000000000000000000000000815260206004820181905260248201527f4f776e61626c653a2063616c6c6572206973206e6f7420746865206f776e65726044820152606401610a29565b803b611471576040517f08c379a000000000000000000000000000000000000000000000000000000000815260206004820152601560248201527f496e76616c6964206e6577207265666572656e636500000000000000000000006044820152606401610a29565b60cd805473ffffffffffffffffffffffffffffffffffffffff9092166a0100000000000000000000027fffff0000000000000000000000000000000000000000ffffffffffffffffffff909216919091179055565b6114cf3361365b565b565b610be38383836040518060200160405280600081525061228b565b6114f53361126c565b61155b576040517f08c379a000000000000000000000000000000000000000000000000000000000815260206004820152600c60248201527f4e6f7420617070726f76656400000000000000000000000000000000000000006044820152606401610a29565b61156481613815565b50565b600061157260c95490565b60cd5467ffffffffffffffff16156115a15760cd5461159c9067ffffffffffffffff166001614ee9565b6115ab565b67ffffffffffffffff5b67ffffffffffffffff16610d439190614dd0565b60008181526067602052604081205473ffffffffffffffffffffffffffffffffffffffff16806108e4576040517f08c379a000000000000000000000000000000000000000000000000000000000815260206004820152602960248201527f4552433732313a206f776e657220717565727920666f72206e6f6e657869737460448201527f656e7420746f6b656e00000000000000000000000000000000000000000000006064820152608401610a29565b60008060cf54116116de576040517f08c379a000000000000000000000000000000000000000000000000000000000815260206004820152600c60248201527f4e6f7420666f722073616c6500000000000000000000000000000000000000006044820152606401610a29565b60cf543414611749576040517f08c379a000000000000000000000000000000000000000000000000000000000815260206004820152600b60248201527f57726f6e672070726963650000000000000000000000000000000000000000006044820152606401610a29565b60408051600180825281830190925260009160208083019080368337019050509050338160008151811061177f5761177f614d72565b73ffffffffffffffffffffffffffffffffffffffff90921660209283029190910182015260cf546040805191825233928201929092527f60a6c75698fadb72223808131f9f9bb9db3afa32122db6d94fb8fc985a504baa910160405180910390a1610d2681612d1b565b600060cd600a9054906101000a900473ffffffffffffffffffffffffffffffffffffffff1673ffffffffffffffffffffffffffffffffffffffff166390e3b35c6040518163ffffffff1660e01b815260040160206040518083038186803b15801561185357600080fd5b505afa158015611867573d6000803e3d6000fd5b505050506040513d601f19601f8201168201806040525081019061188b9190614f0c565b67ffffffffffffffff1661189d611567565b67ffffffffffffffff16101561190f576040517f08c379a000000000000000000000000000000000000000000000000000000000815260206004820152600860248201527f536f6c64206f75740000000000000000000000000000000000000000000000006044820152606401610a29565b600060cd600a9054906101000a900473ffffffffffffffffffffffffffffffffffffffff1673ffffffffffffffffffffffffffffffffffffffff16631f7b6d326040518163ffffffff1660e01b815260040160206040518083038186803b15801561197957600080fd5b505afa15801561198d573d6000803e3d6000fd5b505050506040513d601f19601f820116820180604052508101906119b19190614f29565b8310611a5c5760cd600a9054906101000a900473ffffffffffffffffffffffffffffffffffffffff1673ffffffffffffffffffffffffffffffffffffffff16631f7b6d326040518163ffffffff1660e01b815260040160206040518083038186803b158015611a1f57600080fd5b505afa158015611a33573d6000803e3d6000fd5b505050506040513d601f19601f82011682018060405250810190611a579190614f29565b611a5e565b825b9050835b81811015611ca05760cd546040517f8623ec7b000000000000000000000000000000000000000000000000000000008152600481018390526000916a0100000000000000000000900473ffffffffffffffffffffffffffffffffffffffff1690638623ec7b9060240160206040518083038186803b158015611ae357600080fd5b505afa158015611af7573d6000803e3d6000fd5b505050506040513d601f19601f82011682018060405250810190611b1b9190614f42565b73ffffffffffffffffffffffffffffffffffffffff818116600081815260ce60205260408082205460cd5491517f2b603c710000000000000000000000000000000000000000000000000000000081526004810194909452949550909361ffff16926a01000000000000000000009091041690632b603c719060240160206040518083038186803b158015611baf57600080fd5b505afa158015611bc3573d6000803e3d6000fd5b505050506040513d601f19601f82011682018060405250810190611be79190614f5f565b611bf19190614e46565b73ffffffffffffffffffffffffffffffffffffffff8316600090815260ce6020526040812080549293508392909190611c2f90849061ffff16614de7565b92506101000a81548161ffff021916908361ffff16021790555060005b8161ffff16811015611c8a57611c6a83611c6560c95490565b6138e2565b611c7860c980546001019055565b80611c8281614e0d565b915050611c4c565b5050508080611c9890614e0d565b915050611a62565b5060c9545b949350505050565b600073ffffffffffffffffffffffffffffffffffffffff8216611d52576040517f08c379a000000000000000000000000000000000000000000000000000000000815260206004820152602a60248201527f4552433732313a2062616c616e636520717565727920666f7220746865207a6560448201527f726f2061646472657373000000000000000000000000000000000000000000006064820152608401610a29565b5073ffffffffffffffffffffffffffffffffffffffff1660009081526068602052604090205490565b33611d84612099565b73ffffffffffffffffffffffffffffffffffffffff1614611e01576040517f08c379a000000000000000000000000000000000000000000000000000000000815260206004820181905260248201527f4f776e61626c653a2063616c6c6572206973206e6f7420746865206f776e65726044820152606401610a29565b47158015611e0f575060cf54155b611e75576040517f08c379a000000000000000000000000000000000000000000000000000000000815260206004820152601760248201527f506f74656e7469616c206c6f7373206f662066756e64730000000000000000006044820152606401610a29565b6114cf6000613aa4565b60606000606060ca60cb5460cc828054611e9890614d1e565b80601f0160208091040260200160405190810160405280929190818152602001828054611ec490614d1e565b8015611f115780601f10611ee657610100808354040283529160200191611f11565b820191906000526020600020905b815481529060010190602001808311611ef457829003601f168201915b50505050509250808054611f2490614d1e565b80601f0160208091040260200160405190810160405280929190818152602001828054611f5090614d1e565b8015611f9d5780601f10611f7257610100808354040283529160200191611f9d565b820191906000526020600020905b815481529060010190602001808311611f8057829003601f168201915b50505050509050925092509250909192565b60005b60d05481101561156457611ff960d08281548110611fd257611fd2614d72565b60009182526020909120015473ffffffffffffffffffffffffffffffffffffffff1661365b565b8061200381614e0d565b915050611fb2565b60ca805461201890614d1e565b80601f016020809104026020016040519081016040528092919081815260200182805461204490614d1e565b80156120915780601f1061206657610100808354040283529160200191612091565b820191906000526020600020905b81548152906001019060200180831161207457829003601f168201915b505050505081565b6000610d4360975473ffffffffffffffffffffffffffffffffffffffff1690565b336120c3612099565b73ffffffffffffffffffffffffffffffffffffffff1614612140576040517f08c379a000000000000000000000000000000000000000000000000000000000815260206004820181905260248201527f4f776e61626c653a2063616c6c6572206973206e6f7420746865206f776e65726044820152606401610a29565b60cf8190556040518181527fa6dc15bdb68da224c66db4b3838d9a2b205138e8cff6774e57d0af91e196d6229060200160405180910390a150565b6060606680546108f990614d1e565b33612193612099565b73ffffffffffffffffffffffffffffffffffffffff1614612210576040517f08c379a000000000000000000000000000000000000000000000000000000000815260206004820181905260248201527f4f776e61626c653a2063616c6c6572206973206e6f7420746865206f776e65726044820152606401610a29565b8061221c57600061221f565b60015b6000805260ce6020527fd3f5862f6f80175da7514904f3a889cc3cc8c4f3af5129e28cdeaee2baa6efc480547fffffffffffffffffffffffffffffffffffffffffffffffffffffffffffff00001660ff9290921691909117905550565b612287338383613b1b565b5050565b6122953383613288565b612321576040517f08c379a000000000000000000000000000000000000000000000000000000000815260206004820152603160248201527f4552433732313a207472616e736665722063616c6c6572206973206e6f74206f60448201527f776e6572206e6f7220617070726f7665640000000000000000000000000000006064820152608401610a29565b61232d84848484613c49565b50505050565b600073ffffffffffffffffffffffffffffffffffffffff82166123845750506000805260ce6020527fd3f5862f6f80175da7514904f3a889cc3cc8c4f3af5129e28cdeaee2baa6efc45461ffff1690565b73ffffffffffffffffffffffffffffffffffffffff828116600081815260ce6020526040908190205460cd5491517f2b603c71000000000000000000000000000000000000000000000000000000008152600481019390935261ffff16926a01000000000000000000009091041690632b603c719060240160206040518083038186803b15801561241457600080fd5b505afa158015612428573d6000803e3d6000fd5b505050506040513d601f19601f8201168201806040525081019061244c9190614f5f565b6108e49190614e46565b60008181526067602052604090205460609073ffffffffffffffffffffffffffffffffffffffff166124e4576040517f08c379a000000000000000000000000000000000000000000000000000000000815260206004820152601560248201527f45646974696f6e20646f65736e277420657869737400000000000000000000006044820152606401610a29565b60cc6124ef83613cec565b604051602001612500929190614f98565b6040516020818303038152906040529050919050565b60cc805461201890614d1e565b60008060d2544761253491906150a2565b73ffffffffffffffffffffffffffffffffffffffff8416600090815260d3602090815260408083205460d190925290912054919250906127109061257c9061ffff1684614e69565b6125869190614ed5565b6125909190614dd0565b9392505050565b60006125a38251612b9e565b612609576040517f08c379a000000000000000000000000000000000000000000000000000000000815260206004820181905260248201527f4d696e74696e67206e6f7420616c6c6f776564206f7220657863656564696e676044820152606401610a29565b33612612612099565b73ffffffffffffffffffffffffffffffffffffffff161415801561266257506000805260ce6020527fd3f5862f6f80175da7514904f3a889cc3cc8c4f3af5129e28cdeaee2baa6efc45461ffff16155b15612671576126718251612cdb565b6108e482612d1b565b33612683612099565b73ffffffffffffffffffffffffffffffffffffffff1614612700576040517f08c379a000000000000000000000000000000000000000000000000000000000815260206004820181905260248201527f4f776e61626c653a2063616c6c6572206973206e6f7420746865206f776e65726044820152606401610a29565b600082511161276b576040517f08c379a000000000000000000000000000000000000000000000000000000000815260206004820152601160248201527f456d70747920636f6e74656e742055524c0000000000000000000000000000006044820152606401610a29565b815161277e9060ca9060208501906144b7565b5060008151116127ea576040517f08c379a000000000000000000000000000000000000000000000000000000000815260206004820152601260248201527f456d707479206d657461646174612055524c00000000000000000000000000006044820152606401610a29565b8051610be39060cc9060208401906144b7565b33612806612099565b73ffffffffffffffffffffffffffffffffffffffff1614612883576040517f08c379a000000000000000000000000000000000000000000000000000000000815260206004820181905260248201527f4f776e61626c653a2063616c6c6572206973206e6f7420746865206f776e65726044820152606401610a29565b73ffffffffffffffffffffffffffffffffffffffff8116612900576040517f08c379a000000000000000000000000000000000000000000000000000000000815260206004820152601d60248201527f4e6577206f776e657220697320746865207a65726f20616464726573730000006044820152606401610a29565b60d1600061290c612099565b73ffffffffffffffffffffffffffffffffffffffff90811682526020808301939093526040918201600090812054918516815260d19093529120546129589161ffff9081169116614de7565b73ffffffffffffffffffffffffffffffffffffffff8216600090815260d160208190526040822080547fffffffffffffffffffffffffffffffffffffffffffffffffffffffffffff00001661ffff949094169390931790925590816129bb612099565b73ffffffffffffffffffffffffffffffffffffffff168152602081019190915260400160002080547fffffffffffffffffffffffffffffffffffffffffffffffffffffffffffff00001661ffff9290921691909117905561156481613aa4565b60007fffffffff0000000000000000000000000000000000000000000000000000000082167f80ac58cd000000000000000000000000000000000000000000000000000000001480612aae57507fffffffff0000000000000000000000000000000000000000000000000000000082167f5b5e139f00000000000000000000000000000000000000000000000000000000145b806108e457507f01ffc9a7000000000000000000000000000000000000000000000000000000007fffffffff000000000000000000000000000000000000000000000000000000008316146108e4565b600081815260696020526040902080547fffffffffffffffffffffffff00000000000000000000000000000000000000001673ffffffffffffffffffffffffffffffffffffffff84169081179091558190612b58826115bf565b73ffffffffffffffffffffffffffffffffffffffff167f8c5be1e5ebec7d5bd14f71427d1e84f3dd0314c0f7b2291e5b200ac8c7c3b92560405160405180910390a45050565b600033612ba9612099565b73ffffffffffffffffffffffffffffffffffffffff161480612bf857506000805260ce6020527fd3f5862f6f80175da7514904f3a889cc3cc8c4f3af5129e28cdeaee2baa6efc45461ffff1615155b806108e4575060cd546040517f2b603c710000000000000000000000000000000000000000000000000000000081523360048201526a010000000000000000000090910473ffffffffffffffffffffffffffffffffffffffff1690632b603c719060240160206040518083038186803b158015612c7457600080fd5b505afa158015612c88573d6000803e3d6000fd5b505050506040513d601f19601f82011682018060405250810190612cac9190614f5f565b33600090815260ce602052604090205461ffff91821691612ccf91859116614de7565b61ffff16111592915050565b33600090815260ce602052604081208054839290612cfe90849061ffff16614de7565b92506101000a81548161ffff021916908361ffff16021790555050565b60008151612d27611567565b67ffffffffffffffff161015612d99576040517f08c379a000000000000000000000000000000000000000000000000000000000815260206004820152600860248201527f536f6c64206f75740000000000000000000000000000000000000000000000006044820152606401610a29565b60005b8251811015612deb57612dcb838281518110612dba57612dba614d72565b6020026020010151611c6560c95490565b612dd960c980546001019055565b80612de381614e0d565b915050612d9c565b5060c9546108e4565b600054610100900460ff1680612e0d575060005460ff16155b612e99576040517f08c379a000000000000000000000000000000000000000000000000000000000815260206004820152602e60248201527f496e697469616c697a61626c653a20636f6e747261637420697320616c72656160448201527f647920696e697469616c697a65640000000000000000000000000000000000006064820152608401610a29565b600054610100900460ff16158015612ed857600080547fffffffffffffffffffffffffffffffffffffffffffffffffffffffffffff0000166101011790555b612ee0613e1e565b612ee8613e1e565b612ef28383613f32565b8015610be357600080547fffffffffffffffffffffffffffffffffffffffffffffffffffffffffffff00ff169055505050565b600054610100900460ff1680612f3e575060005460ff16155b612fca576040517f08c379a000000000000000000000000000000000000000000000000000000000815260206004820152602e60248201527f496e697469616c697a61626c653a20636f6e747261637420697320616c72656160448201527f647920696e697469616c697a65640000000000000000000000000000000000006064820152608401610a29565b600054610100900460ff1615801561300957600080547fffffffffffffffffffffffffffffffffffffffffffffffffffffffffffff0000166101011790555b613011613e1e565b613019614071565b801561156457600080547fffffffffffffffffffffffffffffffffffffffffffffffffffffffffffff00ff16905550565b73ffffffffffffffffffffffffffffffffffffffff82166130c7576040517f08c379a000000000000000000000000000000000000000000000000000000000815260206004820152601b60248201527f5368617265686f6c646572206973207a65726f206164647265737300000000006044820152606401610a29565b60008161ffff161180156130e157506127108161ffff1611155b613147576040517f08c379a000000000000000000000000000000000000000000000000000000000815260206004820152601260248201527f5368617265732061726520696e76616c696400000000000000000000000000006044820152606401610a29565b73ffffffffffffffffffffffffffffffffffffffff8216600090815260d1602052604090205461ffff16156131d8576040517f08c379a000000000000000000000000000000000000000000000000000000000815260206004820152601e60248201527f5368617265686f6c64657220616c7265616479206861732073686172657300006044820152606401610a29565b60d08054600181019091557fe89d44c8fd6a9bac8af33ce47f56337617d449bf7ff3956b618c646de829cbcb0180547fffffffffffffffffffffffff00000000000000000000000000000000000000001673ffffffffffffffffffffffffffffffffffffffff939093169283179055600091825260d1602052604090912080547fffffffffffffffffffffffffffffffffffffffffffffffffffffffffffff00001661ffff909216919091179055565b60008181526067602052604081205473ffffffffffffffffffffffffffffffffffffffff16613339576040517f08c379a000000000000000000000000000000000000000000000000000000000815260206004820152602c60248201527f4552433732313a206f70657261746f7220717565727920666f72206e6f6e657860448201527f697374656e7420746f6b656e00000000000000000000000000000000000000006064820152608401610a29565b6000613344836115bf565b90508073ffffffffffffffffffffffffffffffffffffffff168473ffffffffffffffffffffffffffffffffffffffff1614806133b357508373ffffffffffffffffffffffffffffffffffffffff1661339b8461097c565b73ffffffffffffffffffffffffffffffffffffffff16145b80611ca5575073ffffffffffffffffffffffffffffffffffffffff8082166000908152606a602090815260408083209388168352929052205460ff16611ca5565b8273ffffffffffffffffffffffffffffffffffffffff16613414826115bf565b73ffffffffffffffffffffffffffffffffffffffff16146134b7576040517f08c379a000000000000000000000000000000000000000000000000000000000815260206004820152602960248201527f4552433732313a207472616e73666572206f6620746f6b656e2074686174206960448201527f73206e6f74206f776e00000000000000000000000000000000000000000000006064820152608401610a29565b73ffffffffffffffffffffffffffffffffffffffff8216613559576040517f08c379a0000000000000000000000000000000000000000000000000000000008152602060048201526024808201527f4552433732313a207472616e7366657220746f20746865207a65726f2061646460448201527f72657373000000000000000000000000000000000000000000000000000000006064820152608401610a29565b613564600082612afe565b73ffffffffffffffffffffffffffffffffffffffff8316600090815260686020526040812080546001929061359a908490614dd0565b909155505073ffffffffffffffffffffffffffffffffffffffff821660009081526068602052604081208054600192906135d59084906150a2565b909155505060008181526067602052604080822080547fffffffffffffffffffffffff00000000000000000000000000000000000000001673ffffffffffffffffffffffffffffffffffffffff86811691821790925591518493918716917fddf252ad1be2c89b69c2b068fc378daa952ba7f163c4a11628f55a4df523b3ef91a4505050565b6040517fce513b6f00000000000000000000000000000000000000000000000000000000815273ffffffffffffffffffffffffffffffffffffffff82166004820152600090309063ce513b6f9060240160206040518083038186803b1580156136c357600080fd5b505afa1580156136d7573d6000803e3d6000fd5b505050506040513d601f19601f820116820180604052508101906136fb9190614f29565b905080613764576040517f08c379a000000000000000000000000000000000000000000000000000000000815260206004820152601a60248201527f4163636f756e74206973206e6f7420647565207061796d656e740000000000006044820152606401610a29565b73ffffffffffffffffffffffffffffffffffffffff8216600090815260d36020526040812080548392906137999084906150a2565b925050819055508060d260008282546137b291906150a2565b909155506137c29050828261415e565b6040805173ffffffffffffffffffffffffffffffffffffffff84168152602081018390527fc271d5cc8e899d2f13fb92ceb234c8beb4f1b82ebee351bd4fd728a79773e12b910160405180910390a15050565b6000613820826115bf565b905061382d600083612afe565b73ffffffffffffffffffffffffffffffffffffffff81166000908152606860205260408120805460019290613863908490614dd0565b909155505060008281526067602052604080822080547fffffffffffffffffffffffff00000000000000000000000000000000000000001690555183919073ffffffffffffffffffffffffffffffffffffffff8416907fddf252ad1be2c89b69c2b068fc378daa952ba7f163c4a11628f55a4df523b3ef908390a45050565b73ffffffffffffffffffffffffffffffffffffffff821661395f576040517f08c379a000000000000000000000000000000000000000000000000000000000815260206004820181905260248201527f4552433732313a206d696e7420746f20746865207a65726f20616464726573736044820152606401610a29565b60008181526067602052604090205473ffffffffffffffffffffffffffffffffffffffff16156139eb576040517f08c379a000000000000000000000000000000000000000000000000000000000815260206004820152601c60248201527f4552433732313a20746f6b656e20616c7265616479206d696e746564000000006044820152606401610a29565b73ffffffffffffffffffffffffffffffffffffffff82166000908152606860205260408120805460019290613a219084906150a2565b909155505060008181526067602052604080822080547fffffffffffffffffffffffff00000000000000000000000000000000000000001673ffffffffffffffffffffffffffffffffffffffff861690811790915590518392907fddf252ad1be2c89b69c2b068fc378daa952ba7f163c4a11628f55a4df523b3ef908290a45050565b6097805473ffffffffffffffffffffffffffffffffffffffff8381167fffffffffffffffffffffffff0000000000000000000000000000000000000000831681179093556040519116919082907f8be0079c531659141344cd1fd0a4f28419497f9722a3daafe3b4186f6b6457e090600090a35050565b8173ffffffffffffffffffffffffffffffffffffffff168373ffffffffffffffffffffffffffffffffffffffff161415613bb1576040517f08c379a000000000000000000000000000000000000000000000000000000000815260206004820152601960248201527f4552433732313a20617070726f766520746f2063616c6c6572000000000000006044820152606401610a29565b73ffffffffffffffffffffffffffffffffffffffff8381166000818152606a602090815260408083209487168084529482529182902080547fffffffffffffffffffffffffffffffffffffffffffffffffffffffffffffff001686151590811790915591519182527f17307eab39ab6107e8899845ad3d59bd9653f200f220920489ca2b5937696c31910160405180910390a3505050565b613c548484846133f4565b613c60848484846142b8565b61232d576040517f08c379a000000000000000000000000000000000000000000000000000000000815260206004820152603260248201527f4552433732313a207472616e7366657220746f206e6f6e20455243373231526560448201527f63656976657220696d706c656d656e74657200000000000000000000000000006064820152608401610a29565b606081613d2c57505060408051808201909152600181527f3000000000000000000000000000000000000000000000000000000000000000602082015290565b8160005b8115613d565780613d4081614e0d565b9150613d4f9050600a83614ed5565b9150613d30565b60008167ffffffffffffffff811115613d7157613d7161469b565b6040519080825280601f01601f191660200182016040528015613d9b576020820181803683370190505b5090505b8415611ca557613db0600183614dd0565b9150613dbd600a866150ba565b613dc89060306150a2565b60f81b818381518110613ddd57613ddd614d72565b60200101907effffffffffffffffffffffffffffffffffffffffffffffffffffffffffffff1916908160001a905350613e17600a86614ed5565b9450613d9f565b600054610100900460ff1680613e37575060005460ff16155b613ec3576040517f08c379a000000000000000000000000000000000000000000000000000000000815260206004820152602e60248201527f496e697469616c697a61626c653a20636f6e747261637420697320616c72656160448201527f647920696e697469616c697a65640000000000000000000000000000000000006064820152608401610a29565b600054610100900460ff1615801561301957600080547fffffffffffffffffffffffffffffffffffffffffffffffffffffffffffff000016610101179055801561156457600080547fffffffffffffffffffffffffffffffffffffffffffffffffffffffffffff00ff16905550565b600054610100900460ff1680613f4b575060005460ff16155b613fd7576040517f08c379a000000000000000000000000000000000000000000000000000000000815260206004820152602e60248201527f496e697469616c697a61626c653a20636f6e747261637420697320616c72656160448201527f647920696e697469616c697a65640000000000000000000000000000000000006064820152608401610a29565b600054610100900460ff1615801561401657600080547fffffffffffffffffffffffffffffffffffffffffffffffffffffffffffff0000166101011790555b82516140299060659060208601906144b7565b50815161403d9060669060208501906144b7565b508015610be357600080547fffffffffffffffffffffffffffffffffffffffffffffffffffffffffffff00ff169055505050565b600054610100900460ff168061408a575060005460ff16155b614116576040517f08c379a000000000000000000000000000000000000000000000000000000000815260206004820152602e60248201527f496e697469616c697a61626c653a20636f6e747261637420697320616c72656160448201527f647920696e697469616c697a65640000000000000000000000000000000000006064820152608401610a29565b600054610100900460ff1615801561415557600080547fffffffffffffffffffffffffffffffffffffffffffffffffffffffffffff0000166101011790555b61301933613aa4565b804710156141c8576040517f08c379a000000000000000000000000000000000000000000000000000000000815260206004820152601d60248201527f416464726573733a20696e73756666696369656e742062616c616e63650000006044820152606401610a29565b60008273ffffffffffffffffffffffffffffffffffffffff168260405160006040518083038185875af1925050503d8060008114614222576040519150601f19603f3d011682016040523d82523d6000602084013e614227565b606091505b5050905080610be3576040517f08c379a000000000000000000000000000000000000000000000000000000000815260206004820152603a60248201527f416464726573733a20756e61626c6520746f2073656e642076616c75652c207260448201527f6563697069656e74206d617920686176652072657665727465640000000000006064820152608401610a29565b600073ffffffffffffffffffffffffffffffffffffffff84163b156144ac576040517f150b7a0200000000000000000000000000000000000000000000000000000000815273ffffffffffffffffffffffffffffffffffffffff85169063150b7a029061432f9033908990889088906004016150ce565b602060405180830381600087803b15801561434957600080fd5b505af1925050508015614397575060408051601f3d9081017fffffffffffffffffffffffffffffffffffffffffffffffffffffffffffffffe01682019092526143949181019061510d565b60015b614461573d8080156143c5576040519150601f19603f3d011682016040523d82523d6000602084013e6143ca565b606091505b508051614459576040517f08c379a000000000000000000000000000000000000000000000000000000000815260206004820152603260248201527f4552433732313a207472616e7366657220746f206e6f6e20455243373231526560448201527f63656976657220696d706c656d656e74657200000000000000000000000000006064820152608401610a29565b805181602001fd5b7fffffffff00000000000000000000000000000000000000000000000000000000167f150b7a0200000000000000000000000000000000000000000000000000000000149050611ca5565b506001949350505050565b8280546144c390614d1e565b90600052602060002090601f0160209004810192826144e5576000855561452b565b82601f106144fe57805160ff191683800117855561452b565b8280016001018555821561452b579182015b8281111561452b578251825591602001919060010190614510565b5061453792915061453b565b5090565b5b80821115614537576000815560010161453c565b7fffffffff000000000000000000000000000000000000000000000000000000008116811461156457600080fd5b60006020828403121561459057600080fd5b813561259081614550565b60005b838110156145b657818101518382015260200161459e565b8381111561232d5750506000910152565b600081518084526145df81602086016020860161459b565b601f017fffffffffffffffffffffffffffffffffffffffffffffffffffffffffffffffe0169290920160200192915050565b60208152600061259060208301846145c7565b60006020828403121561463657600080fd5b5035919050565b73ffffffffffffffffffffffffffffffffffffffff8116811461156457600080fd5b803561466a8161463d565b919050565b6000806040838503121561468257600080fd5b823561468d8161463d565b946020939093013593505050565b7f4e487b7100000000000000000000000000000000000000000000000000000000600052604160045260246000fd5b6040805190810167ffffffffffffffff811182821017156146ed576146ed61469b565b60405290565b60405160a0810167ffffffffffffffff811182821017156146ed576146ed61469b565b604051601f82017fffffffffffffffffffffffffffffffffffffffffffffffffffffffffffffffe016810167ffffffffffffffff8111828210171561475d5761475d61469b565b604052919050565b600067ffffffffffffffff83111561477f5761477f61469b565b6147b060207fffffffffffffffffffffffffffffffffffffffffffffffffffffffffffffffe0601f86011601614716565b90508281528383830111156147c457600080fd5b828260208301376000602084830101529392505050565b600082601f8301126147ec57600080fd5b61259083833560208501614765565b67ffffffffffffffff8116811461156457600080fd5b803561466a816147fb565b61ffff8116811461156457600080fd5b803561466a8161481c565b600067ffffffffffffffff8211156148515761485161469b565b5060051b60200190565b600082601f83011261486c57600080fd5b8135602061488161487c83614837565b614716565b82815260069290921b840181019181810190868411156148a057600080fd5b8286015b848110156148f157604081890312156148bd5760008081fd5b6148c56146ca565b81356148d08161463d565b8152818501356148df8161481c565b818601528352918301916040016148a4565b509695505050505050565b600080600080600080600060e0888a03121561491757600080fd5b87356149228161463d565b9650602088013567ffffffffffffffff8082111561493f57600080fd5b9089019060a0828c03121561495357600080fd5b61495b6146f3565b82358281111561496a57600080fd5b6149768d8286016147db565b82525060208301358281111561498b57600080fd5b6149978d8286016147db565b6020830152506040830135828111156149af57600080fd5b6149bb8d8286016147db565b604083015250606083013560608201526080830135828111156149dd57600080fd5b6149e98d8286016147db565b60808301525097506149fd60408b01614811565b965060608a01359550614a1260808b0161482c565b945060a08a0135915080821115614a2857600080fd5b50614a358a828b0161485b565b925050614a4460c0890161465f565b905092959891949750929550565b600080600060608486031215614a6757600080fd5b8335614a728161463d565b92506020840135614a828161463d565b929592945050506040919091013590565b60008060408385031215614aa657600080fd5b50508035926020909101359150565b600060208284031215614ac757600080fd5b81356125908161463d565b606081526000614ae560608301866145c7565b8460208401528281036040840152614afd81856145c7565b9695505050505050565b8035801515811461466a57600080fd5b600060208284031215614b2957600080fd5b61259082614b07565b60008060408385031215614b4557600080fd5b8235614b508161463d565b9150614b5e60208401614b07565b90509250929050565b60008060008060808587031215614b7d57600080fd5b8435614b888161463d565b93506020850135614b988161463d565b925060408501359150606085013567ffffffffffffffff811115614bbb57600080fd5b8501601f81018713614bcc57600080fd5b614bdb87823560208401614765565b91505092959194509250565b60006020808385031215614bfa57600080fd5b823567ffffffffffffffff811115614c1157600080fd5b8301601f81018513614c2257600080fd5b8035614c3061487c82614837565b81815260059190911b82018301908381019087831115614c4f57600080fd5b928401925b82841015614c76578335614c678161463d565b82529284019290840190614c54565b979650505050505050565b60008060408385031215614c9457600080fd5b8235614c9f8161463d565b91506020830135614caf8161463d565b809150509250929050565b60008060408385031215614ccd57600080fd5b823567ffffffffffffffff80821115614ce557600080fd5b614cf1868387016147db565b93506020850135915080821115614d0757600080fd5b50614d14858286016147db565b9150509250929050565b600181811c90821680614d3257607f821691505b60208210811415614d6c577f4e487b7100000000000000000000000000000000000000000000000000000000600052602260045260246000fd5b50919050565b7f4e487b7100000000000000000000000000000000000000000000000000000000600052603260045260246000fd5b7f4e487b7100000000000000000000000000000000000000000000000000000000600052601160045260246000fd5b600082821015614de257614de2614da1565b500390565b600061ffff808316818516808303821115614e0457614e04614da1565b01949350505050565b60007fffffffffffffffffffffffffffffffffffffffffffffffffffffffffffffffff821415614e3f57614e3f614da1565b5060010190565b600061ffff83811690831681811015614e6157614e61614da1565b039392505050565b6000817fffffffffffffffffffffffffffffffffffffffffffffffffffffffffffffffff0483118215151615614ea157614ea1614da1565b500290565b7f4e487b7100000000000000000000000000000000000000000000000000000000600052601260045260246000fd5b600082614ee457614ee4614ea6565b500490565b600067ffffffffffffffff808316818516808303821115614e0457614e04614da1565b600060208284031215614f1e57600080fd5b8151612590816147fb565b600060208284031215614f3b57600080fd5b5051919050565b600060208284031215614f5457600080fd5b81516125908161463d565b600060208284031215614f7157600080fd5b81516125908161481c565b60008151614f8e81856020860161459b565b9290920192915050565b600080845481600182811c915080831680614fb457607f831692505b6020808410821415614fed577f4e487b710000000000000000000000000000000000000000000000000000000086526022600452602486fd5b81801561500157600181146150305761505d565b7fffffffffffffffffffffffffffffffffffffffffffffffffffffffffffffff0086168952848901965061505d565b60008b81526020902060005b868110156150555781548b82015290850190830161503c565b505084890196505b505050505050615099615093827f3f746f6b656e49643d0000000000000000000000000000000000000000000000815260090190565b85614f7c565b95945050505050565b600082198211156150b5576150b5614da1565b500190565b6000826150c9576150c9614ea6565b500690565b600073ffffffffffffffffffffffffffffffffffffffff808716835280861660208401525083604083015260806060830152614afd60808301846145c7565b60006020828403121561511f57600080fd5b81516125908161455056fea2646970667358221220df4dde4a6abf712c96c72d6e597360dfa7be72f9e87d612dbf5463554b2c5c7d64736f6c63430008090033",
  "devdoc": {
    "kind": "dev",
    "methods": {
      "approve(address,uint256)": {
        "details": "See {IERC721-approve}."
      },
      "balanceOf(address)": {
        "details": "See {IERC721-balanceOf}."
      },
      "burn(uint256)": {
        "params": {
          "tokenId": "token edition identifier to burn"
        }
      },
      "constructor": {
        "custom:oz-upgrades-unsafe-allow": "constructor"
      },
      "getApproved(uint256)": {
        "details": "See {IERC721-getApproved}."
      },
      "getURI()": {
        "returns": {
          "_0": "metadataUrl, contentHash"
        }
      },
      "initialize(address,(string,string,string,bytes32,string),uint64,uint256,uint16,(address,uint16)[],address)": {
        "params": {
          "_allowancesRef": "contract address storing array of tuples listing the allowed minters and their allowances",
          "_info": "token properties",
          "_owner": "can authorize, mint, gets royalties and a dividend of sales, can update the content URL.",
          "_price": "sale price in wei",
          "_royalties": "perpetual royalties paid to the creator upon token selling",
          "_shares": "array of tuples listing the shareholders and their respective shares in bps (one per each shareholder)",
          "_size": "number of NFTs that can be minted from this contract: set to 0 for unbound"
        }
      },
      "isApprovedForAll(address,address)": {
        "details": "See {IERC721-isApprovedForAll}."
      },
      "mintAndTransfer(address[])": {
        "params": {
          "recipients": "list of addresses to send the newly minted tokens to"
        }
      },
      "name()": {
        "details": "See {IERC721Metadata-name}."
      },
      "ownerOf(uint256)": {
        "details": "See {IERC721-ownerOf}."
      },
      "renounceOwnership()": {
        "details": "Leaves the contract without owner. It will not be possible to call `onlyOwner` functions anymore. Can only be called by the current owner. NOTE: Renouncing ownership will leave the contract without an owner, thereby removing any functionality that is only available to the owner."
      },
      "royaltyInfo(uint256,uint256)": {
        "params": {
          "_value": "the sale price for this token"
        }
      },
      "safeTransferFrom(address,address,uint256)": {
        "details": "See {IERC721-safeTransferFrom}."
      },
      "safeTransferFrom(address,address,uint256,bytes)": {
        "details": "See {IERC721-safeTransferFrom}."
      },
      "setApprovalForAll(address,bool)": {
        "details": "See {IERC721-setApprovalForAll}."
      },
      "setPrice(uint256)": {
        "params": {
          "_wei": "if sale price is 0, no sale is allowed, otherwise the provided amount of WEI is needed to start the sale."
        }
      },
      "symbol()": {
        "details": "See {IERC721Metadata-symbol}."
      },
      "tokenURI(uint256)": {
        "params": {
          "tokenId": "token id to get uri for"
        },
        "returns": {
          "_0": "base64-encoded json metadata object"
        }
      },
      "transferFrom(address,address,uint256)": {
        "details": "See {IERC721-transferFrom}."
      },
      "transferOwnership(address)": {
        "details": "Transfers ownership of the contract to a new account (`newOwner`). Can only be called by the current owner."
      }
    },
    "version": 1
  },
  "userdoc": {
    "kind": "user",
    "methods": {
      "burn(uint256)": {
        "notice": "User burn function for token id. "
      },
      "getURI()": {
        "notice": "Get URI and hash for edition NFT"
      },
      "initialize(address,(string,string,string,bytes32,string),uint64,uint256,uint16,(address,uint16)[],address)": {
        "notice": "Creates a new edition and sets the only allowed minter to the address that creates/owns the edition: this can be re-assigned or updated later. "
      },
      "mint()": {
        "notice": "If caller is listed as an allowed minter, mints one NFT for him."
      },
      "mintAndTransfer(address[])": {
        "notice": "Mints multiple tokens, one for each of the given list of addresses. Only the edition owner can use this operation and it is intended fo partial giveaways. "
      },
      "mintable()": {
        "notice": "Returns the number of tokens still available for minting (uint64 when open edition)"
      },
      "owner()": {
        "notice": "Returns the owner of the collection of rewards."
      },
      "purchase()": {
        "notice": "Basic ETH-based sales operation, performed at the given set price. This operation is open to everyone as soon as the salePrice is set to a non-zero value."
      },
      "royaltyInfo(uint256,uint256)": {
        "notice": "ERC2981 - Gets royalty information for token"
      },
      "setPrice(uint256)": {
        "notice": "This operation sets the sale price, thus allowing anyone to acquire a token from this edition at the sale price via the purchase operation. Setting the sale price to 0 prevents purchase of the tokens which is then allowed only to permitted addresses. "
      },
      "shake()": {
        "notice": "Transfers all ETHs from the contract balance to the owner and shareholders."
      },
      "tokenURI(uint256)": {
        "notice": "Get URI for given token id "
      },
      "totalSupply()": {
        "notice": "Returns the number of tokens minted so far "
      },
      "updateAllowancesRef(address)": {
        "notice": "Allows owner to update the allowances reference contract use for this rewards."
      },
      "updateEditionsURLs(string,string)": {
        "notice": "Allows for updates of content and metadata urls by the owner. Only URLs can be updated (data-uri are supported), hash cannot be updated."
      },
      "withdraw()": {
        "notice": "Transfers `withdrawable(msg.sender)` to the caller."
      },
      "withdrawable(address)": {
        "notice": "Returns how much the account can withdraw from this contract."
      }
    },
    "notice": "This contract allows dynamic NFT minting.  Operations allow for selling publicly, partial or total giveaways, direct giveaways and rewardings.",
    "version": 1
  },
  "storageLayout": {
    "storage": [
      {
        "astId": 971,
        "contract": "contracts/MintableRewards.sol:MintableRewards",
        "label": "_initialized",
        "offset": 0,
        "slot": "0",
        "type": "t_bool"
      },
      {
        "astId": 974,
        "contract": "contracts/MintableRewards.sol:MintableRewards",
        "label": "_initializing",
        "offset": 1,
        "slot": "0",
        "type": "t_bool"
      },
      {
        "astId": 2432,
        "contract": "contracts/MintableRewards.sol:MintableRewards",
        "label": "__gap",
        "offset": 0,
        "slot": "1",
        "type": "t_array(t_uint256)50_storage"
      },
      {
        "astId": 2815,
        "contract": "contracts/MintableRewards.sol:MintableRewards",
        "label": "__gap",
        "offset": 0,
        "slot": "51",
        "type": "t_array(t_uint256)50_storage"
      },
      {
        "astId": 1151,
        "contract": "contracts/MintableRewards.sol:MintableRewards",
        "label": "_name",
        "offset": 0,
        "slot": "101",
        "type": "t_string_storage"
      },
      {
        "astId": 1153,
        "contract": "contracts/MintableRewards.sol:MintableRewards",
        "label": "_symbol",
        "offset": 0,
        "slot": "102",
        "type": "t_string_storage"
      },
      {
        "astId": 1157,
        "contract": "contracts/MintableRewards.sol:MintableRewards",
        "label": "_owners",
        "offset": 0,
        "slot": "103",
        "type": "t_mapping(t_uint256,t_address)"
      },
      {
        "astId": 1161,
        "contract": "contracts/MintableRewards.sol:MintableRewards",
        "label": "_balances",
        "offset": 0,
        "slot": "104",
        "type": "t_mapping(t_address,t_uint256)"
      },
      {
        "astId": 1165,
        "contract": "contracts/MintableRewards.sol:MintableRewards",
        "label": "_tokenApprovals",
        "offset": 0,
        "slot": "105",
        "type": "t_mapping(t_uint256,t_address)"
      },
      {
        "astId": 1171,
        "contract": "contracts/MintableRewards.sol:MintableRewards",
        "label": "_operatorApprovals",
        "offset": 0,
        "slot": "106",
        "type": "t_mapping(t_address,t_mapping(t_address,t_bool))"
      },
      {
        "astId": 1982,
        "contract": "contracts/MintableRewards.sol:MintableRewards",
        "label": "__gap",
        "offset": 0,
        "slot": "107",
        "type": "t_array(t_uint256)44_storage"
      },
      {
        "astId": 420,
        "contract": "contracts/MintableRewards.sol:MintableRewards",
        "label": "_owner",
        "offset": 0,
        "slot": "151",
        "type": "t_address"
      },
      {
        "astId": 534,
        "contract": "contracts/MintableRewards.sol:MintableRewards",
        "label": "__gap",
        "offset": 0,
        "slot": "152",
        "type": "t_array(t_uint256)49_storage"
      },
      {
        "astId": 4242,
        "contract": "contracts/MintableRewards.sol:MintableRewards",
        "label": "counter",
        "offset": 0,
        "slot": "201",
        "type": "t_struct(Counter)2439_storage"
      },
      {
        "astId": 4244,
        "contract": "contracts/MintableRewards.sol:MintableRewards",
        "label": "contentUrl",
        "offset": 0,
        "slot": "202",
        "type": "t_string_storage"
      },
      {
        "astId": 4246,
        "contract": "contracts/MintableRewards.sol:MintableRewards",
        "label": "contentHash",
        "offset": 0,
        "slot": "203",
        "type": "t_bytes32"
      },
      {
        "astId": 4248,
        "contract": "contracts/MintableRewards.sol:MintableRewards",
        "label": "metadataUrl",
        "offset": 0,
        "slot": "204",
        "type": "t_string_storage"
      },
      {
        "astId": 4250,
        "contract": "contracts/MintableRewards.sol:MintableRewards",
        "label": "size",
        "offset": 0,
        "slot": "205",
        "type": "t_uint64"
      },
      {
        "astId": 4252,
        "contract": "contracts/MintableRewards.sol:MintableRewards",
        "label": "royalties",
        "offset": 8,
        "slot": "205",
        "type": "t_uint16"
      },
      {
        "astId": 4254,
        "contract": "contracts/MintableRewards.sol:MintableRewards",
        "label": "allowancesRef",
        "offset": 10,
        "slot": "205",
        "type": "t_address"
      },
      {
        "astId": 4258,
        "contract": "contracts/MintableRewards.sol:MintableRewards",
        "label": "allowedMinters",
        "offset": 0,
        "slot": "206",
        "type": "t_mapping(t_address,t_uint16)"
      },
      {
        "astId": 4260,
        "contract": "contracts/MintableRewards.sol:MintableRewards",
        "label": "price",
        "offset": 0,
        "slot": "207",
        "type": "t_uint256"
      },
      {
        "astId": 4263,
        "contract": "contracts/MintableRewards.sol:MintableRewards",
        "label": "shareholders",
        "offset": 0,
        "slot": "208",
        "type": "t_array(t_address)dyn_storage"
      },
      {
        "astId": 4267,
        "contract": "contracts/MintableRewards.sol:MintableRewards",
        "label": "shares",
        "offset": 0,
        "slot": "209",
        "type": "t_mapping(t_address,t_uint16)"
      },
      {
        "astId": 4269,
        "contract": "contracts/MintableRewards.sol:MintableRewards",
        "label": "withdrawn",
        "offset": 0,
        "slot": "210",
        "type": "t_uint256"
      },
      {
        "astId": 4273,
        "contract": "contracts/MintableRewards.sol:MintableRewards",
        "label": "withdrawals",
        "offset": 0,
        "slot": "211",
        "type": "t_mapping(t_address,t_uint256)"
      }
    ],
    "types": {
      "t_address": {
        "encoding": "inplace",
        "label": "address",
        "numberOfBytes": "20"
      },
      "t_array(t_address)dyn_storage": {
        "base": "t_address",
        "encoding": "dynamic_array",
        "label": "address[]",
        "numberOfBytes": "32"
      },
      "t_array(t_uint256)44_storage": {
        "base": "t_uint256",
        "encoding": "inplace",
        "label": "uint256[44]",
        "numberOfBytes": "1408"
      },
      "t_array(t_uint256)49_storage": {
        "base": "t_uint256",
        "encoding": "inplace",
        "label": "uint256[49]",
        "numberOfBytes": "1568"
      },
      "t_array(t_uint256)50_storage": {
        "base": "t_uint256",
        "encoding": "inplace",
        "label": "uint256[50]",
        "numberOfBytes": "1600"
      },
      "t_bool": {
        "encoding": "inplace",
        "label": "bool",
        "numberOfBytes": "1"
      },
      "t_bytes32": {
        "encoding": "inplace",
        "label": "bytes32",
        "numberOfBytes": "32"
      },
      "t_mapping(t_address,t_bool)": {
        "encoding": "mapping",
        "key": "t_address",
        "label": "mapping(address => bool)",
        "numberOfBytes": "32",
        "value": "t_bool"
      },
      "t_mapping(t_address,t_mapping(t_address,t_bool))": {
        "encoding": "mapping",
        "key": "t_address",
        "label": "mapping(address => mapping(address => bool))",
        "numberOfBytes": "32",
        "value": "t_mapping(t_address,t_bool)"
      },
      "t_mapping(t_address,t_uint16)": {
        "encoding": "mapping",
        "key": "t_address",
        "label": "mapping(address => uint16)",
        "numberOfBytes": "32",
        "value": "t_uint16"
      },
      "t_mapping(t_address,t_uint256)": {
        "encoding": "mapping",
        "key": "t_address",
        "label": "mapping(address => uint256)",
        "numberOfBytes": "32",
        "value": "t_uint256"
      },
      "t_mapping(t_uint256,t_address)": {
        "encoding": "mapping",
        "key": "t_uint256",
        "label": "mapping(uint256 => address)",
        "numberOfBytes": "32",
        "value": "t_address"
      },
      "t_string_storage": {
        "encoding": "bytes",
        "label": "string",
        "numberOfBytes": "32"
      },
      "t_struct(Counter)2439_storage": {
        "encoding": "inplace",
        "label": "struct CountersUpgradeable.Counter",
        "members": [
          {
            "astId": 2438,
            "contract": "contracts/MintableRewards.sol:MintableRewards",
            "label": "_value",
            "offset": 0,
            "slot": "0",
            "type": "t_uint256"
          }
        ],
        "numberOfBytes": "32"
      },
      "t_uint16": {
        "encoding": "inplace",
        "label": "uint16",
        "numberOfBytes": "2"
      },
      "t_uint256": {
        "encoding": "inplace",
        "label": "uint256",
        "numberOfBytes": "32"
      },
      "t_uint64": {
        "encoding": "inplace",
        "label": "uint64",
        "numberOfBytes": "8"
      }
    }
  }
}