{
  "address": "0xc573541379D752c449f7eAc34cB8B2C44C459571",
  "abi": [
    {
      "inputs": [
        {
          "internalType": "address",
          "name": "implementation",
          "type": "address"
        }
      ],
      "stateMutability": "nonpayable",
      "type": "constructor"
    },
    {
      "anonymous": false,
      "inputs": [
        {
          "indexed": true,
          "internalType": "uint256",
          "name": "index",
          "type": "uint256"
        },
        {
          "indexed": true,
          "internalType": "address",
          "name": "creator",
          "type": "address"
        },
        {
          "components": [
            {
              "internalType": "address payable",
              "name": "holder",
              "type": "address"
            },
            {
              "internalType": "uint16",
              "name": "bps",
              "type": "uint16"
            }
          ],
          "indexed": true,
          "internalType": "struct MintableEditions.Shares[]",
          "name": "shareholders",
          "type": "tuple[]"
        },
        {
          "indexed": false,
          "internalType": "uint256",
          "name": "size",
          "type": "uint256"
        },
        {
          "indexed": false,
          "internalType": "address",
          "name": "contractAddress",
          "type": "address"
        }
      ],
      "name": "CreatedEditions",
      "type": "event"
    },
    {
      "anonymous": false,
      "inputs": [
        {
          "indexed": true,
          "internalType": "bytes32",
          "name": "role",
          "type": "bytes32"
        },
        {
          "indexed": true,
          "internalType": "bytes32",
          "name": "previousAdminRole",
          "type": "bytes32"
        },
        {
          "indexed": true,
          "internalType": "bytes32",
          "name": "newAdminRole",
          "type": "bytes32"
        }
      ],
      "name": "RoleAdminChanged",
      "type": "event"
    },
    {
      "anonymous": false,
      "inputs": [
        {
          "indexed": true,
          "internalType": "bytes32",
          "name": "role",
          "type": "bytes32"
        },
        {
          "indexed": true,
          "internalType": "address",
          "name": "account",
          "type": "address"
        },
        {
          "indexed": true,
          "internalType": "address",
          "name": "sender",
          "type": "address"
        }
      ],
      "name": "RoleGranted",
      "type": "event"
    },
    {
      "anonymous": false,
      "inputs": [
        {
          "indexed": true,
          "internalType": "bytes32",
          "name": "role",
          "type": "bytes32"
        },
        {
          "indexed": true,
          "internalType": "address",
          "name": "account",
          "type": "address"
        },
        {
          "indexed": true,
          "internalType": "address",
          "name": "sender",
          "type": "address"
        }
      ],
      "name": "RoleRevoked",
      "type": "event"
    },
    {
      "inputs": [],
      "name": "ARTIST_ROLE",
      "outputs": [
        {
          "internalType": "bytes32",
          "name": "",
          "type": "bytes32"
        }
      ],
      "stateMutability": "view",
      "type": "function"
    },
    {
      "inputs": [],
      "name": "DEFAULT_ADMIN_ROLE",
      "outputs": [
        {
          "internalType": "bytes32",
          "name": "",
          "type": "bytes32"
        }
      ],
      "stateMutability": "view",
      "type": "function"
    },
    {
      "inputs": [
        {
          "components": [
            {
              "internalType": "string",
              "name": "name",
              "type": "string"
            },
            {
              "internalType": "string",
              "name": "symbol",
              "type": "string"
            },
            {
              "internalType": "string",
              "name": "contentUrl",
              "type": "string"
            },
            {
              "internalType": "bytes32",
              "name": "contentHash",
              "type": "bytes32"
            },
            {
              "internalType": "string",
              "name": "metadataUrl",
              "type": "string"
            }
          ],
          "internalType": "struct MintableEditions.Info",
          "name": "info",
          "type": "tuple"
        },
        {
          "internalType": "uint64",
          "name": "size",
          "type": "uint64"
        },
        {
          "internalType": "uint256",
          "name": "price",
          "type": "uint256"
        },
        {
          "internalType": "uint16",
          "name": "royalties",
          "type": "uint16"
        },
        {
          "components": [
            {
              "internalType": "address payable",
              "name": "holder",
              "type": "address"
            },
            {
              "internalType": "uint16",
              "name": "bps",
              "type": "uint16"
            }
          ],
          "internalType": "struct MintableEditions.Shares[]",
          "name": "shares",
          "type": "tuple[]"
        },
        {
          "internalType": "address",
          "name": "allowancesRef",
          "type": "address"
        }
      ],
      "name": "create",
      "outputs": [
        {
          "internalType": "address",
          "name": "",
          "type": "address"
        }
      ],
      "stateMutability": "nonpayable",
      "type": "function"
    },
    {
      "inputs": [
        {
          "internalType": "uint256",
          "name": "index",
          "type": "uint256"
        }
      ],
      "name": "get",
      "outputs": [
        {
          "internalType": "contract MintableEditions",
          "name": "",
          "type": "address"
        }
      ],
      "stateMutability": "view",
      "type": "function"
    },
    {
      "inputs": [
        {
          "internalType": "bytes32",
          "name": "role",
          "type": "bytes32"
        }
      ],
      "name": "getRoleAdmin",
      "outputs": [
        {
          "internalType": "bytes32",
          "name": "",
          "type": "bytes32"
        }
      ],
      "stateMutability": "view",
      "type": "function"
    },
    {
      "inputs": [
        {
          "internalType": "bytes32",
          "name": "role",
          "type": "bytes32"
        },
        {
          "internalType": "address",
          "name": "account",
          "type": "address"
        }
      ],
      "name": "grantRole",
      "outputs": [],
      "stateMutability": "nonpayable",
      "type": "function"
    },
    {
      "inputs": [
        {
          "internalType": "bytes32",
          "name": "role",
          "type": "bytes32"
        },
        {
          "internalType": "address",
          "name": "account",
          "type": "address"
        }
      ],
      "name": "hasRole",
      "outputs": [
        {
          "internalType": "bool",
          "name": "",
          "type": "bool"
        }
      ],
      "stateMutability": "view",
      "type": "function"
    },
    {
      "inputs": [],
      "name": "instances",
      "outputs": [
        {
          "internalType": "uint256",
          "name": "",
          "type": "uint256"
        }
      ],
      "stateMutability": "view",
      "type": "function"
    },
    {
      "inputs": [
        {
          "internalType": "bytes32",
          "name": "role",
          "type": "bytes32"
        },
        {
          "internalType": "address",
          "name": "account",
          "type": "address"
        }
      ],
      "name": "renounceRole",
      "outputs": [],
      "stateMutability": "nonpayable",
      "type": "function"
    },
    {
      "inputs": [
        {
          "internalType": "bytes32",
          "name": "role",
          "type": "bytes32"
        },
        {
          "internalType": "address",
          "name": "account",
          "type": "address"
        }
      ],
      "name": "revokeRole",
      "outputs": [],
      "stateMutability": "nonpayable",
      "type": "function"
    },
    {
      "inputs": [
        {
          "internalType": "address",
          "name": "implementation",
          "type": "address"
        }
      ],
      "name": "setImplementation",
      "outputs": [],
      "stateMutability": "nonpayable",
      "type": "function"
    },
    {
      "inputs": [
        {
          "internalType": "bytes4",
          "name": "interfaceId",
          "type": "bytes4"
        }
      ],
      "name": "supportsInterface",
      "outputs": [
        {
          "internalType": "bool",
          "name": "",
          "type": "bool"
        }
      ],
      "stateMutability": "view",
      "type": "function"
    }
  ],
  "transactionHash": "0xcda897f902990a46d3eb7a6a3c3f857c4f209cf379687ca499e4431bdfa8bfb8",
  "args": [
    "0x48736C8181fCc27AF861Ce17F2246076172A6356"
  ],
  "solcInputHash": "480e2a14d701261721c34a203fee264d",
  "bytecode": "0x60806040523480156200001157600080fd5b506040516200172138038062001721833981016040819052620000349162000130565b600280546001600160a01b0319166001600160a01b0383161790556200005c6000336200008f565b620000887f877a78dc988c0ec5f58453b44888a55eb39755c3d5ed8d8ea990912aa3ef29c6336200008f565b5062000162565b6000828152602081815260408083206001600160a01b038516845290915290205460ff166200012c576000828152602081815260408083206001600160a01b03851684529091529020805460ff19166001179055620000eb3390565b6001600160a01b0316816001600160a01b0316837f2f8788117e7eff1d82e926ec794901d17c78024a50270940304540a733656f0d60405160405180910390a45b5050565b6000602082840312156200014357600080fd5b81516001600160a01b03811681146200015b57600080fd5b9392505050565b6115af80620001726000396000f3fe608060405234801561001057600080fd5b50600436106100d45760003560e01c806391d1485411610081578063a966a0df1161005b578063a966a0df146101f9578063d547741f14610220578063d784d4261461023357600080fd5b806391d148541461019a5780639507d39a146101de578063a217fddf146101f157600080fd5b806336568abe116100b257806336568abe1461014757806340ee08091461015a5780634d2ace661461019257600080fd5b806301ffc9a7146100d9578063248a9ca3146101015780632f2ff15d14610132575b600080fd5b6100ec6100e7366004610cfe565b610246565b60405190151581526020015b60405180910390f35b61012461010f366004610d40565b60009081526020819052604090206001015490565b6040519081526020016100f8565b610145610140366004610d8e565b6102df565b005b610145610155366004610d8e565b61030a565b61016d610168366004610ff4565b6103c2565b60405173ffffffffffffffffffffffffffffffffffffffff90911681526020016100f8565b610124610619565b6100ec6101a8366004610d8e565b60009182526020828152604080842073ffffffffffffffffffffffffffffffffffffffff93909316845291905290205460ff1690565b61016d6101ec366004610d40565b610629565b610124600081565b6101247f877a78dc988c0ec5f58453b44888a55eb39755c3d5ed8d8ea990912aa3ef29c681565b61014561022e366004610d8e565b6106e5565b610145610241366004611136565b61070b565b60007fffffffff0000000000000000000000000000000000000000000000000000000082167f7965db0b0000000000000000000000000000000000000000000000000000000014806102d957507f01ffc9a7000000000000000000000000000000000000000000000000000000007fffffffff000000000000000000000000000000000000000000000000000000008316145b92915050565b6000828152602081905260409020600101546102fb813361075f565b610305838361082f565b505050565b73ffffffffffffffffffffffffffffffffffffffff811633146103b4576040517f08c379a000000000000000000000000000000000000000000000000000000000815260206004820152602f60248201527f416363657373436f6e74726f6c3a2063616e206f6e6c792072656e6f756e636560448201527f20726f6c657320666f722073656c66000000000000000000000000000000000060648201526084015b60405180910390fd5b6103be828261091f565b5050565b60007f877a78dc988c0ec5f58453b44888a55eb39755c3d5ed8d8ea990912aa3ef29c66103ef813361075f565b606088015160009081526003602052604090205460ff161561046d576040517f08c379a000000000000000000000000000000000000000000000000000000000815260206004820152601260248201527f4475706c69636174656420636f6e74656e74000000000000000000000000000060448201526064016103ab565b6060880151600090815260036020526040812080547fffffffffffffffffffffffffffffffffffffffffffffffffffffffffffffff001660019081179091555460025460408051602081018490529293506000926104fa9273ffffffffffffffffffffffffffffffffffffffff1691016040516020818303038152906040526104f590611153565b6109d6565b6040517f18f0043f00000000000000000000000000000000000000000000000000000000815290915073ffffffffffffffffffffffffffffffffffffffff8216906318f0043f9061055b9033908e908e908e908e908e908e90600401611272565b600060405180830381600087803b15801561057557600080fd5b505af1158015610589573d6000803e3d6000fd5b505050508560405161059b91906113a2565b6040805191829003822067ffffffffffffffff8c16835273ffffffffffffffffffffffffffffffffffffffff8416602084015291339185917f039f823d491970bc347e480a212355bb63dd8f465e855664b8863259980cfbc2910160405180910390a461060c600180546001019055565b9998505050505050505050565b600061062460015490565b905090565b60025460408051602081018490526000926102d99273ffffffffffffffffffffffffffffffffffffffff909116910160405160208183030381529060405261067090611153565b306040517f3d602d80600a3d3981f3363d3d373d3d3d363d730000000000000000000000008152606093841b60148201527f5af43d82803e903d91602b57fd5bf3ff000000000000000000000000000000006028820152921b6038830152604c8201526037808220606c830152605591012090565b600082815260208190526040902060010154610701813361075f565b610305838361091f565b6000610717813361075f565b50600280547fffffffffffffffffffffffff00000000000000000000000000000000000000001673ffffffffffffffffffffffffffffffffffffffff92909216919091179055565b60008281526020818152604080832073ffffffffffffffffffffffffffffffffffffffff8516845290915290205460ff166103be576107b58173ffffffffffffffffffffffffffffffffffffffff166014610ab4565b6107c0836020610ab4565b6040516020016107d19291906113fd565b604080517fffffffffffffffffffffffffffffffffffffffffffffffffffffffffffffffe0818403018152908290527f08c379a00000000000000000000000000000000000000000000000000000000082526103ab9160040161147e565b60008281526020818152604080832073ffffffffffffffffffffffffffffffffffffffff8516845290915290205460ff166103be5760008281526020818152604080832073ffffffffffffffffffffffffffffffffffffffff85168452909152902080547fffffffffffffffffffffffffffffffffffffffffffffffffffffffffffffff001660011790556108c13390565b73ffffffffffffffffffffffffffffffffffffffff168173ffffffffffffffffffffffffffffffffffffffff16837f2f8788117e7eff1d82e926ec794901d17c78024a50270940304540a733656f0d60405160405180910390a45050565b60008281526020818152604080832073ffffffffffffffffffffffffffffffffffffffff8516845290915290205460ff16156103be5760008281526020818152604080832073ffffffffffffffffffffffffffffffffffffffff8516808552925280832080547fffffffffffffffffffffffffffffffffffffffffffffffffffffffffffffff0016905551339285917ff6391f5c32d9c69d2a47ea670b442974b53935d1edc7fd64eb21e047a839171b9190a45050565b60006040517f3d602d80600a3d3981f3363d3d373d3d3d363d7300000000000000000000000081528360601b60148201527f5af43d82803e903d91602b57fd5bf300000000000000000000000000000000006028820152826037826000f591505073ffffffffffffffffffffffffffffffffffffffff81166102d9576040517f08c379a000000000000000000000000000000000000000000000000000000000815260206004820152601760248201527f455243313136373a2063726561746532206661696c656400000000000000000060448201526064016103ab565b60606000610ac38360026114c0565b610ace9060026114fd565b67ffffffffffffffff811115610ae657610ae6610dbe565b6040519080825280601f01601f191660200182016040528015610b10576020820181803683370190505b5090507f300000000000000000000000000000000000000000000000000000000000000081600081518110610b4757610b47611515565b60200101907effffffffffffffffffffffffffffffffffffffffffffffffffffffffffffff1916908160001a9053507f780000000000000000000000000000000000000000000000000000000000000081600181518110610baa57610baa611515565b60200101907effffffffffffffffffffffffffffffffffffffffffffffffffffffffffffff1916908160001a9053506000610be68460026114c0565b610bf19060016114fd565b90505b6001811115610c8e577f303132333435363738396162636465660000000000000000000000000000000085600f1660108110610c3257610c32611515565b1a60f81b828281518110610c4857610c48611515565b60200101907effffffffffffffffffffffffffffffffffffffffffffffffffffffffffffff1916908160001a90535060049490941c93610c8781611544565b9050610bf4565b508315610cf7576040517f08c379a000000000000000000000000000000000000000000000000000000000815260206004820181905260248201527f537472696e67733a20686578206c656e67746820696e73756666696369656e7460448201526064016103ab565b9392505050565b600060208284031215610d1057600080fd5b81357fffffffff0000000000000000000000000000000000000000000000000000000081168114610cf757600080fd5b600060208284031215610d5257600080fd5b5035919050565b73ffffffffffffffffffffffffffffffffffffffff81168114610d7b57600080fd5b50565b8035610d8981610d59565b919050565b60008060408385031215610da157600080fd5b823591506020830135610db381610d59565b809150509250929050565b7f4e487b7100000000000000000000000000000000000000000000000000000000600052604160045260246000fd5b6040805190810167ffffffffffffffff81118282101715610e1057610e10610dbe565b60405290565b60405160a0810167ffffffffffffffff81118282101715610e1057610e10610dbe565b604051601f82017fffffffffffffffffffffffffffffffffffffffffffffffffffffffffffffffe016810167ffffffffffffffff81118282101715610e8057610e80610dbe565b604052919050565b600082601f830112610e9957600080fd5b813567ffffffffffffffff811115610eb357610eb3610dbe565b610ee460207fffffffffffffffffffffffffffffffffffffffffffffffffffffffffffffffe0601f84011601610e39565b818152846020838601011115610ef957600080fd5b816020850160208301376000918101602001919091529392505050565b803567ffffffffffffffff81168114610d8957600080fd5b803561ffff81168114610d8957600080fd5b600082601f830112610f5157600080fd5b8135602067ffffffffffffffff821115610f6d57610f6d610dbe565b610f7b818360051b01610e39565b82815260069290921b84018101918181019086841115610f9a57600080fd5b8286015b84811015610fe95760408189031215610fb75760008081fd5b610fbf610ded565b8135610fca81610d59565b8152610fd7828601610f2e565b81860152835291830191604001610f9e565b509695505050505050565b60008060008060008060c0878903121561100d57600080fd5b863567ffffffffffffffff8082111561102557600080fd5b9088019060a0828b03121561103957600080fd5b611041610e16565b82358281111561105057600080fd5b61105c8c828601610e88565b82525060208301358281111561107157600080fd5b61107d8c828601610e88565b60208301525060408301358281111561109557600080fd5b6110a18c828601610e88565b604083015250606083013560608201526080830135828111156110c357600080fd5b6110cf8c828601610e88565b60808301525097506110e360208a01610f16565b9650604089013595506110f860608a01610f2e565b9450608089013591508082111561110e57600080fd5b5061111b89828a01610f40565b92505061112a60a08801610d7e565b90509295509295509295565b60006020828403121561114857600080fd5b8135610cf781610d59565b80516020808301519190811015611192577fffffffffffffffffffffffffffffffffffffffffffffffffffffffffffffffff8160200360031b1b821691505b50919050565b60005b838110156111b357818101518382015260200161119b565b838111156111c2576000848401525b50505050565b600081518084526111e0816020860160208601611198565b601f017fffffffffffffffffffffffffffffffffffffffffffffffffffffffffffffffe0169290920160200192915050565b600081518084526020808501945080840160005b83811015611267578151805173ffffffffffffffffffffffffffffffffffffffff16885283015161ffff168388015260409096019590820190600101611226565b509495945050505050565b73ffffffffffffffffffffffffffffffffffffffff8816815260e060208201526000875160a060e08401526112ab6101808401826111c8565b905060208901517fffffffffffffffffffffffffffffffffffffffffffffffffffffffffffffff2080858403016101008601526112e883836111c8565b925060408b01519150808584030161012086015261130683836111c8565b925060608b015161014086015260808b0151915080858403016101608601525061133082826111c8565b915050611349604084018967ffffffffffffffff169052565b86606084015261135f608084018761ffff169052565b82810360a08401526113718186611212565b91505061139660c083018473ffffffffffffffffffffffffffffffffffffffff169052565b98975050505050505050565b815160009082906020808601845b838110156113f1578151805173ffffffffffffffffffffffffffffffffffffffff16865283015161ffff1683860152604090940193908201906001016113b0565b50929695505050505050565b7f416363657373436f6e74726f6c3a206163636f756e7420000000000000000000815260008351611435816017850160208801611198565b7f206973206d697373696e6720726f6c65200000000000000000000000000000006017918401918201528351611472816028840160208801611198565b01602801949350505050565b602081526000610cf760208301846111c8565b7f4e487b7100000000000000000000000000000000000000000000000000000000600052601160045260246000fd5b6000817fffffffffffffffffffffffffffffffffffffffffffffffffffffffffffffffff04831182151516156114f8576114f8611491565b500290565b6000821982111561151057611510611491565b500190565b7f4e487b7100000000000000000000000000000000000000000000000000000000600052603260045260246000fd5b60008161155357611553611491565b507fffffffffffffffffffffffffffffffffffffffffffffffffffffffffffffffff019056fea2646970667358221220053833a3dec315cc5b15f529c8864d458f1f2fdfbb59234bc018d31f7c714d6664736f6c63430008090033",
  "devdoc": {
    "events": {
      "CreatedEditions(uint256,address,(address,uint16)[],uint256,address)": {
        "params": {
          "contractAddress": "the address of the contract representing the editions",
          "creator": "the editions' owner",
          "index": "the identifier of the newly created editions contract",
          "size": "the number of tokens this editions contract consists of"
        }
      }
    },
    "kind": "dev",
    "methods": {
      "constructor": {
        "params": {
          "implementation": "Edition implementation contract to clone"
        }
      },
      "create((string,string,string,bytes32,string),uint64,uint256,uint16,(address,uint16)[],address)": {
        "params": {
          "allowancesRef": "address of the allowances holding contract",
          "info": "name of editions, used in the title as \"$name $tokenId/$size\"",
          "price": "price for sale in wei",
          "royalties": "perpetual royalties paid to the creator upon token selling",
          "shares": "array of tuples listing the shareholders and their respective shares in bps (one per each shareholder)",
          "size": "number of NFTs that can be minted from this contract: set to 0 for unbound"
        },
        "returns": {
          "_0": "the address of the editions contract created"
        }
      },
      "get(uint256)": {
        "params": {
          "index": "zero-based index of editions contract to retrieve"
        },
        "returns": {
          "_0": "the editions contract"
        }
      },
      "getRoleAdmin(bytes32)": {
        "details": "Returns the admin role that controls `role`. See {grantRole} and {revokeRole}. To change a role's admin, use {_setRoleAdmin}."
      },
      "grantRole(bytes32,address)": {
        "details": "Grants `role` to `account`. If `account` had not been already granted `role`, emits a {RoleGranted} event. Requirements: - the caller must have ``role``'s admin role."
      },
      "hasRole(bytes32,address)": {
        "details": "Returns `true` if `account` has been granted `role`."
      },
      "instances()": {
        "returns": {
          "_0": "the number of edition contracts created so far through this factory"
        }
      },
      "renounceRole(bytes32,address)": {
        "details": "Revokes `role` from the calling account. Roles are often managed via {grantRole} and {revokeRole}: this function's purpose is to provide a mechanism for accounts to lose their privileges if they are compromised (such as when a trusted device is misplaced). If the calling account had been revoked `role`, emits a {RoleRevoked} event. Requirements: - the caller must be `account`."
      },
      "revokeRole(bytes32,address)": {
        "details": "Revokes `role` from `account`. If `account` had been granted `role`, emits a {RoleRevoked} event. Requirements: - the caller must have ``role``'s admin role."
      },
      "supportsInterface(bytes4)": {
        "details": "See {IERC165-supportsInterface}."
      }
    },
    "version": 1
  },
  "userdoc": {
    "events": {
      "CreatedEditions(uint256,address,(address,uint16)[],uint256,address)": {
        "notice": "Emitted when an edition is created reserving the corresponding token IDs. "
      }
    },
    "kind": "user",
    "methods": {
      "constructor": {
        "notice": "Initializes the factory with the address of the implementation contract template "
      },
      "create((string,string,string,bytes32,string),uint64,uint256,uint16,(address,uint16)[],address)": {
        "notice": "Creates a new editions contract as a factory with a deterministic address, returning the address of the newly created contract. Important: None of these fields can be changed after calling this operation, with the sole exception of the contentUrl field which must refer to a content having the same hash. "
      },
      "get(uint256)": {
        "notice": "Gets an editions contract given the unique identifier. Contract ids are zero-based. "
      }
    },
    "version": 1
  },
  "storageLayout": {
    "storage": [
      {
        "astId": 2274,
        "contract": "contracts/MintableEditionsFactory.sol:MintableEditionsFactory",
        "label": "_roles",
        "offset": 0,
        "slot": "0",
        "type": "t_mapping(t_bytes32,t_struct(RoleData)2269_storage)"
      },
      {
        "astId": 5648,
        "contract": "contracts/MintableEditionsFactory.sol:MintableEditionsFactory",
        "label": "_counter",
        "offset": 0,
        "slot": "1",
        "type": "t_struct(Counter)1920_storage"
      },
      {
        "astId": 5650,
        "contract": "contracts/MintableEditionsFactory.sol:MintableEditionsFactory",
        "label": "_implementation",
        "offset": 0,
        "slot": "2",
        "type": "t_address"
      },
      {
        "astId": 5654,
        "contract": "contracts/MintableEditionsFactory.sol:MintableEditionsFactory",
        "label": "_contents",
        "offset": 0,
        "slot": "3",
        "type": "t_mapping(t_bytes32,t_bool)"
      }
    ],
    "types": {
      "t_address": {
        "encoding": "inplace",
        "label": "address",
        "numberOfBytes": "20"
      },
      "t_bool": {
        "encoding": "inplace",
        "label": "bool",
        "numberOfBytes": "1"
      },
      "t_bytes32": {
        "encoding": "inplace",
        "label": "bytes32",
        "numberOfBytes": "32"
      },
      "t_mapping(t_address,t_bool)": {
        "encoding": "mapping",
        "key": "t_address",
        "label": "mapping(address => bool)",
        "numberOfBytes": "32",
        "value": "t_bool"
      },
      "t_mapping(t_bytes32,t_bool)": {
        "encoding": "mapping",
        "key": "t_bytes32",
        "label": "mapping(bytes32 => bool)",
        "numberOfBytes": "32",
        "value": "t_bool"
      },
      "t_mapping(t_bytes32,t_struct(RoleData)2269_storage)": {
        "encoding": "mapping",
        "key": "t_bytes32",
        "label": "mapping(bytes32 => struct AccessControl.RoleData)",
        "numberOfBytes": "32",
        "value": "t_struct(RoleData)2269_storage"
      },
      "t_struct(Counter)1920_storage": {
        "encoding": "inplace",
        "label": "struct CountersUpgradeable.Counter",
        "members": [
          {
            "astId": 1919,
            "contract": "contracts/MintableEditionsFactory.sol:MintableEditionsFactory",
            "label": "_value",
            "offset": 0,
            "slot": "0",
            "type": "t_uint256"
          }
        ],
        "numberOfBytes": "32"
      },
      "t_struct(RoleData)2269_storage": {
        "encoding": "inplace",
        "label": "struct AccessControl.RoleData",
        "members": [
          {
            "astId": 2266,
            "contract": "contracts/MintableEditionsFactory.sol:MintableEditionsFactory",
            "label": "members",
            "offset": 0,
            "slot": "0",
            "type": "t_mapping(t_address,t_bool)"
          },
          {
            "astId": 2268,
            "contract": "contracts/MintableEditionsFactory.sol:MintableEditionsFactory",
            "label": "adminRole",
            "offset": 0,
            "slot": "1",
            "type": "t_bytes32"
          }
        ],
        "numberOfBytes": "64"
      },
      "t_uint256": {
        "encoding": "inplace",
        "label": "uint256",
        "numberOfBytes": "32"
      }
    }
  }
}